:1000000000000420BD020000E5020000E70200003D
:10001000E9020000EB020000ED0200000000000019
:10002000000000000000000000000000EF020000DF
:10003000F102000000000000F3020000F5020000E1
:10004000F7020000F70200002135000055670000AC
:10005000313F0000F702000025340000F7020000E5
:10006000F7020000F7020000F7020000F7020000AC
:10007000F7020000F7020000F7020000F70200009C
:10008000F7020000F5230000F7020000F70200006D
:10009000F7020000F7020000F7020000F70200007C
:1000A000F7020000F7020000F7020000F70200006C
:1000B000F7020000F702000000000000000000004E
:1000C000F7020000F7020000F7020000F70200004C
:1000D000F7020000F7020000F70200000000000035
:1000E0000000000000000000000000000000000010
:1000F0000000000000000000000000000000000000
:1001000000000000000000000000000000000000EF
:1001100000000000000000000000000000000000DF
:1001200000000000000000000000000000000000CF
:1001300000000000000000000000000000000000BF
:1001400000000000000000000000000000000000AF
:10015000000000000000000000000000000000009F
:10016000000000000000000000000000000000008F
:10017000000000000000000000000000000000007F
:10018000000000000000000000000000000000006F
:10019000000000000000000000000000000000005F
:1001A000000000000000000000000000000000004F
:1001B000000000000000000000000000000000003F
:1001C000000000000000000000000000000000002F
:1001D000000000000000000000000000000000001F
:1001E000000000000000000000000000000000000F
:1001F00000000000000000000000000000000000FF
:1002000010B5054C237833B9044B13B10448AFF350
:1002100000800123237010BDCC04002000000000EA
:100220004C6C000008B5034B1BB103490348AFF306
:10023000008008BD00000000D00400204C6C0000CD
:10024000A3F5803A704700BF174B002B08BF134B34
:100250009D46FFF7F5FF00218B460F461348144AD1
:10026000121A06F031FB0E4B002B00D098470D4BB5
:10027000002B00D098470020002104000D000D48FD
:10028000002802D00C48AFF3008006F0EBFA200003
:10029000290006F099FA06F0D1FA00BF0000080024
:1002A000000000000000000000000420CC0400203A
:1002B000CC0B002000000000000000000649074AA7
:1002C000074B9B1A03DD043BC858D050FBDC05F0FC
:1002D00051FCFFF7B9FF0000CC6C000000000020CB
:1002E000CC040020FEE7FEE7FEE7FEE7FEE7FEE7C0
:1002F000FEE7FEE7FEE7FEE780B588B000AF786076
:1003000039603B68FB617B681B783B727B685B688C
:10031000FB607B689B68DBB23B747B68DB687B615E
:100320007B681B69DBB23B76074AFB6952F82330D6
:100330000649FA6951F8221007F108021046984759
:1003400000BF2037BD4680BDE8040020F80400202F
:1003500090B58BB000AFF860B9607A603B60FB6825
:100360001B787B621F497B6A7A6841F823201E490B
:100370007B6A3A6841F8232000233B621B4B07F15C
:1003800010040FCB84E80F00BB681B783B74BB687C
:100390005B787B74BB689B78BB74BB68DB78FB7451
:1003A000BB681B797B75BB685B79BB75BB689B6859
:1003B000BB61BB681B7B3B77BB685B7B7B77FB6868
:1003C000181D7B68002B01D0094A00E000227B6ADF
:1003D00007F1100103F078FB38623B6A18462C37AE
:1003E000BD4690BDE8040020F80400200469000028
:1003F000F902000080B588B000AF786039603B68D2
:10040000FB617B681B783B737B685B683B617B6847
:100410009B68DBB23B757B68DB68BB61074AFB69A5
:1004200052F823300649FA6951F8221007F10C02FC
:100430001046984700BF2037BD4680BD0805002004
:100440001005002080B588B000AF786039603B6847
:10045000FB617B681B783B737B685B683B617B68F7
:100460009B68DBB23B757B68DB68BB61074AFB6955
:1004700052F823300649FA6951F8221007F10C02AC
:100480001046984700BF2037BD4680BD08050020B4
:1004900010050020B0B58EB000AFF860B9607A608A
:1004A000FB681B783B6329493B6B7A6841F8232042
:1004B000BB681A6926493B6B41F82320BB685B7F08
:1004C0001946244A3B6B13440A461A70BB6807F16D
:1004D00010041D460FCD0FC495E80F0084E80F00EF
:1004E0003B6B3B6200237B63FB681B781A46194B0E
:1004F0009B5C002B0ED0FB68181D7B68002B01D085
:10050000154A00E0002207F11003194604F048FFE5
:10051000786315E0FB681B781A460E4B9B5C002B3A
:100520000ED1FB6803F10C007B68002B01D00B4A55
:1005300000E0002207F11003194604F0A3F87863E5
:100540007B6B18463837BD46B0BD00BF080500209C
:100550001005002018050020F503000045040000E8
:1005600080B58EB000AFF860B9603B601346FB7198
:1005700000237B63BB687B62FB79BB623B68FB62E9
:1005800097F840303B63FB68043307F124010022F5
:10059000184603F063FC78637B6B18463837BD461A
:1005A00080BD000080B483B000AF0346FB71FB79CF
:1005B000002B03D1054B01221A7000E000BF00BFE1
:1005C0000C37BD465DF8047B704700BF000000207B
:1005D00080B588B000AF786039607B68DBB23B7271
:1005E0003B68DBB27B72FF23BB72FF23FB720623E7
:1005F0003B73CC237B734FF000433B6103233B757C
:1006000000237B7507F108010023084A0848FFF71B
:100610009FFEF861FB69BB61BB69002B02D0B86922
:1006200001F048FE00BF2037BD4680BDA505000093
:100630001469000080B586B002AFF860B960134657
:10064000FB800D4B00221A70FB88DAB2FB88DBB20C
:100650000093BB68F9680948FFF782FF00BF064BAB
:100660001B78DBB283F00103DBB2002BF7D100BFB4
:1006700000BF1037BD4680BD000000201469000097
:1006800080B582B000AF78600B467B807B881A46CD
:100690007968074806F00AF97B881A460549044834
:1006A000FFF7C8FF034B18460837BD4680BD00BFA3
:1006B0001C0500202C05002080B584B000AF7860B8
:1006C0007B68002B0AD0074B43F00103FB607B687B
:1006D0009B01BB60FB68B868984700E000BF10371B
:1006E000BD4680BD4069000080B582B000AF786033
:1006F0007B68002B0AD04FF47A70FFF7DDFF7B6830
:10070000013B7B607B68002BF5D100E000BF083720
:10071000BD4680BD80B483B000AF78607B681B6845
:100720001F2B02D84FF0A04306E07B681B6803F044
:100730001F027B681A60034B18460C37BD465DF8F4
:10074000047B70470003005080B584B000AF786030
:10075000084611461A460346FB700B46BB7013460B
:100760007B703B1D1846FFF7D5FFF860FA78BB7821
:100770005B001A437B789B001A433B7E1B0242EAD4
:1007800003013B7F1B047A681943FB6802F5E072A2
:1007900043F8221000BF1037BD4680BD80B584B03D
:1007A00002AF78600023019300230093002301220D
:1007B00001217868FFF7C8FF00BF0837BD4680BD3C
:1007C00080B584B000AF78603B1D1846FFF7A2FFEC
:1007D000F8607B68012202FA03F31946F86800F01A
:1007E00019F800BF1037BD4680BD80B584B000AF9A
:1007F00078603B1D1846FFF78DFFF8607B6801228B
:1008000002FA03F31946F86800F013F800BF103736
:10081000BD4680BD80B483B000AF786039607B682E
:100820003A68C3F8082500BF0C37BD465DF8047B65
:10083000704780B483B000AF786039607B683A68F5
:10084000C3F80C2500BF0C37BD465DF8047B70472C
:1008500080B588B002AFF8607A601A460B46FB722A
:100860001346BB7200237B61FB68181DBA7AF97AC4
:1008700097F82030009313467A6805F0B1FE78614E
:100880007B6918461837BD4680BD000080B400AFB4
:10089000034BB3F900301846BD465DF8047B704742
:1008A0004C05002080B400AF034BB3F9003018466C
:1008B000BD465DF8047B70474E05002080B584B0CE
:1008C00000AFF860B9607A603B600F4AFB68136064
:1008D0000E4ABB6813600E4A7B681360F868FFF726
:1008E0005DFFB868FFF75AFF094B1B681846FFF712
:1008F00067FFB868FFF752FFB9693868FFF768FE0D
:1009000000BF1037BD4680BD4005002044050020D3
:100910004805002080B586B002AF0346FB71194B35
:100920001B78DBB2002B0FD000233B72FB797B726C
:10093000154B197807F1080200230093022313488E
:10094000FFF786FFF86018E0114B1B681846FFF7A9
:1009500037FF104B1B681846FFF747FF0C4B1B680F
:100960001846FFF742FFFB1D01211846FFF788FEDE
:10097000074B1B681846FFF723FF00BF1037BD4623
:1009800080BD00BF600500203C05002024690000F8
:10099000480500204005002080B582B000AF034626
:1009A000FB710B46BB7113467B715C4AFB7913707C
:1009B0005B4ABB7913705B4BB3F900205A4B1A802A
:1009C0005A4BB3F900205A4B1A805A4B00221A8016
:1009D000584BB3F90020584B1A80584B01221A701B
:1009E000574B4FF6FF721A80554B1A88554B1A8099
:1009F000554B01221A70554B00221A70494B802228
:100A00001A80484BB3F90020474B1A80474B4022CD
:100A10001A80464BB3F90020454B1A804C4B0022FC
:100A20001A707B79002B14D04A4B1B681846FFF7CD
:100A3000C7FE0120FFF758FE464B1B681846FFF71C
:100A4000D4FE0A20FFF750FE424B1B681846FFF702
:100A5000B7FEAE20FFF75EFFD520FFF75BFF8020DB
:100A6000FFF758FFA820FFF755FF3F20FFF752FF81
:100A7000D320FFF74FFF0020FFF74CFF4020FFF788
:100A800049FF8D20FFF746FFFB79012B03D1102092
:100A9000FFF740FF02E01420FFF73CFF2020FFF7A4
:100AA00039FF0020FFF736FFA120FFF733FFC820F2
:100AB000FFF730FFDA20FFF72DFF1220FFF72AFFA4
:100AC0008120FFF727FFFB79012B03D19F20FFF740
:100AD00021FF02E0CF20FFF71DFFD920FFF71AFF0B
:100AE000FB79012B03D12220FFF714FF02E0F12054
:100AF000FFF710FFDB20FFF70DFF4020FFF70AFF95
:100B0000A420FFF707FFA620FFF704FFAF20FFF7A1
:100B100001FF00BF0837BD4680BD00BF3D05002076
:100B20003C050020500500204C0500205205002007
:100B30004E050020540500205605002058050020D1
:100B40005C0500205A0500205E0500205F0500209E
:100B5000590500204405002080B584B000AF03464D
:100B6000FB800B46BB8013467B80B7F90630002B19
:100B7000C0F2C780FFF78AFE03461A46B7F906306F
:100B8000934280F2BE80B7F90430002BC0F2B980E6
:100B9000FFF788FE03461A46B7F90430934280F205
:100BA000B0805A4B1B78032B2CD0032B3BDC012B42
:100BB00002D0022B11D036E0FB88BB81BB88FB80C2
:100BC000BB89BB80524BB3F900309AB2FB88D31A71
:100BD0009BB2013B9BB2FB8025E04D4BB3F900304B
:100BE0009AB2FB88D31A9BB2013B9BB2FB80494B64
:100BF000B3F900309AB2BB88D31A9BB2013B9BB2C7
:100C0000BB8010E0FB88FB81BB88FB80FB89BB803D
:100C1000404BB3F900309AB2BB88D31A9BB2013B68
:100C20009BB2BB8000BF7B88022B49D0022B69DCC2
:100C3000002B22D0012B65D1B7F90620B7F904307B
:100C4000002B00DA0733DB1018B20346DB01134434
:100C5000314AD35C5AB2BB8803F00703012101FA81
:100C600003F35BB2134359B2B7F906200346DB0125
:100C70001344C9B2284AD15444E0B7F90620B7F961
:100C80000430002B00DA0733DB1018B20346DB0117
:100C90001344214AD35C5AB2BB8803F007030121F5
:100CA00001FA03F35BB2DB435BB2134059B2B7F90D
:100CB00006200346DB011344C9B2174AD15421E090
:100CC000B7F90620B7F90430002B00DA0733DB1040
:100CD00018B20346DB0113440F4AD35C5AB2BB88F7
:100CE00003F00703012101FA03F35BB2534059B249
:100CF000B7F906200346DB011344C9B2064AD154B2
:100D000000E000BF1037BD4680BD00BF5905002080
:100D100050050020520500200400002080B584B05A
:100D200002AF2120FFF7F6FD0020FFF7F3FD7F2043
:100D3000FFF7F0FD2220FFF7EDFD0020FFF7EAFDB1
:100D40000720FFF7E7FD204B1B78DBB2002B12D00A
:100D50001E4B19780123009301231D4A1D48FFF7FC
:100D600077FD1A4B19780023009300231A4A19487B
:100D7000FFF76EFD24E0194B1B681846FFF720FDB6
:100D8000174B1B681846FFF71BFD144B1B681846D2
:100D9000FFF72BFD0023FB8009E0FB880E4A13447C
:100DA00001211846FFF76CFCFB880133FB80FB88B0
:100DB000B3F5806FF1D3094B1B681846FFF700FDB0
:100DC00000BF0837BD4680BD600500203C050020FF
:100DD00004040020246900000400002048050020CD
:100DE0004005002090B587B000AF04460846114684
:100DF0001A462346FB800346BB800B467B80134686
:100E00003B807B88C3F101039BB2FB820123BB8241
:100E10007B881A46D203D31A5B009BB27B820023E5
:100E20003B827B88FB81BA887B8813449BB219B2D2
:100E30003A88B7F906301846FFF78EFEBA887B88E5
:100E4000D31A9BB219B23A88B7F906301846FFF7A1
:100E500083FEFA887B8813449BB21BB23A88B7F9A9
:100E600004101846FFF778FEFA887B88D31A9BB2E5
:100E70001BB23A88B7F904101846FFF76DFE91E0EF
:100E8000B7F91630002B0EDBB7F90E309BB2013BE1
:100E90009BB2FB817B8A02339BB27B82FA8A7B8A7C
:100EA00013449BB2FB82B7F910309BB201339BB263
:100EB0003B82BB8A02339BB2BB82FA8ABB8A134451
:100EC0009BB2FB82FA883B8A13449BB218B2BA8861
:100ED000FB8913449BB21BB23A881946FFF73CFECC
:100EE000FA883B8AD31A9BB218B2BA88FB8913449A
:100EF0009BB21BB23A881946FFF72EFEFA883B8A4E
:100F000013449BB218B2BA88FB89D31A9BB21BB2A6
:100F10003A881946FFF720FEFA883B8AD31A9BB21B
:100F200018B2BA88FB89D31A9BB21BB23A88194609
:100F3000FFF712FEFA88FB8913449BB218B2BA88F5
:100F40003B8A13449BB21BB23A881946FFF704FE52
:100F5000FA88FB89D31A9BB218B2BA883B8A134429
:100F60009BB21BB23A881946FFF7F6FDFA88FB8957
:100F700013449BB218B2BA883B8AD31A9BB21BB2F5
:100F80003A881946FFF7E8FDFA88FB89D31A9BB225
:100F900018B2BA883B8AD31A9BB21BB23A88194658
:100FA000FFF7DAFDB7F91020B7F90E309A42FFF6D5
:100FB00067AF00BF00BF1C37BD4690BD80B5A0B075
:100FC00002AFF860B9607A603B60B86801F034FF46
:100FD0007B68FB643B683B6500237B65002387F8E7
:100FE00058300023FB65D7F880303B6600237B67D1
:100FF00007F134017B6F0822B86801F0E1FF082394
:101000007B67FB6B3B643B8FA7F844307B8FA7F873
:101010004630002387F8493097F8343003F0030353
:10102000DBB2012B29D17B6BC3F39523BB6697F809
:101030003430C3F3C203DBB287F84830BB8EC3F34E
:101040008313DBB27B667B6E9A0007F11C017B6F1A
:10105000B86801F0B5FF7B6E9B007A6F13447B6725
:1010600007F1400207F11C0107F14C0300931346FE
:101070007A6EB86E00F09CFE32E097F8343003F0E0
:101080000303DBB2022B2BD1FB8EC3F389139BB27C
:101090003B6797F83430C3F3C203DBB287F84830BC
:1010A0003B6F082B28BF0823FB6607F114017B6FF9
:1010B000FA6EB86801F084FF7A6FFB6E13447B67A9
:1010C0003A6FFB6ED31A3B6707F14C0307F14002FE
:1010D00007F11400F96E00F00DFF3B6F002BDFD11C
:1010E000B86801F0B9FE00BF7837BD4680BD00008A
:1010F00080B582B000AF78607B681B781A460D4BD4
:101100009B5C002B05D07B680433184604F0A6F9DD
:101110000BE07B681B781A46064B9B5C002B04D1C6
:101120007B680C33184603F00FFB00BF0837BD4641
:1011300080BD00BF1805002080B586B000AFF86004
:10114000B9601346FB7100237B61FB681B781A466C
:10115000104B9B5C002B08D0FB680433FA79B9680C
:10116000184604F0DFF978610EE0FB681B781A4638
:10117000084B9B5C002B07D1FB680C33FA79B968EC
:10118000184603F059FB78617B6918461837BD464D
:1011900080BD00BF1805002080B483B000AF786028
:1011A0003960044B01221A7000BF0C37BD465DF850
:1011B000047B7047A4050020B0B58CB000AF034697
:1011C000FB711A4B07F108041D460FCD0FC495E8BB
:1011D0000F0084E80F000623BB604FF0FF33FB6075
:1011E0004FF0FF333B614FF0FF337B614FF0EB7308
:1011F0003B62FB79002B01D00D4A00E0002207F191
:10120000080319460B48FFF745F9F862FB6ABB6211
:10121000BB6A002B02D0B86A01F04CF8064AFB7991
:10122000137000BF3037BD46B0BD00BF4869000035
:101230009911000008040020A505002080B588B0A1
:1012400000AFF860B9607A607B68FB77114B0022D1
:101250001A70FB7F1A46B9680F48FFF76DFFB86137
:10126000BB697B617B69002B02D0786901F022F8B1
:1012700000BF0A4B1B78002B07D0064B1B78DBB254
:1012800083F00103DBB2002BF3D100BF2037BD4652
:1012900080BD00BFA405002008040020A505002093
:1012A00080B584B002AF78603960064B009340236C
:1012B000054A39687868FFF781FE00BF0837BD46E8
:1012C00080BD00BF3D1200006405002080B483B0E3
:1012D00000AF786000BF0C37BD465DF8047B7047F7
:1012E00080B582B000AF78600448FFF701FF0020AE
:1012F000FFF762FF00BF0837BD4680BD080400202D
:1013000080B582B000AF786039607B681B681B686D
:1013100039687868984700BF0837BD4680BD80B5FA
:1013200082B000AF78607B681B685B68786898471C
:1013300000BF0837BD4680BD80B582B000AF786081
:101340007B681B689B687868984700BF0837BD4674
:1013500080BD80B483B000AF78607B68DB68012219
:101360005A7100BF0C37BD465DF8047B704780B4EE
:1013700083B000AF78607B68DB685B7918460C3718
:10138000BD465DF8047B704780B400AF044A054B4E
:10139000D31ADB081846BD465DF8047B704700BFD2
:1013A000A06C0000506C000080B586B000AF786083
:1013B0000B46FB70FB78002B1FD0FFF7E5FF386171
:1013C00000237B6113E07B699B000E4A1344FB60A2
:1013D000FB681B881A467B681B689A4204D17B68AD
:1013E0007A691A60002309E07B6901337B617A69BD
:1013F0003B699A42E7D3052300E0002318461837DB
:10140000BD4680BDCC04002080B584B000AF7860BC
:101410000B46FB70FA783B1D11461846FFF7C4FFD8
:101420000346002B07D17B68DB00054A1344FB60B1
:10143000FB681B6800E0002318461037BD4680BDDE
:10144000506C000080B485B000AF78600B46FB7034
:101450007B68DB00144A1344BB60FB78013B032B21
:1014600018D801A252F823F0791400007F1400006C
:10147000851400008D1400000223FB730DE004238B
:10148000FB730AE0BB681B79FB7306E0BB685B7902
:10149000FB7302E00023FB7300BFFB7B184614378D
:1014A000BD465DF8047B7047506C000080B485B089
:1014B00000AF786039600023FB737B681B7803F012
:1014C0000403DBB2002B23D07B681B78C3F301033A
:1014D000DBB2012B02D0022B0CD017E03B681B685B
:1014E0007A681288C2F38312D2B213449A1C3B6802
:1014F0001A600BE03B681B687A685288C2F3891255
:1015000092B213449A1C3B681A6000BF0123FB731C
:10151000FB7B18461437BD465DF8047B704700001E
:1015200080B58AB000AF0023FB84384800F0ECFFA0
:10153000374800F0E9FF374B9B683B61364B1B682F
:10154000BB613A69BB69134002339B00314A1344C3
:1015500004333B6207F110031946386AFFF7A6FF10
:101560000346002B09D03A69BB69134002339B0044
:10157000284A134404333B62ECE700BF0023FB61BD
:1015800011E03B695A1C3A61BA691340FA6992004A
:10159000391D0A441F4902339B000B445B681360EA
:1015A000FB690133FB61FB69012BEAD93B79C3F38A
:1015B0000103DBB2012B0DD0022B16D17B89FB84FA
:1015C000FB88C3F389139BB203339A083B69134426
:1015D0003B610BE07B89FB84BB88C3F38313DBB2E5
:1015E0001A463B6913443B6100E000BF084800F025
:1015F00098FF78617B69002B02D03B69054A9360B4
:10160000FB8C18462837BD4680BD00BF900A0020DD
:101610008C0A0020780600202404002080B584B0C5
:1016200000AF0021074800F0F3FEF860FB68BB60E4
:10163000BB6883F310037B607B6818461037BD4698
:1016400080BD00BF940A002080B588B000AFF8606C
:10165000B9607A603B60FB681B0CBB61FFF7DEFF83
:10166000F861FB6919043B685A1CBB6A1340BA69EC
:101670000A431B4902339B000B445A603A68BB6A19
:10168000134002339B00164A134404337B61FB680A
:1016900003F00703D9B27A69137861F3C5031370B5
:1016A0007B6803F00F03D9B27A69138861F3891359
:1016B0001380BB68C3F315017A69136861F39F2334
:1016C00013607A691378012161F3010313707A6959
:1016D00013786FF38203137000BF2037BD4680BDBF
:1016E0007806002080B58AB000AFF860B960134674
:1016F000FB71FB6802333B620123FB77002000F0A3
:1017000063FE374B5A68BB681A60364B1A68344B15
:101710009968334B5B68CB1A134401337B6214E046
:101720000121314800F0BEFEFFF7FAFE78617969C9
:101730002D4800F0B7FE2B4B1A68294B9968284BAF
:101740005B68CB1A134401337B623A6A7B6A9A4224
:10175000E6D8FB7F002B3BD000233B61FB79002BBD
:1017600011D03B7C012262F301033B743B7C43F0CC
:1017700004033B74FB6803F00F03DAB23B8A62F3A5
:1017800089133B8210E03B7C022262F301033B742D
:101790003B7C43F004033B74FB68C3F309039AB238
:1017A0007B8A62F38F137B820D4B5A680D4B1B684B
:1017B000134002339B000A4A13440433BB613A6965
:1017C000BB691A60064B5A683B6A1344044A53606B
:1017D000002000F003FEFB7F18462837BD4680BD81
:1017E0007806002024040020940A002080B58AB0E6
:1017F00002AFF860B9607A603B60204B1B687B6188
:1018000007F11003012219463868FFF76BFF034602
:10181000002B24D03B690233FB610023BB6111E044
:10182000BB699B007A681A44FB69591CF9617969A4
:101830000B401268124902339B000B445A60BB698B
:101840000133BB61BA693B689A42E9D33A697B6963
:10185000009313463A68B968F868FFF7F5FE084B3D
:101860001B78002B05D000BF00F02EF80346002B9C
:10187000FAD100BF2037BD4680BD00BF2404002040
:101880007806002080B582B000AF78603960002310
:10189000002239687868FFF7A9FF00BF0837BD4606
:1018A00080BD000080B400AF064B9A68054B5B68B2
:1018B0009A420CBF01230023DBB21846BD465DF8F7
:1018C000047B70477806002080B598B000AFFFF722
:1018D000E9FF0346002B01D00023A7E1924B002231
:1018E000C3F81824BFF34F8F00BF8F4B9B683B6139
:1018F0008E4B1B683B643A693B6C134002339B0080
:10190000894A134404337B640023FB650023BB65D1
:101910000023FB6307F110031946786CFFF7C6FD3F
:101920000346002B19D0804BD3F81834002B14D168
:101930007D4B5A683B699A4205D87B4B5B687A4A73
:101940009360002372E13A693B6C134002339B00C1
:10195000754A134404337B64DCE700237B6511E0A4
:101960003B695A1C3A613A6C13407A6D9200391DFA
:101970000A446D4902339B000B445B6813607B6D26
:1019800001337B657B6D012BEAD93B7903F00303BF
:10199000DBB2022B40F09280FB88C3F389139BB229
:1019A0007B63FB88C3F389139BB2502B28BF502362
:1019B0009BB23B633B6BC3F309039AB2FB8862F3B0
:1019C0008F13FB803B6B0833FB623B79C3F3C2038D
:1019D000DBB2FB63F96A564801F0A0F9F865FB6DCC
:1019E000002B00F0C680F86D01F026FA391DBB6DA2
:1019F0000822F86D01F0CEFABB6D0833BB653B6978
:101A0000DA433B6C134001339B00BB623A6BBB6A09
:101A10009A423DD9BB6A002B08D03A693B6C13400F
:101A200002339B00404A1344043300E0414B3B62C5
:101A3000BB6A002B02D0BB6ADBB201E03B6BDBB2BE
:101A4000FB77BB6A002B01D03A4B00E00023BB615F
:101A5000BB6A002B06D03B6BDAB2BB6ADBB2D31A8F
:101A6000DBB200E00023FB75FA7FBB6D396AF86DCD
:101A700001F090FAFB7FBA6D1344BB65BB69002B84
:101A800015D0FA7DBB6DB969F86D01F083FA0EE0EF
:101A90003A693B6C134002339B00234A13440433DE
:101AA0007B62BB6D3A6B796AF86D01F073FA7B6B00
:101AB00003339A083B6913443B615AE03B7903F0D6
:101AC0000303DBB2012B54D1BB88C3F38313DBB216
:101AD000062B28BF0623DAB2BB8862F38913BB80CA
:101AE000BB88C3F38313DBB20233BB633B79C3F31D
:101AF000C203DBB2FB63BB6B9B0019460C4801F0D1
:101B00000DF9F865FB6D002B33D0F86D01F094F9F9
:101B1000391DBB6D0822F86D01F03CFABB6D08332E
:101B2000BB6500237B651CE07806002024040020B0
:101B3000B06C0000840600203B695A1C3A613A6C84
:101B4000134002339B003B4A1344191DBB6D042212
:101B5000F86D01F01FFABB6D0433BB657B6D01337B
:101B60007B65BB88C3F38313DBB21A467B6D93425C
:101B7000E2D3FB6D002B39D02E4BD3F810343B65EC
:101B80002C4BD3F81834002B1BD0F86D01F064F9FE
:101B900046E0002387F84F30386DFFF7E8FB034637
:101BA000002B02D0012387F84F3097F84F30002BDD
:101BB00003D0F96D386DFFF7A3FB3B6DDB681B6845
:101BC0003B653B6D002BE4D1F86D01F045F9002039
:101BD00000F0FAFB174BD3F81834002B02D13B6905
:101BE000144A9360002000F0F9FB19E0114BD3F880
:101BF0001034BB6406E0B86CFFF79EFBBB6CDB687F
:101C00001B68BB64BB6C002BF5D10B4A0B4BD31A82
:101C1000DB081B0443F0020309491846FFF732FEB4
:101C2000FFF740FE034683F00103DBB2184660373E
:101C3000BD4680BD78060020806C0000506C00001E
:101C40008C69000080B582B000AF0D4BD3F8103422
:101C50007B600B4B01221A7009E07868FFF779FB73
:101C60007868FFF75CFB7B68DB681B687B607B68E0
:101C7000002BF2D100BF00BF0837BD4680BD00BFBA
:101C80007806002080B483B000AF7860396000BF70
:101C90000C37BD465DF8047B7047000090B585B0F9
:101CA00002AF786039607B68DB88002B0AD07B68E4
:101CB000DB881A461F4B009313461F4A1F4938689A
:101CC00000F0CEFC7B681B7A052B2ED07B685B7AFC
:101CD000002B12D07B689B881A467B681B7A1946BA
:101CE0001046FFF7AFFB03461A46154B53F8223058
:101CF0001A461449386800F0B3FC7B681B68194623
:101D00003868FFF7BFFF7B681B7A1A460E4B53F803
:101D100022407B689B8800211846FFF775FB03462D
:101D200022460A49386800F09BFC00BF0C37BD46CC
:101D300090BD00BFC0690000D0690000086A0000C3
:101D40003C040020206A000028040020246A0000CF
:101D500080B584B000AFF860B9601346FB71FB68D2
:101D60001B7A052B0FD0FB685B7A002B06D00D4B3E
:101D70001B681A460C49B86800F072FC0B49B86839
:101D800000F06EFC06E0FB79002B03D00749B86831
:101D900000F066FCB86800F04AFC00BF1037BD4692
:101DA00080BD00BF3C040020206A0000306A0000B3
:101DB000B0B58AB004AFF860B9607A603B60BB6AC6
:101DC0001B7BFB75BB6A00221A73B96A3868FFF780
:101DD00065FF7B68062B7FD801A252F823F000BF75
:101DE000FD1D0000071E0000171E00002B1E000036
:101DF000491E0000711E0000A11E0000F968B86AAB
:101E000000F02EFC69E0BB681B681A46F968B86AE6
:101E100000F026FC61E0BB681A68BB6804331B68ED
:101E2000F968B86A00F01CFC57E0BB681A68BB6828
:101E300004331968BB6808331B6800930B46F968C4
:101E4000B86A00F00DFC48E0BB681968BB68043351
:101E50001868BB6808331B68BA680C3212680192B4
:101E6000009303460A46F968B86A00F0F9FB34E0CB
:101E7000BB681868BB6804331C68BB6808331B6800
:101E8000BA680C321268B96810310968029101927F
:101E9000009323460246F968B86A00F0E1FB1CE0B3
:101EA000BB681C68BB6804331D68BB6808331B68CB
:101EB000BA680C321268B96810310968B868143011
:101EC000006803900291019200932B462246F96824
:101ED000B86A00F0C5FB00E000BF0022B96A3868AC
:101EE000FFF736FFBB6AFA7D1A7300BF1837BD468D
:101EF000B0BD00BF80B586B000AFF860B9607A6051
:101F00003B60BB68082B5CD83B681B7BFB743B6861
:101F100000221A7339687868FFF7C0FE00237B61DE
:101F200014E07A69BB689A4209D2FA687B69134463
:101F30001B781A462549386800F092FB03E02449D3
:101F4000386800F08DFB7B6901337B617B69072B6F
:101F5000E7D92049386800F083FB00237B6124E047
:101F60007A69BB689A4219D2FA687B6913441B7874
:101F7000BB74BB7C7E2B0AD8BB7C0133164A13444E
:101F80001B7803F09703002B01D0BB7C00E02E23CD
:101F90001A461249386800F063FB03E010493868BC
:101FA00000F05EFB7B6901337B617B69072BD7D92E
:101FB000012239687868FFF7CBFE3B68FA7C1A7318
:101FC00000E000BF1837BD4680BD00BF346A000086
:101FD0003C6A0000406A0000E66A0000446A0000B3
:101FE000486A000080B483B000AF78607B681B68EB
:101FF0001F2B02D84FF0A04306E07B681B6803F05C
:102000001F027B681A60034B18460C37BD465DF80B
:10201000047B70470003005080B584B000AF786047
:10202000084611461A460346FB700B46BB70134622
:102030007B703B1D1846FFF7D5FFF860FA78BB7838
:102040005B001A437B789B001A433B7E1B0242EAEB
:1020500003013B7F1B047A681943FB6802F5E072B9
:1020600043F8221000BF1037BD4680BD80B584B054
:1020700002AF786000230193002300930023012224
:1020800001217868FFF7C8FF00BF0837BD4680BD53
:1020900080B584B002AF78600B46FB70FB780022FD
:1020A000019200220092002200217868FFF7B4FF1D
:1020B00000BF0837BD4680BD80B584B000AF7860F2
:1020C0003B1D1846FFF78EFFF8607B68012202FA7D
:1020D00003F31946F86800F04FF800BF1037BD460B
:1020E00080BD80B584B000AF78603B1D1846FFF717
:1020F00079FFF8607B68012202FA03F31946F86859
:1021000000F049F800BF1037BD4680BD80B584B0EF
:1021100000AF78603B1D1846FFF764FFF860FB686E
:10212000D3F80435BB60BB68DA437B68012101FA50
:1021300003F31A40FB68C3F808257B6801229A4024
:10214000BB681A40FB68C3F80C2500BF1037BD46BA
:1021500080BD80B582B000AF786039603B68002BED
:1021600003D17868FFF7BDFF02E07868FFF7A4FFAE
:1021700000BF0837BD4680BD80B483B000AF786033
:1021800039607B683A68C3F8082500BF0C37BD4644
:102190005DF8047B704780B483B000AF786039602D
:1021A0007B683A68C3F80C2500BF0C37BD465DF864
:1021B000047B704780B582B000AF7860054A7B68C9
:1021C00013441B7801211846FFF7C3FF00BF0837EF
:1021D000BD4680BD4C6A000080B582B000AF0023D0
:1021E0007B6005E07868FFF7E5FF7B6801337B6083
:1021F0007B68022BF6D900BF00BF0837BD4680BD03
:1022000080B582B000AF7860054A7B6813441B78C4
:102210001846FFF77BFF00BF0837BD4680BD00BFF3
:102220004C6A000080B582B000AF00237B6009E0FB
:10223000094A7B6813441B781846FFF717FF7B6831
:1022400001337B607B68022BF2D9FFF7C5FF00BF2B
:102250000837BD4680BD00BF4C6A000080B582B023
:1022600000AF00237B6007E0202303211846FFF71F
:102270000FFF7B6801337B607B68002BF4D000BFCD
:1022800000BF0837BD4680BD80B582B000AF786022
:102290007B6803F00103002B01D0FFF7C3FF7B68CD
:1022A00003F00203002B01D0FFF7D8FF00BF08376F
:1022B000BD4680BD80B586B000AF78600023FB606E
:1022C00000233B617B687B6107F10C031A46002108
:1022D00044F2010000F01AF800BF1837BD4680BD77
:1022E00080B400AFBFF34F8F00BF064BDB6803F431
:1022F000E0620449044B1343CB60BFF34F8F00BF30
:1023000000BFFDE700ED00E00400FA0580B584B0F1
:1023100000AFF860B9607A6072B600BFFFF792FC58
:1023200000BFFFF7D1FA0346002BFAD10F4A104B3A
:10233000D31ADB081B0443F001030E491846FFF7CC
:10234000A1FA0D4B1B6803F00103002B00D000BE67
:10235000064A074BD31ADB081B0443F00203074964
:102360001846FFF78FFAFFF7BBFF00BF806C000035
:10237000506C00005C6A0000F0ED00E0686A00004C
:1023800080B400AF72B600BF044B1B680133034A30
:10239000136000BFBD465DF8047B7047980A0020BB
:1023A00080B400AF074B1B68013B064A1360054B26
:1023B0001B68002B01D162B600BF00BFBD465DF8AF
:1023C000047B7047980A002080B582B000AF786027
:1023D000FFF7D6FF00BF0837BD4680BD80B582B08D
:1023E00000AF0346FB71FFF7DBFF00BF0837BD46B8
:1023F00080BD000080B500AF034B1B68034A126824
:102400001046984700BF80BD9C0A0020A00A00200B
:1024100090B486B000AF786039607B683A6853E862
:10242000004F104643E8000191F0000FF7D17C61A6
:102430003861F9607B6918461837BD4690BC704713
:1024400090B486B000AF786039607B683A6853E832
:10245000004F44EA020043E8000191F0000FF6D17A
:102460007C613861F9603B6918461837BD4690BCFD
:10247000704790B486B000AF786039607B683A6886
:1024800053E8004F04EA020043E8000191F0000F16
:10249000F6D17C613861F9607B6918461837BD4612
:1024A00090BC704790B486B000AF786039607B68AC
:1024B0003A6853E8004F04EB020043E8000191F052
:1024C000000FF6D17C613861F9603B691846183716
:1024D000BD4690BC704790B486B000AF786039605C
:1024E0007B683A6853E8004FA4EB020043E8000120
:1024F00091F0000FF6D17C613861F9603B691846B4
:102500001837BD4690BC704780B582B000AF786088
:1025100001217868FFF794FF034618460837BD4647
:1025200080BD80B582B000AF786000217868FFF789
:10253000A0FF034618460837BD4680BD80B483B06F
:1025400000AF78600B46FB707B68DA68FB787968CF
:10255000098A01FB03F3134418460C37BD465DF8A6
:10256000047B704780B483B000AF786039603B680B
:102570007A68D2689B1A7A68128AB3FBF2F3DBB2EC
:1025800018460C37BD465DF8047B704780B584B0B3
:1025900000AF78600023FB600020FFF715FF7B6829
:1025A0001B681A687B685B689A421CD97B681B6849
:1025B0001A68013A1A601B681B7819467868FFF799
:1025C000BDFFF8607B689A687B681B681B68D31A3C
:1025D000FB727B681B681B79FA7A9A4203D97B6885
:1025E0001B68FA7A1A710020FFF7F8FEFB6818469C
:1025F0001037BD4680BD90B585B000AF78603960BA
:102600003B68FB600020FFF7DFFE7B681B681C68EF
:10261000621C1A60F9687868FFF7A4FF034623700C
:102620000020FFF7DBFE00BF1437BD4690BD80B52C
:1026300082B000AF78607B689B68002B0CD07B6811
:102640005B697A6810697A6811687A689268984755
:102650007B6800229A6000E000BF0837BD4680BD5D
:102660000EB480B585B000AF7860FB69002B0CD04C
:102670000023FB6007F12003FB6007F10C031A46FF
:10268000F969786800F0AEF900E000BF1437BD4684
:10269000BDE8804003B0704780B582B000AF78607D
:1026A0000B46FB70FB780A2B03D10D217868FFF7EE
:1026B000F3FF7B681A687B689B68581C79688860A0
:1026C0001344FA781A707B689A687B685B689A4250
:1026D00002D37868FFF7ABFF00BF0837BD4680BD67
:1026E00080B586B000AFF860B9607A603B600023C7
:1026F0007B613B6803F00103002B21D00AE0BB683B
:102700000133BB607B6901337B61FB7C1946F86850
:10271000FFF7C2FFBB681B78FB74FB7C002BEED17C
:1027200006E07B68013B7B602021F868FFF7B4FF7F
:102730007A687B699A422BD97B68002BF1D127E01C
:10274000BB68002B0BD0B86804F0C6F8786106E0CF
:102750007B68013B7B602021F868FFF79DFF7A686A
:102760007B699A420ED97B68002BF1D10AE0BB68E5
:102770000133BB607B6901337B61FB7C1946F868E0
:10278000FFF78AFFBB681B78FB74FB7C002BEED144
:1027900000BF1837BD4680BD80B588B000AFF86077
:1027A000B9607A603B60BB68FB610123BB6107E0F5
:1027B000FA697B68B2FBF3F3FB61BB690133BB6170
:1027C000FA697B689A42F3D23A68BB699A4201D9A6
:1027D0003B68BB61FB6A03F00103002B1FD1BB6A9E
:1027E000002B1CD0FB6A03F00203002B05D03B68D2
:1027F000002B02D13023FB7501E02023FB7507E09D
:10280000BB6A013BBB62FB7D1946F868FFF744FFDA
:10281000BB6A002B03D0BA69BB6A9A42F0D301238A
:10282000FB613B68012B03D93B68013B3B6009E03E
:10283000BA68FB69B2FBF3F33B613A697B689A4281
:1028400000D205E0FB697A6802FB03F3FB61E8E76D
:10285000BA68FB69B2FBF3F33B613B69FA6902FBBF
:1028600003F3BA68D31ABB60154A3B6913441B785B
:102870001946F868FFF710FFFA697B68B2FBF3F3BB
:10288000FB61FB69002BE3D1FB6A03F00103002B22
:1028900011D0BB6A002B0ED006E0BB6A013BBB62C5
:1028A0002021F868FFF7F8FEBB6A002B03D0BA6955
:1028B000BB6A9A42F1D300BF2037BD4680BD00BF3E
:1028C000886A000080B588B002AFF860B9607A60AD
:1028D0003B60BB68002BB8BF5B423B6101237B615F
:1028E00007E07B683A6992FBF3F33B617B69013354
:1028F0007B617B683A699A42F3DA3A687B699A426B
:1029000001D93B687B613B6A002B0AD0BB68002B76
:1029100004DB7B6A03F00403002B02D03B6A013B1B
:102920003B627B6A03F00203002B02D03B68002B62
:1029300016D07B6A03F00103002B11D13B6A002BF8
:102940000ED006E03B6A013B3B622021F868FFF7AE
:10295000A3FE3B6A002B03D07A693B6A9A42F1D30B
:10296000BB68002B07DABB685B42BB602D21F868AF
:10297000FFF792FE08E07B6A03F00403002B03D00C
:102980002B21F868FFF788FE7B6A03F00203002B17
:1029900019D07B6A03F00103002B14D13B68002B94
:1029A00011D13B6A002B0ED006E03B6A013B3B6233
:1029B0003021F868FFF770FE3B6A002B03D07A697C
:1029C0003B6A9A42F1D3B9687B6A01933B6A0093F0
:1029D0003B687A68F868FFF7DFFE00BF1837BD462E
:1029E00080BD000080B58EB002AFF860B9607A603B
:1029F000BB68002B00F08E81BB681B7887F82F30F6
:102A0000BB680133BB6097F82F30002B00F0798151
:102A100097F82F30252B40F0688100233B6201237B
:102A2000BB62BB681B7887F82F3097F82F30302BAC
:102A30000DD0302B1BDC2B2B11D02D2B17D13B6A4B
:102A400043F001033B62BB680133BB6012E03B6AA9
:102A500043F002033B62BB680133BB600AE03B6AA0
:102A600043F004033B62BB680133BB6002E0002318
:102A7000BB6200BFBB6A002BD3D10023FB6197F878
:102A80002F302A2B0CD17B681B68191D7A681160C6
:102A90001B68FA691344FB61BB680133BB601AE031
:102AA000BB681B7887F82F3097F82F302F2B12D95F
:102AB00097F82F30392B0ED8BB680133BB60FA6909
:102AC00013469B0013445B001A4697F82F301344BB
:102AD000303BFB61D3E700237B62BB681B7887F840
:102AE0002F3097F82F302E2B1DD1BB680133BB60E0
:102AF000BB681B7887F82F3097F82F302F2B12D90F
:102B000097F82F30392B0ED8BB680133BB607A6A37
:102B100013469B0013445B001A4697F82F3013446A
:102B2000303B7B62E4E7BB681B7887F82F3097F86F
:102B30002F306C2B03D097F82F30682B07D1BB6850
:102B40000133BB60BB681B7887F82F30EFE797F83D
:102B50002F30252B00F0BF80252BC0F2C180782BB1
:102B600000F3BE80582BC0F2BB80583B202B00F2F4
:102B7000B78001A252F823F0632C0000E12C000082
:102B8000E12C0000E12C0000E12C0000E12C000011
:102B9000E12C0000E12C0000E12C0000E12C000001
:102BA000E12C0000FD2B00001B2C0000E12C00009C
:102BB000E12C0000E12C0000E12C00001B2C0000A7
:102BC000E12C0000E12C0000E12C0000E12C0000D1
:102BD000E12C0000E12C0000A32C0000E12C0000FF
:102BE000E12C0000872C0000E12C00003F2C0000AD
:102BF000E12C0000E12C0000632C00007B681B68C6
:102C0000191D7A6811601B68BB62BB6AFB75FB7D8E
:102C10001946F868FFF740FD63E07B681B68191DE3
:102C20007A6811601B68BB623B6A0193FB69009381
:102C30007B6A0A22B96AF868FFF744FE51E07B68B4
:102C40001B68191D7A6811601B68BB62B96A3B6A10
:102C50000193FB6900937B6A0A22F868FFF79CFDE9
:102C60003FE07B681B68191D7A6811601B68BB62B6
:102C7000B96A3B6A0193FB6900937B6A1022F8688A
:102C8000FFF78AFD2DE07B681B68191D7A681160CB
:102C90001B68BB613B6AFA69B969F868FFF720FDF8
:102CA0001FE07B681B68191D7A6811601B68BB6296
:102CB0003021F868FFF7F0FC7821F868FFF7ECFCAA
:102CC000B96A002301930823009308231022F868AF
:102CD000FFF762FD05E02521F868FFF7DDFC00E065
:102CE00000BFBB680133BB6005E097F82F30194681
:102CF000F868FFF7D1FCBB681B78002B7FF47CAE33
:102D000000E000BFFB681B7B002B04D0F868FFF7D6
:102D10008EFC00E000BF3037BD4680BD80B58AB074
:102D200000AF786039607B681B8A043BFB613A68BE
:102D3000FB691344DA1CFB69B2FBF3F3FB7678689A
:102D4000FFF724FC78617B69002B01D1002337E079
:102D50007B6900221A717B6901225A71FB699AB260
:102D60007B69DA807B697B62FB7E013B3B617B6A2E
:102D70007A681A6000233B621DE07868FFF706FC62
:102D8000F860FB68002B0ED07B695B790133DAB207
:102D90007B695A717B6AFA681A60FB687A681A6004
:102DA000FB687B6204E0786900F00EF8002307E01E
:102DB0003B6A01333B623A6A3B699A42DDD37B69E5
:102DC00018462837BD4680BD80B58AB000AF786010
:102DD0007B68FB61FB695B79FB767B683B62FB7E12
:102DE000013B7B6100237B6205E03B6A1B683B6221
:102DF0007B6A01337B627A6A7B699A42F5D33B6ACC
:102E00001B683B617B683B6200237B620BE03B6A93
:102E10001B68FB60396A3869FFF7EDFBFB683B62B2
:102E20007B6A01337B62FB7E7A6A9A42EFD300BFF2
:102E300000BF2837BD4680BD80B584B000AF786044
:102E40007B68FB60FB68043301211846FFF72AFB0F
:102E500000BF1037BD4680BD80B586B000AF78603A
:102E60007B687B617B69043301211846FFF733FBE4
:102E70000346FB6007F10C033B613B691B78002BA9
:102E800002D17868FFF7A0FF00BF1837BD4680BDAC
:102E900080B590B000AFF860B9607A603B60FB68C5
:102EA0007B62FB68FB637B6ADB881A467B6A5B7923
:102EB00002FB03F3043B3B627B6ADB88FB613B68FC
:102EC0001A1DFB69B2FBF3F3BB633B680433FA6979
:102ED000B3FBF2F2F96901FB02F29B1A7B637B6898
:102EE0001A683B6813443A6A9A4203D23A6A3B68CA
:102EF000D31A01E07B681B683B637B683A6B1A60FE
:102F000005E0FB6B1B68FB63BB6B013BBB63BB6BEF
:102F1000002BF6D10023FB62FA697B6BD31ABB62EC
:102F2000BA6A3B6B934228BF1346BB622AE0BA6879
:102F3000FB6A1344BB61FA6B7B6B134404337B6104
:102F400097F84830002B05D0BA6A7969B86903F060
:102F5000ADFC04E0BA6AB969786903F0A7FC002304
:102F60007B63FB6B1B68FB633A6BBB6AD31A3B63E7
:102F7000FA6ABB6A1344FB62FA693B6B934228BF4F
:102F80001346BB623B6B002BD1D100BF00BF403763
:102F9000BD4680BD80B588B002AFF860B9607A6088
:102FA0003B607B687B6107F11402002300933B6860
:102FB000B968F868FFF76CFF00BF1837BD4680BDE1
:102FC00080B588B002AFF860B9607A603B607B681A
:102FD0007B6107F11402012300933B68B968F8682C
:102FE000FFF756FF00BF1837BD4680BD80B582B0E1
:102FF00000AF0346FB80FB88184600F024F8034628
:103000001B68012B0CBF01230023DBB218460837D5
:10301000BD4680BD80B584B000AF0346FB80FB8811
:10302000184600F010F803461A4600231360FB8888
:10303000184600F008F803461B68FB60FB6800BFF9
:103040001037BD4680BD80B483B000AF0346FB801F
:10305000FB8803F1804303F5C04318460C37BD4697
:103060005DF8047B7047000080B483B000AF7860E7
:10307000054BD3F804237B68134018460C37BD4634
:103080005DF8047B704700BF0060004080B483B0EF
:1030900000AF7860074A7B6803F5A27352F82330CB
:1030A0001B0A03F03F0318460C37BD465DF8047B4E
:1030B000704700BF0060004080B483B000AF78600C
:1030C000074A7B6803F5A27352F823301B0C03F008
:1030D0000303DBB218460C37BD465DF8047B70472E
:1030E0000060004080B483B000AF78607B681B68EC
:1030F0001F2B02D84FF0A04306E07B681B6803F04B
:103100001F027B681A60034B18460C37BD465DF8FA
:10311000047B70470003005080B584B000AF786036
:103120000B46FB703B1D1846FFF7DCFFF8607A6822
:10313000FB6802F5E07253F822307A6823F44031DC
:10314000FB6802F5E07243F822107A68FB6802F52A
:10315000E07253F82230FA78120411467A68194363
:10316000FB6802F5E07243F8221000BF1037BD463D
:1031700080BD80B584B000AF78603B1D1846FFF776
:10318000B1FFF8607A68FB6802F5E07253F822300C
:103190001B0C03F00303DBB218461037BD4680BD9D
:1031A00080B489B000AFF860B9607A60184A07F15E
:1031B000140392E8030083E80300FB68FB6119E055
:1031C000FB699B0020333B4453F80C3CD3F820258B
:1031D0007B681A60FB699B0020333B4453F80C3C2E
:1031E0007A681268C3F820257B6804337B60FB692A
:1031F0000133FB61FA68BB681344FA699A42DFD372
:1032000000BF00BF2437BD465DF8047B704700BF98
:10321000A46A000080B584B000AF78603B1D1846FA
:10322000FFF760FFF8607B68012202FA03F31A4699
:10323000FB68C3F8202500BF1037BD4680BD80B4B1
:1032400085B000AF786039603B68FB607B68DB0865
:10325000BB607B6803F007037B6001227B6802FA96
:1032600003F3F968BA680A44127813401846143711
:10327000BD465DF8047B704780B483B000AF7860D2
:10328000054A7B681344303393F9003018460C37F5
:10329000BD465DF8047B7047A80A002080B483B067
:1032A00000AF7860044A7B6852F8233018460C3728
:1032B000BD465DF8047B7047A80A002080B485B045
:1032C00000AF7860074A7B681344603393F900309D
:1032D000FB73FB7B23F0C00318461437BD465DF833
:1032E000047B7047A80A002080B485B000AF7860E6
:1032F000074A7B681344603393F90030FB73FB7B10
:103300009B09DBB218461437BD465DF8047B704755
:10331000A80A002080B584B000AF78607A680221E6
:103320000020FFF73DFF0023FB600BE0FB689B00E4
:103330007A6813441B68002B01D0012306E0FB6868
:103340000133FB60FB68012BF0D9002318461037CE
:10335000BD4680BD80B586B000AF786000237B613C
:1033600050E02F4A7B691344603393F90030B3F186
:10337000FF3F43D07869FFF7A1FF3861796838696A
:10338000FFF75DFF0346002B39D07869FFF7ACFFEC
:103390000346FB733869FFF7ECFE0346BB73BB7B48
:1033A000022B01D1032300E002237B737B7B1946B0
:1033B0003869FFF7B1FE3869FFF72CFF3869FFF76E
:1033C0005BFF03461846FFF769FFB860BB68002B38
:1033D00015D0FB7B032B0BD0BB7B022B02D1FB7BDD
:1033E000012B05D0BB7B032B09D1FB7B022B06D124
:1033F000FA7BBB6811463869984700E000BF7B69DB
:1034000001337B617B69032BABD97868FFF782FFBF
:103410000346002BA2D100BF00BF1837BD4680BDB8
:10342000A80A002080B58AB000AF00233B623B1D94
:1034300000221A605A604FF480737B8301237B6201
:103440000023FB611DE07B8B1846FFF7CFFD034691
:10345000002B0DD0786AFFF707FE0346002B07D03C
:103460007B8B1846FFF7D6FD3A6A7B6A13433B62B3
:103470007B6A5B007B627B8B04337B83FB6901335C
:10348000FB61FB69072BDED94FF4BE70FFF7AEFD81
:103490000346002B0DD04FF4BE70FFF7BBFD3B6A17
:1034A00043F000433B623B1D1A4602210020FFF718
:1034B00077FE3B6ADBB2002B27D001237B6200231F
:1034C000FB611FE07A6A3B6A1340002B14D0F86955
:1034D000FFF7DCFD7861F869FFF7EEFD0346FB744A
:1034E000F869FFF7DBFEF860FB68002B04D0FA7C7C
:1034F000FB681146786998477B6A5B007B62FB69D1
:103500000133FB61FB69072BDCD93B6A002B03DA33
:103510003B1D1846FFF71EFF00BF2837BD4680BD84
:1035200080B500AF024B1B68984700BF80BD00BF4D
:10353000140B002080B483B000AF78607B68064A2B
:10354000934201D1054B00E0002318460C37BD46DD
:103550005DF8047B704700BF00200040140B002082
:1035600080B586B000AF786039607868FFF7E2FF19
:10357000F860FB68002B1BD00023FB750020FEF7D2
:1035800023FFFB681B79002B02D00123FB7505E0AC
:10359000FB683A681A60FB6801221A710020FEF786
:1035A0001DFFFB7D002B03D011233B613B6902E033
:1035B00000233B613B6918461837BD4680BD80B586
:1035C00084B000AF78607868FFF7B4FFF860FB68FC
:1035D000002B05D0FB6800221A60FB6800221A71DC
:1035E00000BF1037BD4680BD80B483B000AF034636
:1035F000FB7197F90730002B0BDBFB7903F01F02FF
:10360000074997F907305B09012000FA02F241F8F7
:10361000232000BF0C37BD465DF8047B704700BF18
:1036200000E100E080B483B000AF03463960FB7175
:1036300097F90730002B0ADB3B68DAB20C4997F99F
:1036400007305201D2B20B4483F800230AE03B68F2
:10365000DAB20849FB7903F00F03043B5201D2B2FE
:103660000B441A7600BF0C37BD465DF8047B7047EB
:1036700000E100E000ED00E080B483B000AF7860CE
:103680007B6803F06043B3F1005F0CBF01230023AC
:10369000DBB218460C37BD465DF8047B704780B43A
:1036A00083B000AF78607B681B0B5BB218460C37A9
:1036B000BD465DF8047B704780B582B000AF03461D
:1036C0000A46FB711346BB71BA7997F90730114668
:1036D0001846FFF7A7FF00BF0837BD4680BD80B57D
:1036E00082B000AF0346FB7197F907301846FFF729
:1036F0007BFF00BF0837BD4680BD80B483B000AFFC
:1037000078600B46FB70FB787A68134401221A60DC
:1037100000BF0C37BD465DF8047B704780B485B0B0
:1037200000AF78600B467B807B887A681344002268
:103730001A607B887A6813441B68FB60FB6800BFD3
:103740001437BD465DF8047B704780B483B000AF8A
:1037500078600B467B807B887A6813441B68002B5B
:1037600014BF01230023DBB218460C37BD465DF8B9
:10377000047B704780B483B000AF786039607B68A9
:103780003A68C3F8042300BF0C37BD465DF8047BDC
:10379000704780B483B000AF786039607B683A6866
:1037A000C3F8082300BF0C37BD465DF8047B7047A3
:1037B00080B483B000AF78607B680722C3F800252F
:1037C00000BF0C37BD465DF8047B704780B485B000
:1037D00000AFF860B9607A603B60FB68BA68C3F814
:1037E0000825FB687A68C3F80C25FB683A68C3F8BB
:1037F000102500BF1437BD465DF8047B704780B4C8
:1038000083B000AF786039603A687B68C3F82425DC
:1038100000BF0C37BD465DF8047B704780B485B0AF
:1038200000AFF860B9607A60BA68FB68C3F84425F5
:10383000FB687A68C3F8482500BF1437BD465DF8B9
:10384000047B704780B485B000AFF860B9607A60DF
:10385000BA68FB68C3F83425FB687A68C3F8382572
:1038600000BF1437BD465DF8047B704780B485B057
:1038700000AF78600B46FB701346BB70BB78002B23
:1038800014BF01230023DBB2FB60FB78032B10D0B5
:10389000032B13DC012B02D0022B05D00EE0FB68BA
:1038A00043F00203FB600AE0FB6843F00403FB60A3
:1038B00005E0FB6843F00603FB6000E000BF7B68A7
:1038C000FA68C3F8542500BF1437BD465DF8047B81
:1038D000704780B483B000AF78600B46FB70FA7815
:1038E0007B68C3F8C02500BF0C37BD465DF8047B7C
:1038F000704780B483B000AF78607B680122C3F862
:10390000502500BF0C37BD465DF8047B704780B47E
:1039100083B000AF78607B680022C3F8502500BFF9
:103920000C37BD465DF8047B704780B483B000AFB0
:1039300078607B680122C3F8402500BF0C37BD4684
:103940005DF8047B704780B483B000AF78607B681B
:103950000022C3F8402500BF0C37BD465DF8047B4C
:103960007047000080B483B000AF78607B681B684C
:103970001F2B02D84FF0A04306E07B681B6803F0C2
:103980001F027B681A60034B18460C37BD465DF872
:10399000047B70470003005080B584B000AF7860AE
:1039A000084611461A460346FB700B46BB70134689
:1039B0007B703B1D1846FFF7D5FFF860FA78BB789F
:1039C0005B001A437B789B001A433B7E1B0242EA52
:1039D00003013B7F1B047A681943FB6802F5E07220
:1039E00043F8221000BF1037BD4680BD80B584B0BB
:1039F00002AF78600023019300230093002301228B
:103A000001217868FFF7C8FF00BF0837BD4680BDB9
:103A100080B584B002AF78600B46FB70FB78002263
:103A2000019200220092002200217868FFF7B4FF83
:103A300000BF0837BD4680BD80B584B000AF786058
:103A40003B1D1846FFF78EFFF8607B68012202FAE3
:103A500003F31946F86800F019F800BF1037BD46A7
:103A600080BD80B584B000AF78603B1D1846FFF77D
:103A700079FFF8607B68012202FA03F31946F868BF
:103A800000F013F800BF1037BD4680BD80B483B08E
:103A900000AF786039607B683A68C3F8082500BFDA
:103AA0000C37BD465DF8047B704780B483B000AF2F
:103AB000786039607B683A68C3F80C2500BF0C3722
:103AC000BD465DF8047B704780B58CB002AFF860EE
:103AD000B9607A603B60FB681B791A461346DB00CD
:103AE00013449B00664A13443B623B6A1B7F002BD6
:103AF00003D008237B617B69BDE0FB681B68FB6129
:103B0000FB681A68FB681B7919465E4B53F8213035
:103B100019461046FFF724FD0346002B03D011235E
:103B20007B617B69A7E03B6A7A681A603B6A3A6806
:103B30005A60BB681B7B012B05D8BB681B781846F5
:103B4000FFF78FFF04E0BB681B781846FFF774FF90
:103B5000BB681B78184600230193002300930023C1
:103B600000220121FFF718FFBB685B78FF2B09D00B
:103B7000BB685B787B62786AFFF773FF786AFFF750
:103B800035FF02E04FF0FF337B62BB689B78FF2B71
:103B900007D0BB689B78BB610121B869FFF738FF8C
:103BA00002E04FF0FF33BB61BB689A783B6A83F851
:103BB0002020BB68DA783B6ADA77BB68DB78FF2BBA
:103BC00017D0BB681B79002B05D0BB68DB78184683
:103BD000FFF747FF04E0BB68DB781846FFF72CFFD0
:103BE000BB68DB781846FFF701FFBB681A793B6AB0
:103BF0009A77BB681B781946BB697A6AF869FFF740
:103C0000E5FDBB689B681946F869FFF7F8FDBB68DE
:103C1000197BBB685B7B1A46F869FFF727FEBB6818
:103C20009B791946F869FFF754FEF869FFF7C0FD64
:103C30003B6A1B68002B15D0FB681B681846FFF712
:103C40002EFD03461A46BB685B7919461046FFF7FE
:103C500033FDFB681B681846FFF721FD0346184635
:103C6000FFF73DFD3B6A00225A773B6A01221A7733
:103C700000237B617B6918462837BD4680BD00BFA5
:103C80001C0B0020C06A000080B582B000AF7860D5
:103C90007B68DB7FFF2B0ED07B689B7F002B05D0E2
:103CA0007B68DB7F1846FFF7DCFE04E07B68DB7F88
:103CB0001846FFF7C1FE7B6800225A777B68002216
:103CC0001A727B681B687A6802F108007A68526889
:103CD0001146984700BF0837BD4680BD80B582B009
:103CE00000AF78600B46FB70FB7883F00103DBB21A
:103CF000002B04D040217868FFF74BFD03E0402102
:103D00007868FFF737FD00BF0837BD4680BD80B536
:103D100082B000AF786039603B6803F00103002B8C
:103D200003D07868FFF7E5FD02E07868FFF7EFFD64
:103D30003B6803F00203002B03D07868FFF7F5FD22
:103D400002E07868FFF7FFFD00BF0837BD4680BD81
:103D500080B586B000AFF860B9607A603B607B6880
:103D60001B68002B0AD07B681B681846FFF784FC91
:103D7000034683F00103DBB2002B0ED17B689B6806
:103D8000002B11D07B689B681846FFF775FC034633
:103D900083F00103DBB2002B06D0BB6800225A7708
:103DA00010237B617B6954E07B6819687B685B68E2
:103DB0001A46F868FFF732FD7B6899687B68DB6814
:103DC0001A46F868FFF73EFD4FF48C71F868FFF76C
:103DD000A5FC3968F868FFF79AFF3B6803F0080311
:103DE000002B03D11021F868FFF787FCBB681B6824
:103DF000002B1FD100BF4FF48C71F868FFF7A5FCB2
:103E0000034683F00103DBB2002BF4D1BB68DB7FF8
:103E1000FF2B1BD0BB689B7F002B05D0BB68DB7FD3
:103E20001846FFF71EFE11E0BB68DB7F1846FFF760
:103E300003FE0BE03B6803F00403002B0CBF0123DF
:103E40000023DBB21946F868FFF748FF00237B61C7
:103E50007B6918461837BD4680BD000090B587B015
:103E600000AFF860B9607A60FB681B791A461346A8
:103E7000DB0013449B00204A13443B6100237B6119
:103E80003B695B7FDBB2002B03D011237B617B6935
:103E90002EE03B691B68002B07D07B6803F01403FE
:103EA000002B02D13B6901225A773B69BA6803F1C2
:103EB0000C0413460FCB84E80F003B69DB7FFF2B1C
:103EC0000ED03B699B7F002B05D03B69DB7F1846FA
:103ED000FFF7B2FD04E03B69DB7F1846FFF7C1FD49
:103EE000FB6818687B68BA683969FFF731FF0346D9
:103EF00018461C37BD4690BD1C0B002080B582B013
:103F000000AF786039604FF48C717868FFF71DFC62
:103F10000346002B07D04FF48C717868FFF7FEFB47
:103F20003868FFF7B1FE00BF0837BD4680BD00000E
:103F300080B500AF03494FF04020FFF7DFFF00BF1F
:103F400080BD00BF1C0B002080B483B000AF0346CF
:103F5000FB7197F90730002B0BDBFB7903F01F0295
:103F6000074997F907305B09012000FA02F241F88E
:103F7000232000BF0C37BD465DF8047B704700BFAF
:103F800000E100E080B483B000AF0346FB7197F915
:103F90000730002B12DBFB7903F01F020A4997F967
:103FA00007305B09012000FA02F2203341F8232098
:103FB000BFF34F8F00BFBFF36F8F00BF00BF0C3741
:103FC000BD465DF8047B704700E100E080B483B03B
:103FD00000AF03463960FB7197F90730002B0ADB0D
:103FE0003B68DAB20C4997F907305201D2B20B4460
:103FF00083F800230AE03B68DAB20849FB7903F052
:104000000F03043B5201D2B20B441A7600BF0C37A7
:10401000BD465DF8047B704700E100E000ED00E084
:1040200080B483B000AF78607B681B0B5BB218462E
:104030000C37BD465DF8047B704780B582B000AF99
:1040400003460A46FB711346BB71BA7997F90730EC
:1040500011461846FFF7BAFF00BF0837BD4680BDBE
:1040600080B582B000AF0346FB7197F90730184660
:10407000FFF76AFF00BF0837BD4680BD80B582B03C
:1040800000AF0346FB7197F907301846FFF77AFF38
:1040900000BF0837BD4680BD80B485B000AF7860F2
:1040A0000B467B807B887A68134400221A607B88E9
:1040B0007A6813441B68FB60FB6800BF1437BD4679
:1040C0005DF8047B704780B483B000AF78600B4626
:1040D0007B807B887A6813441B68002B14BF012304
:1040E0000023DBB218460C37BD465DF8047B7047F1
:1040F00080B483B000AF786039607B683A68C3F8F9
:10410000042300BF0C37BD465DF8047B704780B4C4
:1041100083B000AF786039607B68D3F804233B68D4
:104120001340002B14BF01230023DBB218460C37C9
:10413000BD465DF8047B704780B483B000AF786003
:1041400039607B683A68C3F8082300BF0C37BD4666
:104150005DF8047B704780B485B000AF78607B6801
:10416000D3F88034FB607B68FA68C3F88024FB686E
:1041700018461437BD465DF8047B704780B483B0A1
:1041800000AF78607B680422C3F8002500BF0C37BD
:10419000BD465DF8047B704780B483B000AF7860A3
:1041A0007B680022C3F8002500BF0C37BD465DF8D0
:1041B000047B704780B485B000AFF860B9607A6066
:1041C000FB687A68C3F81425FB68BA68C3F80C2545
:1041D00000BF1437BD465DF8047B704780B582B0E0
:1041E00000AF78604FF0FF324FF0FF317868FFF793
:1041F000E1FF00BF0837BD4680BD80B483B000AF8B
:1042000078607B68D3F80C3518460C37BD465DF8EE
:10421000047B704780B483B000AF78607B68D3F8CC
:10422000143518460C37BD465DF8047B704780B4E2
:1042300083B000AF78607B68D3F8083518460C3738
:10424000BD465DF8047B704780B483B000AF7860F2
:104250007B68D3F8103518460C37BD465DF8047BF3
:10426000704780B485B000AFF860B9607A60FB68D1
:10427000BA68C3F80825FB687A68C3F8102500BF40
:104280001437BD465DF8047B704780B582B000AF3F
:1042900078604FF0FF324FF0FF317868FFF7E1FFB1
:1042A00000BF0837BD4680BD80B483B000AF7860E2
:1042B0007B68D3F81835DBB218460C37BD465DF87D
:1042C000047B704780B483B000AF78600B46FB700E
:1042D000FA787B68C3F81C2500BF0C37BD465DF833
:1042E000047B704780B483B000AF78600B46FB70EE
:1042F000FB787A68134401221A6000BF0C37BD4670
:104300005DF8047B704780B483B000AF78600B46E3
:10431000FB701346BB70FA78BB781343DBB21A46C6
:104320007B68C3F86C2500BF0C37BD465DF8047B85
:10433000704780B483B000AF786039607B683A68BA
:10434000C3F8242500BF0C37BD465DF8047B7047D9
:1043500080B483B000AF78607B681B681F2B02D8E5
:104360004FF0A04306E07B681B6803F01F027B68E8
:104370001A60034B18460C37BD465DF8047B704746
:104380000003005080B584B000AF78600846114645
:104390001A460346FB700B46BB7013467B703B1DF1
:1043A0001846FFF7D5FFF860FA78BB785B001A4330
:1043B0007B789B001A433B7E1B0242EA03013B7F52
:1043C0001B047A681943FB6802F5E07243F8221077
:1043D00000BF1037BD4680BD80B584B002AF7860A5
:1043E0000023019300230093002301220121786818
:1043F000FFF7C8FF00BF0837BD4680BD80B584B059
:1044000002AF78600B46FB70FB780022019200221D
:104410000092002200217868FFF7B4FF00BF083740
:10442000BD4680BD80B584B002AF786000230193A3
:10443000002300930023012200217868FFF7A2FFE8
:1044400000BF0837BD4680BD80B584B000AF78603E
:104450003B1D1846FFF77CFFF8607B68012202FADB
:1044600003F31946F86800F004F800BF1037BD46A2
:1044700080BD80B483B000AF786039607B683A68F3
:10448000C3F8082500BF0C37BD465DF8047B7047B4
:1044900080B582B000AF786039603B681B68B3F1CB
:1044A000FF3F09D03B681B681846FFF7CDFF3B680C
:1044B0001B681846FFF790FF3B685B68B3F1FF3F4E
:1044C00005D03B685B6800211846FFF797FF7B68C3
:1044D0001A683B689B6919461046FFF72AFF7B68FC
:1044E00018683B68597D3B681B7D1A46FFF70BFF38
:1044F0007B6818683B6819683B685B681A46FFF779
:1045000059FE3B681B7D012B22D13B689B68B3F1B0
:10451000FF3F05D03B689B6800211846FFF76EFF00
:104520003B68DB68B3F1FF3F09D03B68DB681846A6
:10453000FFF78AFF3B68DB681846FFF74DFF7B6893
:1045400018683B68D9683B689B681A46FFF789FE84
:1045500000BF0837BD4680BD80B582B000AF78602F
:104560000B46FB707B681B684FF48E711846FFF793
:1045700093FD7B681B684FF4A2711846FFF78CFD12
:104580007B681B680E491846FFF7B2FD7B681B6805
:104590001846FFF745FD03461A46FB7819461046B4
:1045A000FFF74BFD7B681B681846FFF739FD034694
:1045B0001846FFF755FD00BF0837BD4680BD00BF58
:1045C0008000020080B582B000AF78607B681B6815
:1045D00008491846FFF7B0FD7B681B681846FFF7CF
:1045E0001FFD03461846FFF749FD00BF0837BD46CB
:1045F00080BD00BF8402020080B586B000AF786045
:104600007B681B681846FFF7F8FD78617B681B68BC
:104610001846FFF7FFFD38617B681B681846FFF7F7
:1046200006FEF8607B681B681846FFF70DFEB86051
:104630007B681B681846FFF7D1FD7B681B6818462E
:10464000FFF723FE7B69B3F1FF3F02D07869FFF7E4
:10465000E9FE3B69B3F1FF3F02D03869FFF7E2FEA4
:10466000BB68B3F1FF3F02D0B868FFF7DBFEFB6821
:10467000B3F1FF3F02D0F868FFF7D4FE00BF183750
:10468000BD4680BD80B586B000AFF860B9607A6085
:10469000FB681B791A462C2302FB03F3284A1344B8
:1046A0003B6100237B613B6993F82A30002B03D0E8
:1046B00008237B617B693EE0FB681A68FB681B7915
:1046C0001946204B53F8213019461046FEF748FF93
:1046D0000346002B03D011237B617B692BE0B96873
:1046E000F868FFF7D5FE3B697A685A60BB681A69BB
:1046F0003B691A603B695B68002B05D0BB681B7F78
:104700001946F868FFF728FFFB681B681846FFF793
:1047100035FD3B6900229A613B690022DA613B6901
:10472000002283F829203B6900225A613B6901225B
:1047300083F82A207B6918461837BD4680BD00BF24
:10474000400B0020CC6A000080B584B000AF7860D8
:104750007B681B791A462C2302FB03F3104A13448F
:10476000FB607B681B681846FFF716FDFB685B68FB
:10477000002B02D07868FFF725FF7868FFF73CFF31
:104780007B681B681846FEF71AFFFB68002283F857
:104790002A20FB6800225A6000BF1037BD4680BD4A
:1047A000400B002080B584B000AF786039604FF4D2
:1047B0008E717868FFF770FC3B689A683B681B6AEB
:1047C00013441B78FB733B681B6A5A1C3B681A62D4
:1047D000FB7B19467868FFF775FD00BF1037BD46B3
:1047E00080BD80B584B000AF786039603B685B699C
:1047F000FB6016E03B6893F82830DBB2002B01D059
:10480000002314E04FF48E717868FFF75CFC0346D8
:1048100083F00103DBB2002BECD139687868FFF735
:10482000C1FF3B681B6AFA689A42EBD8012318461D
:104830001037BD4680BD000080B586B000AFF8607F
:10484000B9607A60FB681B791A462C2302FB03F3DC
:104850002E4A13443B61F86800F05AF80346002BD7
:1048600003D011237B617B694CE03B697A685A6114
:104870003B69BA689A603B6900221A623B69002270
:1048800083F8282000237B61FB681B684FF48E713E
:104890001846FFF701FCFB681B6808211846FFF764
:1048A00021FDFB681B6839691846FFF77BFF3B69F0
:1048B0005B68002B25D1FB681B6839691846FFF738
:1048C00090FF034683F00103DBB2002B02D00F23DD
:1048D0007B6113E000BFFB681B684FF48E711846C4
:1048E000FFF7F1FB034683F00103DBB2002BF2D1AB
:1048F000FB681B680C211846FFF7F4FC3B6900229B
:104900005A617B6918461837BD4680BD400B0020B0
:1049100080B483B000AF78607B681B791946094A80
:104920002C2301FB03F3134414331B68002B14BF27
:1049300001230023DBB218460C37BD465DF8047B2B
:10494000704700BF400B002090B583B000AF786087
:1049500039603B689B69002B08D14FF484717868FB
:10496000FFF79AFB7868FFF79FFC13E04FF4847120
:104970007868FFF791FB3B68DA683B685B6AD4189C
:104980007868FFF791FC034623703B685B6A5A1C0A
:104990003B685A620C37BD4690BD80B588B000AF09
:1049A000F860B9607A6001233B74BB68BB617B68C7
:1049B0007B61FB685B68FA68116807F110021046BA
:1049C000984700BF2037BD4680BD80B586B000AF98
:1049D0007860396000233B723B683B617B689B6871
:1049E000FB607B6800225A617B685B687A681168AB
:1049F00007F108021046984700BF1837BD4680BD32
:104A000080B58AB000AF786039604FF40071786883
:104A1000FFF77DFB0346002B39D04FF49271786885
:104A2000FFF751FB0346002B31D04FF492717868A9
:104A3000FFF732FB4FF401717868FFF77DFB3B68AD
:104A400093F8293083F00103DBB2002B03D004215B
:104A50007868FFF747FC02233B737868FFF77BFB1E
:104A60000346BB613B689B697B613B68DB683B61DC
:104A70003B6800229A613B680022DA613B685B6810
:104A80003A68116807F10C021046984752E0042179
:104A90007868FFF73CFB0346002B4BD04FF4847142
:104AA0007868FFF710FB0346002B43D0396878681D
:104AB000FFF74AFF3B689A693B685B6A9A4239D1C3
:104AC0003B68DB69002B19D03B68DB687B623B6885
:104AD0005B6A3B623B68DA693B689A613B681A69CA
:104AE0003B68DA603B680022DA613B6800225A6268
:104AF0007A6A396A3868FFF750FF1BE03B6893F821
:104B0000293083F00103DBB2002B03D00421786845
:104B1000FFF7E8FB4FF401717868FFF70DFB3B6886
:104B200000229A613B68596A3B68DB681A4638681C
:104B3000FFF733FF4FF48E717868FFF7C4FA03462E
:104B4000002B24D03B685B69FB613B681B6AFA69F8
:104B50009A420DD93B6893F82830DBB283F0010309
:104B6000DBB2002B04D039687868FFF71BFE0EE03B
:104B70004FF48E717868FFF78FFA3B685B69002B02
:104B800005D03B685B6919463868FFF71EFF4FF494
:104B9000A2717868FFF797FA0346002B1CD04FF4F8
:104BA000A2717868FFF778FA3B6893F82930002BF8
:104BB00003D000217868FFF795FB3B689B69002BC9
:104BC0000AD03B6800229A613B68596A3B68DB68FF
:104BD0001A463868FFF7E1FE00BF2837BD4680BDA2
:104BE00080B500AF02490348FFF70AFF00BF80BD50
:104BF000400B00200020004080B483B000AF03468B
:104C0000FB7197F90730002B0BDBFB7903F01F02D8
:104C1000074997F907305B09012000FA02F241F8D1
:104C2000232000BF0C37BD465DF8047B704700BFF2
:104C300000E100E080B483B000AF0346FB7197F958
:104C40000730002B12DBFB7903F01F020A4997F9AA
:104C500007305B09012000FA02F2203341F82320DB
:104C6000BFF34F8F00BFBFF36F8F00BF00BF0C3784
:104C7000BD465DF8047B704700E100E080B483B07E
:104C800000AF03463960FB7197F90730002B0ADB50
:104C90003B68DAB20C4997F907305201D2B20B44A3
:104CA00083F800230AE03B68DAB20849FB7903F095
:104CB0000F03043B5201D2B20B441A7600BF0C37EB
:104CC000BD465DF8047B704700E100E000ED00E0C8
:104CD00080B483B000AF78607B6803F06043B3F1C9
:104CE000005F0CBF01230023DBB218460C37BD4622
:104CF0005DF8047B704780B483B000AF78607B6858
:104D00001B0B5BB218460C37BD465DF8047B704741
:104D100080B582B000AF03460A46FB711346BB71F3
:104D2000BA7997F9073011461846FFF7A7FF00BF79
:104D30000837BD4680BD80B582B000AF0346FB7129
:104D400097F907301846FFF757FF00BF0837BD46F1
:104D500080BD80B582B000AF0346FB7197F9073084
:104D60001846FFF767FF00BF0837BD4680BD80B417
:104D700085B000AF78600B467B807B887A681344EF
:104D800000221A607B887A6813441B68FB60FB680A
:104D900000BF1437BD465DF8047B704780B483B014
:104DA00000AF78600B467B807B887A6813441B6871
:104DB000002B14BF01230023DBB218460C37BD467D
:104DC0005DF8047B704780B483B000AF78603960D1
:104DD0007B68D3F800223B68DB431A407B68C3F84A
:104DE000002200BF0C37BD465DF8047B704780B4DD
:104DF00083B000AF786039607B683A68C3F80423F9
:104E000000BF0C37BD465DF8047B704780B483B0AB
:104E100000AF786039607B683A68C3F8082300BF48
:104E20000C37BD465DF8047B704780B485B000AF99
:104E300078607B68D3F88034FB607B68FA68C3F8DD
:104E40008024FB6818461437BD465DF8047B704724
:104E500080B483B000AF78607B680822C3F8002577
:104E600000BF0C37BD465DF8047B704780B483B04B
:104E700000AF78607B680022C3F8002500BF0C37C4
:104E8000BD465DF8047B704780B485B000AFF86024
:104E9000B9607A60FB68BA68C3F80C25FB687A6869
:104EA000C3F8142500BF1437BD465DF8047B704776
:104EB00080B582B000AF78604FF0FF324FF0FF3125
:104EC0007868FFF7E1FF00BF0837BD4680BD80B4BA
:104ED00083B000AF78607B68D3F80C3518460C3788
:104EE000BD465DF8047B704780B483B000AF786046
:104EF0007B68D3F8143518460C37BD465DF8047B43
:104F0000704780B483B000AF78607B68D3F8083511
:104F100018460C37BD465DF8047B704780B483B0FB
:104F200000AF78607B68D3F8103518460C37BD4663
:104F30005DF8047B704780B485B000AFF860B9605D
:104F40007A60FB68BA68C3F80825FB687A68C3F81A
:104F5000102500BF1437BD465DF8047B704780B54F
:104F600082B000AF78604FF0FF324FF0FF317868C9
:104F7000FFF7E1FF00BF0837BD4680BD80B483B0B6
:104F800000AF78600B46FB70FB787A68134401220F
:104F90001A6000BF0C37BD465DF8047B704780B4D3
:104FA00083B000AF78600B46FB701346BB70FA7895
:104FB000BB781343DBB21A467B68C3F86C2500BF8D
:104FC0000C37BD465DF8047B704780B483B000AFFA
:104FD000786039607B683A68C3F8242500BF0C37D5
:104FE000BD465DF8047B704780B485B000AFF860C3
:104FF000B9607A60BA68FB68C3F84425FB687A68D0
:10500000C3F8482500BF1437BD465DF8047B7047E0
:1050100080B483B000AF78607B68D3F84C35184615
:105020000C37BD465DF8047B704780B483B000AF99
:1050300078607B68D3F83C3518460C37BD465DF880
:10504000047B704780B483B000AF78607B681B68D6
:105050001F2B02D84FF0A04306E07B681B6803F0CB
:105060001F027B681A60034B18460C37BD465DF87B
:10507000047B70470003005080B584B000AF7860B7
:10508000084611461A460346FB700B46BB70134692
:105090007B703B1D1846FFF7D5FFF860FA78BB78A8
:1050A0005B001A437B789B001A433B7E1B0242EA5B
:1050B00003013B7F1B047A681943FB6802F5E07229
:1050C00043F8221000BF1037BD4680BD80B584B0C4
:1050D00002AF786000230193002300930023012294
:1050E00001217868FFF7C8FF00BF0837BD4680BDC3
:1050F00080B584B002AF78600B46FB70FB7800226D
:10510000019200220092002200217868FFF7B4FF8C
:1051100000BF0837BD4680BD80B584B002AF78605F
:1051200000230193002300930023012200217868CB
:10513000FFF7A2FF00BF0837BD4680BD80B584B031
:1051400000AF78603B1D1846FFF77CFFF8607B6876
:10515000012202FA03F31946F86800F004F800BFD0
:105160001037BD4680BD80B483B000AF7860396031
:105170007B683A68C3F8082500BF0C37BD465DF868
:10518000047B704780B582B000AF786039603B68BF
:105190001B68B3F1FF3F09D03B681B681846FFF757
:1051A000CDFF3B681B681846FFF790FF3B685B68C4
:1051B000B3F1FF3F05D03B685B6800211846FFF75D
:1051C00097FF7B681A683B689B6919461046FFF792
:1051D000FCFE7B6818683B68597D3B681B7D1A465E
:1051E000FFF7DDFE7B6818683B6819683B685B6801
:1051F0001A46FFF749FE3B681B7D012B22D13B6815
:105200009B68B3F1FF3F05D03B689B6800211846BF
:10521000FFF76EFF3B68DB68B3F1FF3F09D03B68E7
:10522000DB681846FFF78AFF3B68DB681846FFF724
:105230004DFF7B6818683B68D9683B689B681A46D5
:10524000FFF779FE00BF0837BD4680BD80B582B04C
:1052500000AF78600B46FB707B681B684FF4887169
:105260001846FFF784FD7B681B684FF49071184661
:10527000FFF77DFD7B681B684FF492711846FFF7BE
:1052800076FD7B681B684FF4A2711846FFF76FFD2F
:105290007B681B684FF4AC711846FFF768FD7B68AC
:1052A0001B680E491846FFF7A2FD7B681B6818466D
:1052B000FFF721FD03461A46FB7819461046FFF713
:1052C00027FD7B681B681846FFF715FD0346184647
:1052D000FFF731FD00BF0837BD4680BD1003420017
:1052E00080B582B000AF78607B681B6808491846BB
:1052F000FFF78CFD7B681B681846FFF7FCFC034634
:105300001846FFF726FD00BF0837BD4680BD00BF29
:105310001003420080B586B000AF78607B681B68E0
:105320001846FFF7D4FD78617B681B681846FFF7C5
:10533000DBFD38617B681B681846FFF7E2FDF8600B
:105340007B681B681846FFF7E9FDB8607B681B683F
:105350001846FFF7ADFD7B681B681846FFF7FFFD99
:105360007B69B3F1FF3F02D07869FFF7D5FE3B6957
:10537000B3F1FF3F02D03869FFF7CEFEBB68B3F14F
:10538000FF3F02D0B868FFF7C7FEFB68B3F1FF3FED
:1053900002D0F868FFF7C0FE00BF1837BD4680BDD9
:1053A00080B586B000AFF860B9607A60FB681B79A1
:1053B0001A461346DB0013449B00264A13443B6104
:1053C00000237B613B6993F82030002B03D0082336
:1053D0007B617B693AE0FB681A68FB681B791946B8
:1053E0001D4B53F8213019461046FEF7B9F8034615
:1053F000002B03D011237B617B6927E0B968F86833
:10540000FFF7C0FE3B697A685A60BB681A693B695E
:105410001A603B695B68002B05D0BB681B7F19468F
:10542000F868FFF713FFFB681B681846FFF710FDCD
:105430003B6900229A613B690022DA613B690022E4
:105440005A613B69012283F820207B69184618378E
:10545000BD4680BD6C0B0020D86A000080B584B0CA
:1054600000AF78607B681B791A461346DB00134453
:105470009B002B4A1344FB607B681B68BB60FB6886
:105480005B68002B02D07868FFF72AFF2021B868FC
:10549000FFF799FCFB689B69002B08D04FF4A271C1
:1054A000B868FFF764FC0421B868FFF767FD4FF4A4
:1054B000AC71B868FFF75BFC0C21B868FFF75EFDC4
:1054C00000BF4FF4AC71B868FFF768FC034683F087
:1054D0000103DBB2002BF4D1FB689B69002B0AD0DF
:1054E0004FF4A271B868FFF759FC034683F001033B
:1054F000DBB2002BE5D1B868FFF7B8FC7868FFF79E
:1055000009FFB868FEF75BF8FB68002283F82020EB
:10551000FB6800225A6000BF1037BD4680BD00BF47
:105520006C0B002080B588B000AFF860B9607A607D
:10553000FB681B791A461346DB0013449B00414A63
:1055400013447B61B868FFF7C3FB034683F0010394
:10555000DBB2002B03D01023FB61FB696EE0F8681F
:1055600000F072F80346002B03D01123FB61FB69A6
:1055700064E07B697A685A617B69BA689A60002343
:10558000FB61FB681B684FF490711846FFF7EFFB57
:10559000FB681B684FF4AC711846FFF7E8FBFB682B
:1055A00018687B6999687B695B691A46FFF71CFD7F
:1055B000FB681B6808211846FFF7E0FC7B695B6805
:1055C000002B3AD1FB681B684FF490711846FFF727
:1055D000E5FB0346BB76FB681B684FF4AC711846CD
:1055E000FFF7DCFB0346FB76BB7E83F00103DBB2F7
:1055F000002B05D0FB7E83F00103DBB2002BE1D151
:10560000FB7E002B02D00F23FB6113E0FB681B68BD
:105610000C211846FFF7B2FC00BFFB681B684FF473
:10562000AC711846FFF7BAFB034683F00103DBB207
:10563000002BF2D17B6900225A61FB6918462037A2
:10564000BD4680BD6C0B002080B483B000AF786095
:105650007B681B791946094A0B46DB000B449B000B
:10566000134414331B68002B14BF01230023DBB247
:1056700018460C37BD465DF8047B70476C0B002064
:1056800080B588B000AFF860B9607A6001233B74E0
:10569000BB68BB617B687B61FB685B68FA6811680B
:1056A00007F110021046984700BF2037BD4680BD65
:1056B00080B586B000AF7860396000233B723B68EC
:1056C0003B617B689B68FB607B6800225A617B685A
:1056D0005B687A68116807F108021046984700BFB6
:1056E0001837BD4680BD80B588B000AF786039609E
:1056F0004FF492717868FFF751FB0346002B22D0DC
:105700004FF492717868FFF732FB02233B7278689E
:10571000FFF78BFB03467B617868FFF786FC034647
:105720003B613B68DB68FB603B6800229A613B6839
:105730000022DA613B685B683A68116807F1080289
:10574000104698473BE04FF488717868FFF726FBD6
:105750000346002B33D04FF488717868FFF707FBBE
:105760007868FFF762FCF8613B689B69FA699A42C6
:1057700025D13B68DB69002B17D03B68DB68BB6138
:1057800020217868FFF71FFB3B68DA693B689A6164
:105790003B681A693B68DA603B680022DA61BA69E3
:1057A000F9693868FFF76CFF09E03B6800229A61ED
:1057B0003B68DB681A46F9693868FFF761FF4FF408
:1057C000A2717868FFF7EAFA0346002B18D04FF46D
:1057D000A2717868FFF7CBFA3B689B69002B0FD06A
:1057E0003B6800229A613B680022DA617868FFF723
:1057F0001CFC01463B68DB681A463868FFF740FF2F
:105800004FF490717868FFF7C9FA0346002B14D063
:105810004FF490717868FFF7AAFA0C217868FFF7C7
:10582000ADFB3B685B69002B07D07868FFF7F0FBA6
:10583000034619463868FFF73BFF4FF4AC717868B0
:10584000FFF7ACFA0346002B10D04FF4AC71786828
:10585000FFF78DFA3B685B69002B07D07868FFF78C
:10586000D7FB034619463868FFF722FF00BF2037F1
:10587000BD4680BD80B500AF02490348FFF733FF46
:1058800000BF80BD6C0B00200020004080B400AF42
:10589000BFF34F8F00BF064BDB6803F4E06204499F
:1058A000044B1343CB60BFF34F8F00BF00BFFDE736
:1058B00000ED00E00400FA0580B483B000AF144BA3
:1058C0001B687B60134B1B683B607B68082B17D100
:1058D0003B68032B12D801A252F823F0ED580000C8
:1058E000F1580000F5580000F9580000012308E0C5
:1058F000012306E0012304E0012302E0012300E08C
:10590000002318460C37BD465DF8047B704700BF86
:10591000300100103401001080B483B000AF144B8C
:105920001B687B60134B1B683B607B68082B17D19F
:105930003B68032B12D801A252F823F04D59000006
:10594000515900005559000059590000012308E041
:10595000012306E0012304E0012302E0012300E02B
:10596000002318460C37BD465DF8047B704700BF26
:10597000300100103401001080B483B000AF144B2C
:105980001B687B60134B1B683B607B68082B17D13F
:105990003B68032B12D801A252F823F0AD59000046
:1059A000B1590000B5590000B9590000012308E0C1
:1059B000002306E0002304E0002302E0002300E0CF
:1059C000002318460C37BD465DF8047B704700BFC6
:1059D000300100103401001080B483B000AF144BCC
:1059E0001B687B60134B1B683B607B68082B17D1DF
:1059F0003B68032B12D801A252F823F00D5A000085
:105A0000115A0000155A0000195A0000012308E03D
:105A1000002306E0002304E0002302E0002300E06E
:105A2000002318460C37BD465DF8047B704700BF65
:105A3000300100103401001080B483B000AF144B6B
:105A40001B687B60134B1B683B607B68082B17D17E
:105A50003B68032B12D801A252F823F06D5A0000C4
:105A6000715A0000755A0000795A0000012308E0BD
:105A7000002306E0002304E0002302E0002300E00E
:105A8000002318460C37BD465DF8047B704700BF05
:105A9000300100103401001080B483B000AF144B0B
:105AA0001B687B60134B1B683B607B68082B17D11E
:105AB0003B68032B12D801A252F823F0CD5A000004
:105AC000D15A0000D55A0000D95A0000012308E03D
:105AD000002306E0002304E0002302E0002300E0AE
