:020000022000DC
:1060000000000420BD620200E5620200E7620200B7
:10601000E9620200EB620200ED6202000000000093
:10602000000000000000000000000000EF6202001D
:10603000F162020000000000F3620200F56202005B
:10604000ED8B0200F7620200AD950200F7620200DC
:10605000F7620200F76202009D900200F762020000
:10606000F7620200F7620200F7620200F7620200C4
:10607000F7620200F7620200F7620200F7620200B4
:10608000F762020009750200F7620200F76202007F
:10609000A9750200F762020009B80200F762020067
:1060A000F7620200F7620200F7620200F762020084
:1060B000F7620200F762020000000000000000002A
:1060C000F7620200F7620200F7620200F762020064
:1060D000F7620200F7620200F7620200F762020054
:1060E000F7620200F7620200F7620200000000009F
:1060F00000000000F762020000000000F7620200EA
:10610000000000000000000000000000000000008F
:10611000000000000000000000000000000000007F
:10612000000000000000000000000000000000006F
:10613000000000000000000000000000000000005F
:10614000000000000000000000000000000000004F
:10615000000000000000000000000000000000003F
:10616000000000000000000000000000000000002F
:10617000000000000000000000000000000000001F
:10618000000000000000000000000000000000000F
:1061900000000000000000000000000000000000FF
:1061A00000000000000000000000000000000000EF
:1061B00000000000000000000000000000000000DF
:1061C00000000000000000000000000000000000CF
:1061D00000000000000000000000000000000000BF
:1061E00000000000000000000000000000000000AF
:1061F000000000000000000000000000000000009F
:1062000010B5054C237833B9044B13B10448AFF3F0
:1062100000800123237010BD8823002000000000AF
:106220006CC8020008B5034B1BB103490348AFF328
:10623000008008BD000000008C2300206CC8020014
:10624000A3F5803A704700BF174B002B08BF134BD4
:106250009D46FFF7F5FF00218B460F461348144A71
:10626000121A05F09BFC0E4B002B00D098470D4BEB
:10627000002B00D098470020002104000D000D489D
:10628000002802D00C48AFF3008005F055FC200038
:10629000290004F085F805F03BFC00BF0000080071
:1062A00000000000000000000000042088230020FF
:1062B0005C2D002000000000000000000649074A95
:1062C000074B9B1A03DD043BC858D050FBDC02F09F
:1062D000EFF9FFF7B9FF000054C90200E0220020E7
:1062E00088230020FEE7FEE7FEE7FEE7FEE7FEE785
:1062F000FEE7FEE7FEE7FEE7F0B595B008460024AE
:106300000E4617461D4602F0AFF81A9A0D92234624
:10631000082205A93046CDE9095408978DF82C408C
:106320000C9402F005F9DDE906219DF814308DF892
:106330001140CDE9021203F00302012A28D0022AFB
:1063400004D0304602F094F815B0F0BDBDF81650F8
:10635000C3F3C203C5F389158DF810300827082D43
:106360002C4628BF08243B4622460EA9304602F0A0
:10637000DFF82D1B08AB02AA21460EA8274400F027
:10638000DDFD002DEBD1304602F072F815B0F0BD06
:10639000BDF814100598C1F38312C3F3C203C0F310
:1063A0009525C1F383148DF810300EA93046920064
:1063B000082302F0BDF808AB0093224602AB0EA9F9
:1063C000284600F045FD304602F052F815B0F0BD09
:1063D000014B01221A707047E8230020704700BF6C
:1063E00000B583B0044B0093044A4023FFF784FFB9
:1063F00003B05DF804FB00BF01640200A823002085
:1064000038B50F480F4D03780F4CEB5C4FF0000C84
:1064100084F800C0D2B253B1043003F053FE58B92F
:106420000A4B1B7813B12378002BFCD038BD0C30FD
:1064300003F05AFB0028F3D001F020F8F0E700BF8A
:10644000E0220020302B0020E8230020A42300209D
:1064500010B51548154A0378D35C88B0C3B1043031
:1064600003F078FD124C0FCCEC46ACE80F0094E83A
:106470000F008CE80F0014230B480093002269469C
:1064800002F044FB40B90B4B00221A7008B010BD5B
:106490000C3003F0A3FAE5E700F0F0FF054B002213
:1064A0001A7008B010BD00BFE0220020302B002081
:1064B000D8BB0200A423002010B50F4C0FCC88B02D
:1064C000EC46ACE80F0094E80F008CE80F001423B2
:1064D0000A4A0B480093694602F018FB20B9094BA1
:1064E00001221A7008B010BD00F0C8FF054B012250
:1064F0001A7008B010BD00BFD8BB0200D163020003
:10650000E0220020A423002008B5FFF7D5FF0448AF
:10651000042100F019FC034B01225A7108BD00BF91
:106520003CC90200F4220020064B074810B50022A7
:106530001A7001F04DFF044610B9044802F06EF8DD
:10654000204610BDBC240020C0C8020030BC0200A0
:1065500030B499B10D490E4D491BC90813D00D4CEB
:10656000002302E0013399420AD034F8232082420A
:10657000F8D1184655F8300030BC7047044DF9E7A3
:10658000002030BC70470846F6E700BF3CC9020057
:10659000D4C8020084230020094B013903EBC0005A
:1065A00003290BD8DFE801F0040208060420704735
:1065B000022070474079704700797047002070478B
:1065C000D4C802002DE9F043904CD4E901239A424B
:1065D00085B060D00023C4F81834BFF34F8FA5688E
:1065E000EAB2D31C04EB830114F82330580718D502
:1065F00066680B7803F00303012B42D0022B03D112
:106600004B88023505EB9315EAB2D4F81804D31C75
:1066100004EB830128B9AE4239D914F823305B0763
:10662000E7D404EB82026B1CDBB2D26804EB830379
:1066300002F00301DB680229CDE9012305F102061E
:106640002DD0012900F09280D4F810543DB12B6870
:1066500028469B689847EB681D68002DF7D16C4869
:106660006C4B6D49C01AC008000440F0020000F0F5
:10667000D9F8D4E90130C01A18BF012005B0BDE82F
:10668000F0830B880235C3F383131D44BCE7A66077
:1066900005B0BDE8F083002005B0BDE8F083BDF88B
:1066A00006305E48C3F389184546502D28BF502553
:1066B00005F1080165F38F13C1F30901ADF8063048
:1066C00001F088FE07460028BED001F0CDFE002371
:1066D000082201A9384601F0F7FEF343DBB201338B
:1066E000B5EB830F4FEA83027ED9F1B25FFA82F9EC
:1066F000033104EB810138460823A5EB090501F0BD
:10670000E3FEEDB209F10803454903F0FC032A4614
:10671000384601F0D9FE08F1030806EB9806D4F8D4
:106720001834002B6ED1D4F8105465B1EB685A7947
:1067300028463946002A61D02B681B689847EB68C9
:106740001D68002DF2D1384601F092FE00230DF1B4
:1067500003008DF8033001F011FAD4F8183403B9AE
:10676000A6609DF8030001F02FFA82E7BDF804202F
:106770002A48C2F38313062B28BF062363F389122A
:10678000023303F00F018900ADF8042001F022FE6E
:10679000074600283FF458AF01F066FE00230822A8
:1067A00001A9384601F090FEBDF8043013F4707F63
:1067B000B5D06FF001094FF00808A9EB0509F1B257
:1067C00003314346042204EB8101384601F07CFE8C
:1067D000BDF804300136C3F3831309EB060293427C
:1067E00008F10408EBD89AE7F1B203312A4604EB2A
:1067F00081010823384601F067FE8CE71D68002DF3
:1068000094D1A0E7384601F033FE32E7BC240020E3
:10681000FCC80200D4C8020018BC0200C0C80200B4
:10682000C82400202DE9F04FDFF89CA187B0002399
:1068300006460DF10B008DF80B30019101F09EF929
:10684000DAE9018303F58073A3EB0803012B00F25F
:1068500081800AF21C450AF583670AF214441AE0A3
:10686000BDF80E30C3F3891303334FEA11490BEB24
:10687000930B204601F028FA494600283AD02846D2
:10688000CAF808B001F0FCF9DAE9012303F58073D6
:106890009B1A012B5FD80121284601F0F1F93846F7
:1068A00001F006FA204601F003FADAF80830DAB20D
:1068B000D11C0AEB810C1AF8211001F004004907E1
:1068C00028D40AEB82015A1CC9680391D2B201F0A4
:1068D00003000AEB82020128D16803F1020B31D0D8
:1068E0000228BDD0204601F0EFF94FF000094946DB
:1068F0000028C4D12846C5E7BCF802300EEB93133C
:10690000DAB2D11C0AEB810C1AF8211001F0040054
:106910000028D6D09CF8001001F0030101290AD00C
:10692000022903F1020E02F10301E5D00AEB810C0A
:106930000028EFD1C5E7BCF800200233C2F3831270
:106940001344DDE7BDF80C30C3F383134FEA11495C
:106950009B448EE74246D3B20333023205219DF8B1
:106960000B004AF82310CAF8042001F02DF9002189
:10697000144801F063F980F31001F300019A03F069
:10698000380343F0010308F1010043EA8223C0B257
:106990005FFA88F209040AEB8000033241EA1641EB
:1069A000C1604AF822309AF8003013B907B0BDE848
:1069B000F08FFFF707FE0028F8D0FFF703FE00284E
:1069C000F7D1F3E7D8280020BC2400202DE9F04FB0
:1069D000DFF8ACB187B0002306460DF10B008DF84F
:1069E0000B30CDE9001201F0C9F8DBE9018303F5B2
:1069F0008073A3EB0803022B00F281800BF21C458D
:106A00000BF583670BF214441AE0BDF80E20C2F3B5
:106A1000891203324FEA114A09EB9209204601F02C
:106A200053F9514600283AD02846CBF8089001F097
:106A300027F9DBE9012303F580739B1A022B5FD84A
:106A40000121284601F01CF9384601F031F92046B1
:106A500001F02EF9DBF80830DAB2D11C0BEB810C17
:106A60001BF8211001F00400490728D40BEB820128
:106A70005A1CC9680391D2B201F003000BEB8202E9
:106A80000128D16803F1020931D00228BDD0204687
:106A900001F01AF94FF0000A51460028C4D12846E7
:106AA000C5E7BCF802300EEB9313DAB2D11C0BEB46
:106AB000810C1BF8211001F004000028D6D09CF8AE
:106AC000001001F0030101290AD0022903F1020E8E
:106AD00002F10301E5D00BEB810C0028EFD1C5E7F3
:106AE000BCF800200233C2F383121344DDE7BDF883
:106AF0000C20C2F383124FEA114A91448EE74246BA
:106B0000D3B20333033245219DF80B004BF8231019
:106B1000CBF8042001F058F808F10203DBB20BEBCC
:106B20008303019ADA600021144801F087F880F3AA
:106B30001001F300009A03F0380343F0410308F119
:106B4000010043EA8223C0B25FFA88F209040BEB2A
:106B50008000033241EA1641C1604BF822309BF8B5
:106B6000003013B907B0BDE8F08FFFF72BFD002808
:106B7000F8D0FFF727FD0028F7D1F3E7D828002049
:106B8000BC2400202DE9F04FDFF8B8B189B0002413
:106B900006460DF113000393CDE901128DF8134061
:106BA00000F0ECFFDBF80830DBF8047003F58073CD
:106BB000DB1B032B00F281800BF21C450BF5836875
:106BC0000BF214441AE0BDF81630C3F389130333F3
:106BD0004FEA11490AEB930A204601F075F849463D
:106BE00000283AD02846CBF808A001F049F8DBE9A4
:106BF000012303F580739B1A032B5FD801212846DC
:106C000001F03EF8404601F053F8204601F050F8FC
:106C1000DBF80830DAB2D11C0BEB810C1BF8211029
:106C200001F00400490728D40BEB82015A1CC96803
:106C30000591D2B201F003000BEB82020128D1686A
:106C400003F1020A31D00228BDD0204601F03CF801
:106C50004FF0000949460028C4D12846C5E7BCF8D2
:106C600002300EEB9313DAB2D11C0BEB810C1BF844
:106C7000210000F004000028D6D09CF8001001F09C
:106C8000030101290AD0022903F1020E02F10301D6
:106C9000E5D00BEB810C0028EFD1C5E7BCF8002054
:106CA0000233C2F383121344DDE7BDF81430C3F39B
:106CB00083134FEA11499A448EE73A46D3B203331D
:106CC000043285219DF813004BF82310CBF80420E3
:106CD00000F07AFFBB1CDBB20BEB8303029ADA6095
:106CE000FB1CDBB20BEB8303039ADA600021144830
:106CF00000F0A4FF80F31001F300019A03F03803C1
:106D000043F08103781C43EA8223C0B2FAB209043B
:106D10000BEB8000033241EA1641C1604BF8223090
:106D20009BF8003013B909B0BDE8F08FFFF74AFCBB
:106D30000028F8D0FFF746FC0028F7D1F3E700BFA2
:106D4000D8280020BC24002030B4154DD5F81014EC
:106D50000446002071B10B4601E01B6853B1DB68AB
:106D60001A798242F9D101300A28F3D14FF0FF306D
:106D700030BC7047E3681871D5F810344BB1DA684D
:106D8000E36812681A60D5F81034DB681C6030BC08
:106D90007047C5F81044E268136030BC704700BF0C
:106DA000BC24002038B5084BD3F8104401251D70D1
:106DB0004CB1E3685D71236820465B689847E368DF
:106DC0001C68002CF5D138BDBC24002030B5C38828
:106DD00085B004460D4623BB237A052B1FD0627A6B
:106DE00082B9144AA08852F8232003920021FFF7A9
:106DF000AFFB039A10490346284605B0BDE8304072
:106E000000F0DCBF1946A088FFF7C6FB0B4B0C490E
:106E100053F82020284600F0D1FF237AE1E705B09F
:106E200030BD08490091084A0849284600F0C6FFCD
:106E3000D2E700BF08BD020068BC0200E4BC02004B
:106E400064BC02005CBC02003CBC020044BC02000A
:106E50002DE9F04385B01D460C9C002394F80C905E
:106E6000237380460E46174621462846FFF7AEFF9D
:106E7000062F09D8DFE807F0042E343B444F1F00EB
:106E80004146204600F09AFF2B7A052B05D06B7AFD
:106E90005BB92749204600F091FF204600F082FFB1
:106EA00084F80C9005B0BDE8F083224A22492046C0
:106EB00000F084FFEDE77369039333690293F3688D
:106EC0000193B3680093D6E900234146204600F0C1
:106ED00075FFD9E732684146204600F06FFFD3E7DF
:106EE000D6E900234146204600F068FFCCE7B368AE
:106EF0000093D6E900234146204600F05FFFC3E738
:106F0000F3680193B3680093D6E900234146204615
:106F100000F054FFB8E733690293F3680193B36854
:106F20000093D6E900234146204600F047FFABE737
:106F300074BC02005CBC020064BC0200082900D9D9
:106F400070472DE9F04F1D4683B000241B7B2C7346
:106F50000E4607462946104690460193DFF8D0B00A
:106F6000DFF8D0A0FFF732FF05E03A5D013400F012
:106F700025FF082C09D0A64251462846F5D8594687
:106F8000013400F01BFF082CF5D12449DFF8A8B02C
:106F9000234CDFF8A8A0284600F010FF4FF00009AE
:106FA00017E017F80910481C7E294FF02E02C0B2D6
:106FB00006D810F80A2012F0970F14BF0A462E22A6
:106FC0002146284609F1010900F0F8FEB9F1080F41
:106FD0000AD04E45E5D85946284609F1010900F086
:106FE000EDFEB9F1080FF4D198F80830052B02D066
:106FF00098F809305BB90B49284600F0DFFE2846B7
:1070000000F0D0FE019B2B7303B0BDE8F08F064A61
:107010000649284600F0D2FEEDE700BF84BC02001E
:1070200088BC020074BC02005CBC020064BC0200AC
:1070300080BC020078BC020070BC020064C7020081
:1070400038B5174B1D783DB3164A1168C0B20023FE
:107050000C4604E00133AB4204F108041CD011F8E3
:1070600033209042F6D102F009F86378A3F10103CE
:10707000B3FA83F35B09834200D038BD0A4BD3E9EE
:1070800000231343F9D1094B094819680022BDE8D0
:107090003840490800F0DABC00231B78FFDE00BF4F
:1070A00074290020C8290020A02900207829002068
:1070B0007C2900202DE9F04FDFF8788298F8003025
:1070C00083B0002B00F02B81DFF86C92954F964E29
:1070D00000254FF0010AD7F800B01BF8350001F089
:1070E000CDFF1BF835400BEBC50361085B7816F844
:1070F00001C014F0010EA3F10103B3FA83F314BF2E
:107100004FEA1C120CF00F025B09042A00F2EA801D
:10711000DFE802F0725F33200300834240F09F807B
:10712000BEF1000F0CBFF0230F230CEA030C0CBFC1
:107130000323302343EA0C03735498F800200135ED
:107140009542C8DBD9E90023134340F0DE8003B049
:10715000BDE8F08F834200F0C580BEF1000F0CBF88
:10716000F0230F230CEA030C0CBF0423402343EA53
:107170000C03735498F80020E1E7834240F0B58097
:10718000BEF1000F0CBFF0230F230CEA030C98F89C
:1071900000200CBF0323302343EA0C037354002A5E
:1071A000D0D0D7F800C00023614603E0934201F13C
:1071B0000801C4D01CF83300A04203F10103F5D14B
:1071C0004B68002BBBD020460121984798F800203F
:1071D000B5E7834219BF00231A4620230222BEF1DD
:1071E000000F16BF1A46F0230F230CEA03031A43BD
:1071F000725498F80020A2E7834273D14FF0000345
:10720000BEF1000F8DF8073014BF0F23F0230CEAF6
:10721000030C14BF1023012343EA0C030DF10700F4
:10722000735400F0ABFCA4F12003C4F120022AFA4D
:1072300002F20AFA03F31343D9F800209DF807007D
:107240000AFA04F42243C9F80020D9F804201343B1
:10725000C9F8043000F0B8FC98F800206FE7BEF1E0
:10726000000F14BF0F23F0230CEA030398F800C0AB
:107270007354BCF1000F12D038680023024603E0BB
:10728000634502F108020AD010F83310A14203F15D
:107290000103F5D1536813B10021204698474FF000
:1072A00000030DF107008DF8073000F067FCA4F132
:1072B0002003C4F120022AFA02F20AFA03F313436C
:1072C000D9F800209DF807000AFA04F422EA040223
:1072D000C9F80020D9F8042022EA0303C9F80430D1
:1072E00000F072FC98F8002029E7BEF1000F0CBFF7
:1072F000F0230F230CEA030C0CBF0123102343EAF5
:107300000C03735498F8002019E7084B08481968D3
:107310000022490803B0BDE8F04F00F097BBDFF84A
:1073200018900FE7C8290020A829002078290020FC
:107330007C29002074290020A0290020092A3FD997
:10734000F0B583B0144605460E4601F0E1FC88B363
:10735000204B214A1E70214B1560002120481C60E3
:10736000202204F01BFC1F4B00200021741EC3E9E7
:107370000001E4B236B31C4F05EBC404032602E05F
:10738000A5421FD01C469DF8063094F802C0207814
:107390008DF8046023F007033A4601A98DF8063002
:1073A0008DF805C001F0BEFCA4F108030028E7D069
:1073B00003B0F0BD01F052FC0028C9D003B0F0BD0D
:1073C00007207047094A0A48002103B0BDE8F04091
:1073D00000F02ABB74290020C82900207829002049
:1073E000A8290020A029002041700200B5700200E9
:1073F00028BD020070B5084D2B785BB1074E002404
:107400003368012113F8340001F08EFD2B7801342C
:10741000A342F5D8002070BD74290020C82900209F
:1074200070B5124D2B7882B053B1114E00243368E1
:1074300013F8340001F0E8FD2B780134A342F6D8AC
:107440000DF1070000238DF8073000F097FB094B82
:107450009DF8070000240025C3E9004500F0B4FBB7
:10746000054802B0BDE8704000F04CBB7429002014
:10747000C8290020A02900207C29002000B585B063
:107480000346002101AA44F20100CDE90111039352
:1074900000F004F805B05DF804FB00BF10B572B64B
:1074A000FFF780FCFFF78EF80028FBD1104B114C42
:1074B0001149E41AE408240444F00100FFF7B2F98A
:1074C0000E4BD3F8F030DB0700D500BE0C4944F07A
:1074D0000200FFF7A7F9BFF34F8F0849094BCA68AD
:1074E00002F4E0621343CB60BFF34F8F00BFFDE7B0
:1074F000D4C80200FCC802002CBD020000ED00E070
:1075000038BD02000400FA05F8B5204A204B0024DB
:10751000C2F84041C2F84441C2F84841C2F84C4167
:10752000C2F80041C2F804411B6833B31949D2F8CC
:1075300004550A68AD1A1A6825F07F45AA42274605
:107540000DD8197CDE69AD1A144419B1D3E90520B0
:107550001F7490471EB133461A68AA42F1D90E49EA
:107560000E4A0B7812789A4208D00D480D4A40F81E
:1075700023404FF48011C2F80011F8BD531CDBB258
:10758000022B08BF00230B70EFE700BF0010014083
:10759000EC2A0020E82A0020E52A0020E42A002026
:1075A000DC2A002000E100E02DE9F04FA64AA749BF
:1075B00013780978994285B000F082810133DBB2FB
:1075C000022B08BF0023A2481370A24A0568DFF807
:1075D0009C8252F82310D8F800C06B1823F07F4328
:1075E0000360BCF1000F00F0B7810024634626461B
:1075F0002746A64612E0DC68D8691F609644891ABF
:107600003CB105EB0E0222F07F42C3E90124DE61AA
:107610001E460124002800F05A8103461A688A4257
:10762000E9D9002C00F08681C8F800309946521A3A
:107630001A6001230293884B884FDFF834A243F08D
:1076400001034D4603934FF0000B7EB3D6E90103CF
:107650003446F6697E4ADFF81CC21268811A21F0AE
:107660007F41614500F29B800B4423600022C4E906
:107670000122E26101222274002D00F0A880296815
:10768000994280F09D802A4604E01068984280F07C
:10769000A28001469646D2699C465B1A002AF4D124
:1076A00070462360E261C461002ECFD178783978CA
:1076B000884219D0BA780B460131C9B203EB4303B3
:1076C0008A4207EBC30239701379946804BF002122
:1076D0003970022B00F09380032B00F08580012B82
:1076E00000F09B808142E5D1BBF1000F01D1A9459B
:1076F0002BD07DB3564A5A4B1468D3F80465594FC2
:10770000D5F800803A78351B25F07F450335002AEF
:1077100000F0E2805249A8452CBF4444641924F08B
:107720007F43C1F84035D1F80425921B9B1B22F002
:107730007F42033223F07F439A4200F2E680002327
:107740008AF8003005B0BDE8F08F029B002BF6D020
:10775000002DCFD1444B4FF40032C3F88020BFF34B
:107760004F8FBFF36F8F3E4E3B4C4FF4803301275A
:10777000C6F848333C43C6F808334FF43C607760A2
:10778000A047334BB7604FF43C601D60A047354BBA
:107790001D7000238AF8003005B0BDE8F08F121A82
:1077A00022F07F429A4202D29B1A23605EE70023B6
:1077B0000122C4E90033A360E36122743DB129686A
:1077C000C8F80040CB1A2B60E56125463DE7C8F8B4
:1077D0000040254639E7CDF804E086467144A1EB28
:1077E0000C01019811605CE7002D3FF461AF0023AC
:1077F0002B74ED69002DFBD1C8F8005056E74DB150
:10780000A54252D02B4601E09C4235D01A46DB6996
:10781000002BF9D10023237464E7237C002B7FF431
:1078200061AFD06860609C461369A3605169E160F4
:1078300091699AF80020A161002A3FF40BAFC4F8C7
:1078400004C0604606E700BFE42A0020E52A0020C5
:10785000E82A0020DC2A002050BD0200CC290020AC
:1078600000100140D92A002000E100E0EC2A0020AD
:10787000D82A0020FEFF7F00944217D0E1692368D8
:10788000D16169B128460A6813440B60854207D06C
:10789000002305463978787823744FF0010B21E7EF
:1078A00000233978787823741CE72A46E869C8F8F9
:1078B0000000002840D0D16913680029E3D1E5E732
:1078C000DFF8B0800026D8F800900296B3E6814633
:1078D000C8F800000294AEE64FF48031214AC3F8A4
:1078E0004413C3F804134FF40031C2F8801111603F
:1078F0001D4A4FF0010942F00102C3F800904FF415
:107900003C60904787F8009004E7174BD1F80425B6
:10791000C1F8402543F001034FF43C609847114BF8
:107920004FF40032C3F8002100238AF8003005B07C
:10793000BDE8F08FE1467AE601920C4A0C4901233A
:10794000936008608AF800304FF43C60039B9847CE
:10795000D8F80000019AAEE70123E146664602939B
:1079600069E600BF00E100E050BD020000100140E8
:10797000E82A0020EC2A00202DE9F843214E4FF49C
:107980000033C6F88030BFF34F8FBFF36F8F1E4DAB
:107990001E4FDFF890804FF480334FF00109002430
:1079A000C5F8483347EA0907C5F808334FF43C6087
:1079B000C5F80490B847C5F808904FF43C60C8F883
:1079C0000040B847124A134B1460134A1C701470DD
:1079D000124A134B14700B229A701C804FF48012C1
:1079E000C023C6F8802186F814333260C5F80845F4
:1079F00086F81133D5F80435C8F800302046BDE8C4
:107A0000F88300BF00E100E00010014050BD02001B
:107A1000EC2A0020D92A0020E42A0020E52A0020B0
:107A2000CC290020E82A0020074B9B783BB142B1CB
:107A300038B10368187C10B959745A61704708202E
:107A400070470720704700BFCC2900202DE9F04384
:107A5000284EB37883B0002B3DD0044600283AD09E
:107A6000254B91464A1F9A420D4638D8436993B335
:107A7000437C0027012B0DF107000CBF88464FF017
:107A800000088DF8077000F079F87378B278591C07
:107A9000C9B28A4208BF394632788A4223D003EB02
:107AA000430306EBC3030120144A18719C60D2F80B
:107AB00004259DF807007170C3E90325C3E9058912
:107AC00000F082F80E4B4FF48012C3F800213846C4
:107AD00003B0BDE8F083082003B0BDE8F0830720C1
:107AE00003B0BDE8F0839DF8070000F06DF80420B6
:107AF000EEE700BFCC290020FAFFFF000010014094
:107B000000E100E070B51B4CA37882B04BB3054692
:107B100038B343692BB3002606740DF107008DF8C6
:107B2000076000F02BF86278A178531CDBB2994211
:107B300008BF33462178994216D002EB42026370A7
:107B400004EBC20402239DF807002371A56000F036
:107B50003BF8094B4FF48012C3F80021304602B0C5
:107B600070BD082002B070BD9DF8070000F02CF831
:107B70000420F4E7CC29002000E100E070B4EFF32A
:107B8000108472B60D4B9A68AAB9012199600C490C
:107B90000C4ED1F8805035401D60C1F88060D1F89E
:107BA00084505D604FF0FF33C1F88430027004B937
:107BB00062B670BC704701230370F8E7F02A00201A
:107BC00000E100E0FC06FFBD094B9A687AB170B98C
:107BD00010B4EFF3108172B6064A1C6814605C683A
:107BE0005460986001B962B65DF8044B7047704705
:107BF000F02A002000E100E04B0901F01F024FF0E5
:107C0000010C0CFA02F100EB830000F021B800BF78
:107C100001F01F02012303FA02F24B0900EB83007B
:107C2000D14300F021B800BF4B0901F01F0150F80B
:107C30002300C84000F00100704700BF034653E82E
:107C4000000F0A4643E8002C9CF0000FF7D1704764
:107C5000034653E8002F42EA010043E8000C9CF081
:107C6000000FF6D1704700BF034653E8002F02EA29
:107C7000010043E8000C9CF0000FF6D1704700BFF4
:107C8000034653E8002F02EB010043E8000C9CF090
:107C9000000FF6D1704700BF034653E8002FA2EB58
:107CA000010043E8000C9CF0000FF6D1704700BFC4
:107CB0000346012253E8001F41EA020043E8000C9A
:107CC0009CF0000FF6D170470346002253E8000FE6
:107CD00000EA020143E8001C9CF0000FF6D1704757
:107CE000D0B110B4D0E90112521A0468D2B2531EB6
:107CF0002160DBB252B101680A6803F1FF3C541CF9
:107D00000C6013705FFA8CF3FF2BF4D10368002032
:107D100018715DF8044B70470E20704730B583B082
:107D2000044600250DF107008DF80750FFF726FFE8
:107D3000D4E900311A688A4210D9511E19602168AD
:107D4000A3680D6812F8012C208A5B1BE56800FB14
:107D500002550A79DBB29A4238BF0B719DF80700D1
:107D6000FFF732FF284603B030BD00BF30B50546EF
:107D700083B00DF1070000230C468DF80730FFF7A4
:107D8000FDFE2A681368591C1160E9682A8A641A82
:107D9000B4FBF2F41C709DF80700FFF715FF03B069
:107DA00030BD00BF826842B110B504464369016826
:107DB000006998470023A36010BD70470EB400B55A
:107DC00082B0039921B104AB01AA019300F0AAF893
:107DD00002B05DF804EB03B0704700BF2DE9F84F27
:107DE0001546A942DDF828800B9A0E4683469A462E
:107DF000C0F094800B460127B3FBF5F39D4207F1D9
:107E00000107F9D9574538BF574612F0010902D189
:107E1000B8F1000F5BD1DBF80810BAF1010F4FF099
:107E2000010406D90AF1FF3ABAF1010F05FB04F487
:107E3000F8D8B6FBF4F39D4205D805FB04F4B6FB75
:107E4000F4F39D42F9D9DFF8D8A008E0AC42B4FBC6
:107E5000F5F319D3DBF808101C46B6FBF3F34A1C04
:107E6000CBF80820DBF800201AF80300505404FB7C
:107E70001366DBE901329A42E8D35846FFF792FFD6
:107E8000B4FBF5F3AC42E5D2B9F1000F16D0B8F16E
:107E9000000F13D02024474508F1FF380ED2DBF83D
:107EA0000830DBF80020591CCBF80810D454DBE96B
:107EB00001329A4204D2B8F1000FECD1BDE8F88F3C
:107EC0005846FFF76FFFB8F1000FE4D1F6E79307CC
:107ED0001ED42024DBF80810474501F101029CD292
:107EE000DBF80030CBF808205C54DBE90131994223
:107EF00008F1FF3803D2B8F1000FEDD18DE75846F5
:107F0000FFF750FFDBF80810B8F1000FE4D184E769
:107F1000BAF1000F0CBF30242024DBE7012771E702
:107F200058BD0200002900F09D812DE9F04FDFF8D7
:107F300098940B7885B0064690460C464FF0300A70
:107F400001E0237893B1013483B1252B15D0B268B9
:107F50003168501CB0608B54D6E901329A42F0D39C
:107F60003046FFF71FFF2378002BECD1337B002B2B
:107F700040F0948005B0BDE8F08F0027234614F848
:107F8000012B2D2A63D0302A64D02B2A58D02A2ADC
:107F900063D0A2F1300109294FF000050BD805EBA1
:107FA000850502EB450513F8012FA2F130010929DF
:107FB000A5F13005F3D92E2A1C4659D0002301E043
:107FC00014F8012F02F0FB016829F9D0252A00F0EE
:107FD0003E81583AD1B2202930D8202A2ED8DFE865
:107FE00012F021002D002D002D002D002D002D0060
:107FF0002D002D002D002D009E0063002D002D0072
:108000002D002D0063002D002D002D002D002D00D2
:108010002D00B2002D002D00EF002D0027012D00B6
:108020002D002100D8F800101022081DC8F800000B
:1080300009683046CDE90057FFF7D0FE013480E7EC
:10804000234614F8012B2D2A47F004079BD147F053
:10805000010793E747F0020790E7D8F80020111DC9
:10806000C8F8001015685A782E2A03F10104A5D12A
:108070006278A2F13003092B04F101044FF00003F0
:10808000A0D803EB830302EB430314F8012FA2F102
:1080900030010929A3F13003F3D993E7304605B045
:1080A000BDE8F04FFFF77EBED8F80020111DC8F8DC
:1080B0000010D2F800B08BEAEB72A2EBEB72092A47
:1080C00040F37D81DFF804C3012011466329ACFB36
:1080D00002E200F101004FEAD202F6DC98420246C9
:1080E00038BF1A460292002D40F0BD80B80700F15B
:1080F00030810025BBF1000FC0F20E817A0700F13C
:108100001E8107F00302022A00F03381CDE90057F7
:1081100059460A223046FFF761FE013411E7D8F8CC
:1081200000301A1DC8F800201978B3683268581C4E
:10813000B060D154D6E901329A42FFF47FAF3046A5
:10814000FFF730FE7AE7D8F800301A1DC8F8002093
:108150001F68B3683268591CB16002F803A0D6E901
:108160000123934280F02481591C3268B160782148
:10817000D154D6E90123934280F015810F2F03D902
:108180003A4612090F2AFCD84FF0805506E00F2D11
:108190004FEA15127FF652AFB36815465A1CB2600B
:1081A0003268B7FBF5F119F80100D054D6E9013275
:1081B0009A4205FB1177EAD33046FFF7F3FDE6E775
:1081C000D8F800301A1DC8F8002017F00107D3F8BE
:1081D00000B069D09BF80000002800F0F280B16880
:1081E0005F46CBF101024B1CB36033685854D6E9AB
:1081F0000131994202EB070B1ED217F8010F00283C
:10820000F1D15D457FF61AAF202702E05D453FF4CE
:1082100015AFB2683368511CB1609F54D6E9013282
:108220009A4205F1FF35F1D33046FFF7BBFDEDE78C
:10823000D8F800100A22F8E630460292FFF7B2FDA5
:1082400017F8010F0028DCD0B168029ACBE7B368B9
:108250003168581CB060CA54D6E901329A42FFF422
:10826000EDAE6CE77047BBF1000F01DB7A0700D57C
:10827000013DB80769D4F9073FF53CAF002D3FF445
:1082800038AF20220299A942BFF434AFB168481C2C
:10829000B06030684254D6E90101814205F1FF35F2
:1082A0005ED2002DEED124E7BBF1000F03D058467B
:1082B00003F07CFC0746BD4213D9202201E0BD42F9
:1082C0000FD0B1683368481CB0605A54D6E9013108
:1082D000994205F1FF35F2D33046FFF763FD2022C6
:1082E000EDE79BF80030002B3FF4A8AEB168326890
:1082F000481CB0605354D6E90131994204D21BF8AE
:10830000013F002BF3D199E63046FFF74BFD1BF8F8
:10831000013F002BEAD191E6B1683268481CB06099
:10832000CBF1000B2D205054D6E901219142FFF4EE
:10833000E8AE30460393FFF735FD039BE1E6B168F5
:108340003268481CB0602B20EDE7002B3FF4D2AE22
:1083500091E7002B3FF4CEAEF9073FF5CBAEC8E670
:1083600030460393FFF71EFD039B2022002D89D189
:10837000BFE6002B7FF4CAAEFDB1029AAA42BFF459
:10838000C5AEB1683268481CB06002F801A0D6E9F9
:108390000121914205F1FF35EED330460393FFF7FB
:1083A00001FD039BE8E73046FFF7FCFCB368E5E618
:1083B0003046FFF7F7FCB368D6E60025A6E60120B5
:1083C0008CE683461DE700BF58BD0200CDCCCCCC67
:1083D000FFF786BC2DE9F041058A0331043D4E19B3
:1083E0008046B6FBF5F6FFF799FCA0B3F6B24FF462
:1083F0008073013E04468380C580C0F800802BD086
:108400000346002508E06279AE4202F10102627182
:108410003860C0F800801FD040461F46FFF77EFC42
:10842000013503460028EED16779791E17D0224620
:10843000013399421268FBD1D2F800805FB12668FF
:10844000002501E034463668214640460135FFF7F5
:108450008DFCAF42F6D800242046BDE8F0812068AC
:108460002146FFF783FCF6E701210430FFF708BC43
:108470002DE9F041012104460430FFF70DFC10F016
:10848000FF0301D0BDE8F0816779791E16D022463E
:10849000013399421268FBD1D2F80080002FF1D04D
:1084A0002668002501E034463668214640460135FD
:1084B000FFF75CFCAF42F6D8BDE8F08120682146AA
:1084C000BDE8F041FFF752BC2DE9F8438846C78864
:1084D000417907FB01F1043902EB030C1E1D6145D4
:1084E000154638BFCD1AB7420446B6FBF7F207FB74
:1084F000126002D8013A2468FCD13E1AAE4228BF6D
:108500002E469DB14FF000090430AD1B324608EBFA
:108510000901204403F034FBAF42B14424683E46D5
:108520004FF0000028BF2E46002DEDD1BDE8F883A6
:108530002DE9F8430446C788407907FB00F004386A
:1085400002EB030C1E1D6045154638BFC51AB74225
:108550008846B6FBF7F107FB116202D8013924689F
:10856000FCD1BE1AAE4228BF2E469DB14FF0000985
:10857000111DAD1B3246214408EB090003F000FB3E
:10858000AF42B14424683E464FF0000228BF2E4659
:10859000002DEDD1BDE8F88341DF7047064A074B57
:1085A00010B5002414701C60BFF35F8F04490548A8
:1085B00000F042F8204610BD042B0020082B0020BC
:1085C00074BD0200FC2A002000B583B000230DF129
:1085D00007008DF80730FFF7D1FAF1EE103A23F0DB
:1085E0009F03E1EE103ABFF35F8F0B4B4022C3F8BD
:1085F00084219DF80700FFF7E7FA03F0FFF828B998
:1086000020BF40BF20BF03B05DF804FB03B05DF89E
:1086100004EBFFF7C1BF00BF00E100E08268002368
:10862000936082681361826853618268D360826854
:10863000536082681360704701600B6843604A684A
:10864000934204BF00234360704700BF436843B1B7
:10865000026891680B4443605268934204BF002350
:10866000436070471049A1F5947205E052F8333029
:10867000984238BF61460CD2A1EB020C4FEADC7382
:1086800003EBEC035B10914202EBC30CEED80748FE
:10869000704702D90CF10802EEE7DCF80400034B46
:1086A000002808BF18467047A8C202006CC102002B
:1086B00010B44FF08053D3F83021082A1CD0774AE9
:1086C000D2F8883043F47003C2F88830BFF34F8F7C
:1086D000BFF36F8F4FF01023D3F80022002AC0F2AF
:1086E000AC80D3F80432002BC0F2A7806C4B6D4AEB
:1086F0001A605DF8044B70474FF080410020C1F8CC
:108700000C01694AC1F81001C1F83805D3F8041406
:10871000C2F82015D3F80814C2F82415D3F80C14A5
:10872000C2F82815D3F81014C2F82C15D3F8141475
:10873000C2F83015D3F81814C2F83415D3F81C1445
:10874000C2F84015D3F82014C2F84415D3F8241405
:10875000C2F84815D3F82814C2F84C15D3F82C14D5
:10876000C2F85015D3F83014C2F85415D3F83414A5
:10877000C2F86015D3F83814C2F86415D3F83C1465
:10878000C2F86815D3F84014C2F86C15D3F8341148
:10879000D3F84434C2F87035032942D8434B5B5CAC
:1087A0001BB1434B434AC3F88C26434B5B5C73B10C
:1087B0004FF080534149D3F83021FB20C1F8180510
:1087C000082AD3F834117FF47AAF032929D83C4B17
:1087D0005B5CBBB14FF080524FF08040D2F8583212
:1087E000D0F8E41ED2F8304121F00F0103F00F035E
:1087F0000B43C0F8E43E082CD2F834117FF45FAF8D
:1088000003290ED82F4B5B5C5BB14FF080532E4A8F
:10881000D3F830314FF40071082BC2F840167FF4C2
:108820004EAF4FF08043D3F80024D2077FF547AF17
:108830006FF00102C3F8002441E7244A0123C2F883
:108840000435D2F80034002BFBD04FF01023122156
:108850001E4AC3F80012D2F80034002BFBD04FF0B0
:1088600010231221194AC3F80412D2F80034002B45
:10887000FBD000231549C2F80435D1F80034002B91
:10888000FBD0BFF34F8F0549114BCA6802F4E06279
:108890001343CB60BFF34F8F00BFFDE700ED00E057
:1088A000FC2200200090D00300C00040A8C20200BB
:1088B0000050004048810300A8C2020000F00040C0
:1088C000A8C20200A8C202000090024000E00140DD
:1088D0000400FA05064B1A5C1F2A86BF054902F000
:1088E0001F024FF0A04101239340C1F80C3570479F
:1088F000ACC2020000030050064B1A5C1F2A86BF60
:10890000054902F01F024FF0A04101239340C1F836
:1089100008357047ACC2020000030050C10706D4FE
:10892000830742BF114B0C22C3F8002770474FF05A
:10893000A043032210B44FF40001C3F858274FF4AA
:108940008004C3F85C27C3F860274FF08072C3F837
:108950000845C3F80815C3F80825820703D5034B5B
:108960000C22C3F800275DF8044B70470003005049
:1089700010B568B90E4CA368012262703BB1D3E90F
:1089800000230020A2609847A368002BF7D110BDF8
:108990000128FCD1064C2369A070002BF7D0D3E945
:1089A00000230120226198472369002BF7D110BDD5
:1089B0000C2B002070B910B5074CA368012262701F
:1089C0003BB1D3E900230020A2609847A368002BA5
:1089D000F7D110BD704700BF0C2B002030B5012827
:1089E00083B004D0032821D0B0B103B030BD294CEE
:1089F00000230DF107008DF80730FFF7BFF823784B
:108A00006BB3E3689DF8070001221344E360A27092
:108A1000FFF7DAF803B030BD1F4B0122C3F8802006
:108A2000BFF34F8FBFF36F8F03B030BD194C00F011
:108A3000B5F800230DF107008DF80730FFF79EF819
:108A4000E368013BE360E3681BB9144BD3F80054BF
:108A5000C5B19DF80700FFF7B7F803B030BD104867
:108A60006360A3602361E36000F08CF802F0C6FE4F
:108A700060B10A4A01232370D2F80024002AC0D032
:108A8000A370BEE700F09CF8A570E2E700F086F85E
:108A9000EFE700BF0C2B002000E100E000000140E8
:108AA0007189020030B50A4B0A4C53F8213054F852
:108AB0002110027885B0D0E901548DF80020C268F9
:108AC00001958DF8084003926846984705B030BD7F
:108AD000282B0020202B002030B50A4B0A4C53F8DD
:108AE000213054F82110027885B0D0E901548DF876
:108AF0000020C26801958DF80840039268469847A7
:108B000005B030BD282B0020202B0020F0B5184BDD
:108B1000067843F82620174B0446487F985515469B
:108B2000154A8E46096942F8261022789F5CBEE8F5
:108B30000F0089B0EC46ACE80F009EE80F008CE80F
:108B40000F0004964FB1002D0C4A694608BF2A4613
:108B5000201D01F0F1F809B0F0BD002D084A69466A
:108B600008BF2A4604F10C0000F042FE09B0F0BD37
:108B7000282B0020302B0020202B0020A58A02006B
:108B8000D98A0200044A137923B901211060918027
:108B90001846704785207047342B0020074B1A6811
:108BA000D20704D4C02283F8002301221A604FF0B8
:108BB00080430122C3F81825704700BF00E100E0A0
:108BC0004FF0804202210023C2F8081382B0C2F89D
:108BD0000431D2F80431019301230199D360D2F812
:108BE0001834DB03FBD402B0704700BF10B54FF060
:108BF000804382B0D3F8002162B10021164AC3F845
:108C00000011D3F80011507900910121009CC3F8A4
:108C10000813A8B14FF08043D3F80421CAB1002251
:108C2000C3F80421D3F80421019202210A4A0198D1
:108C3000C3F808131368012002B0BDE810401847BC
:108C40001368517198474FF08043D3F80421002AEC
:108C5000E5D102B010BD00BF342B002030B5284C48
:108C600094F86A3083B0002B46D14FF6FF704FF076
:108C7000FF0C5A09012A18BF4FF0FF3103F01F0201
:108C800008BF014621FA02F2D20748BFE21803F1F9
:108C9000010348BF82F830C0302BEAD14FF0FF30DB
:108CA0004FF0FF314FF0FF33C4E9000106220021ED
:108CB00014482366C4E90233C4E90433C4E9063323
:108CC000C4E90833C4E90A3302F068FF0E4BC0223E
:108CD00083F8062340221A600C4B0020C3F87C0165
:108CE000D3F87C21019201214FF00042019D84F8CC
:108CF0006A10C3F8042300E0082003B030BD00BFB1
:108D0000402B0020A42B002000E100E00060004088
:108D1000034B93F86A00003818BF0120704700BF6A
:108D2000402B002070B57D4B03EB000E9EF930C048
:108D3000BCF1000F01DB082070BD91F802C01CF0EF
:108D4000020FCCF340055DD11C6A013400F0DF80D6
:108D50005C6A013400F0D1804FF00C0E4FF00A0C29
:108D600053F82C40013459D00CF10104744547D21A
:108D700053F82460013600F0B8800CF10204744509
:108D80003ED253F82460013600F0AF800CF10306A8
:108D9000764535D253F8264001343ED00CF1040616
:108DA00076452DD253F82640013436D00CF1050615
:108DB000764525D253F8264001342ED00CF1060614
:108DC00076451DD253F82640013426D00CF1070613
:108DD000764515D253F8264001341ED00CF1080612
:108DE00076450DD253F82640013416D00CF1090C0B
:108DF000F44505D2DC6A013408BF4FF00B0C0DD0EE
:108E0000042070BD1C68013471D05C6801347BD0D3
:108E10004FF0080E4FF0020CA2E7B44643F82C20A6
:108E20001A184FFA8CFE82F830E015B99C448CF881
:108E300058008A7854071CD4D50747D51F2887BF08
:108E4000374A00F01F0404464FF0A04202EB8402B0
:108E5000D2F8004724F00204C2F80047314DC4089C
:108E600000F0070C2E5D012202FA0CF232432A5563
:108E70008A7812F002021CD04FEA8E0303F180437D
:108E800003F5C0430978D3F8104524F44F3424F493
:108E90004074C3F8104502020904D3F8100501F428
:108EA000403102F47C520A430243C3F810250020EB
:108EB00070BDAEF1080E43FA8EF30C7893F8601093
:108EC000104641EA841283F8602070BD1F284C7858
:108ED00087BF134D00F01F0202464FF0A04502F578
:108EE000E072A40045F82240B8E7A44696E71A606D
:108EF00000228EF8302096469BE74FF0090C8EF842
:108F000030C05A62E64691E74FF0010C86E74FF019
:108F1000080C8EF830C01A62E64687E7402B002026
:108F200000030050A42B002030B4344C04EB000CA0
:108F300082B09CF93030072B24DD083B44FA83F3E0
:108F400093F860309B09032B47D0012B0CBF4FF4E3
:108F500000324FF440321F288ABF294B4FF0A04304
:108F600000F01F0003EB8000D0F8003723F44033FB
:108F7000C0F80037D0F800371A43C0F8002702B015
:108F800030BC7047DAB2072AF9D8980000F1804067
:108F900003F1400200F5C04052B29200D0F81055E3
:108FA00092B202F1804202F5C04245F00105C0F8DC
:108FB00010550020106012680192019A0029DED03D
:108FC0009CF9302054F82220002AD8D00D490122E3
:108FD00002FA03F3C1F80433D1E71F288ABF084A15
:108FE0004FF0A04200F01F03D2F8102598BF0346AF
:108FF000DA4002F0010202321204ACE7402B0020FA
:109000000003005000600040194B034493F93030D6
:10901000072B13DD1F288ABF164B4FF0A04300F02B
:109020001F0003EB8000D0F8003723F44033C0F872
:109030000037D0F80037C0F800377047DAB2072A97
:1090400014D810B49A0002F1804202F5C0420A4CD2
:10905000D2F81005012120F0010001FA03F3C2F853
:109060001005C4F808335DF8044B7047704700BF23
:10907000402B002000030050006000401F288ABFE2
:10908000054B4FF0A04300F01F00D3F8103523FA32
:1090900000F000F001007047000300502DE9F04798
:1090A000002384B0CDE902331C4AD2F80011012913
:1090B00000F030821E46194BD3F80421012A00F03B
:1090C0001A82164BD3F80821012A00F00582134BAF
:1090D000D3F80C21012A00F0F081104BD3F81021B5
:1090E000012A00F0DB810D4BD3F81421012A00F096
:1090F000C1810A4BD3F81821012A00F0AC81074B3B
:10910000D3F81C21012A0BD0044BD3F87C21012A6F
:1091100000F0218256BB04B0BDE8F087006000403B
:10912000D3F804231206EFD50022C3F81C21D3F88C
:109130001C110091D3F87C110098012946F080069B
:1091400014D1C3F87C21D3F87C3101934FF0A042B5
:10915000019BD2F82015CF4B0291C2F82015D3F80D
:1091600020250392C3F8202546F00046CA4F00246C
:109170000125A30003F18043354203F5C0434FEAC4
:1091800045050BD0D3F8100557F82420D3F8101557
:10919000C0F30520C1F3014102B190470134082C0E
:1091A000E7D1002EB7DABC4CBA4E01254FF0A047EC
:1091B00094F96000431C48D0C0F3C20202F11003CE
:1091C0000DEB030200F0070312F8082C05FA03F375
:1091D0001A42C1B200F03F0037D01F2800F22B81A5
:1091E00002464FF0A04909EB820305FA02F2D3F8D8
:1091F00000C7D3F800E72EF4403EC3F800E704EBC5
:10920000000ECCF3014C9EF930E0D3F800A754F8DF
:109210002E80BCF1020F0CBF4FF4403E4FF4003ED5
:109220004EEA0A0EC3F800E7C9F82025B8F1000F8E
:109230000BD08909032900F08281BCF1020F00F0F4
:109240007B81BCF1030F00F0A68194F96100411C01
:1092500048D0C0F3C20202F110030DEB030200F08C
:10926000070312F8082C05FA03F31A42C1B200F002
:109270003F0037D01F2800F2E28002464FF0A0499D
:1092800009EB820305FA02F2D3F800C7D3F800E72E
:109290002EF4403EC3F800E704EB000ECCF3014C83
:1092A0009EF930E0D3F800A754F82E80BCF1020FED
:1092B0000CBF4FF4403E4FF4003E4EEA0A0EC3F896
:1092C00000E7C9F82025B8F1000F0BD08909032960
:1092D00000F03A81BCF1020F00F03381BCF1030FC2
:1092E00000F05D8194F96200421C48D0C0F3C202D4
:1092F00002F110030DEB030200F0070312F8082C33
:1093000005FA03F31A42C1B200F03F0037D01F281C
:1093100000F2998002464FF0A04909EB820305FA5A
:1093200002F2D3F800C7D3F800E72EF4403EC3F8AA
:1093300000E704EB000ECCF3014C9EF930E0D3F8CB
:1093400000A754F82E80BCF1020F0CBF4FF4403E32
:109350004FF4003E4EEA0A0EC3F800E7C9F8202594
:10936000B8F1000F0BD08909032900F0F280BCF19D
:10937000020F00F0EB80BCF1030F00F0088194F9BC
:109380006300431C47D0C0F3C20202F110030DEB8F
:10939000030200F0070312F8082C05FA03F31A423F
:1093A000C1B200F03F0036D01F2850D802464FF01F
:1093B000A04909EB820305FA02F2D3F800C7D3F8FB
:1093C00000E72EF4403EC3F800E704EB000ECCF3B8
:1093D000014C9EF930E0D3F800A754F82E80BCF180
:1093E000020F0CBF4FF4403E4FF4003E4EEA0A0E0F
:1093F000C3F800E7C9F82025B8F1000F0BD08909A0
:10940000032900F09780BCF1020F00F09080BCF1BE
:10941000030F00F0B880D7F820250292C7F8202566
:10942000D6F820350393C6F8203513437FF4C0AE39
:1094300004B0BDE8F08701F01F02B146D3E601F0A9
:109440001F02B1461CE701F01F02B14665E701F0BB
:109450001F02B146ADE7D3F8042351067FF54FAEA6
:109460000022C3F81821D3F818310093009B46F06E
:10947000400644E6D3F8042390067FF53AAE002276
:10948000C3F81421D3F814310093009B46F0200652
:109490002FE600BF00030050402B0020D3F8042328
:1094A000D4067FF520AE0022C3F81021D3F8103186
:1094B0000093009B46F0100615E6D3F80423150729
:1094C0007FF50BAE0022C3F80C21D3F80C310093CA
:1094D000009B46F0080600E6D3F8042357077FF503
:1094E000F6AD0022C3F80821D3F808310093009BA1
:1094F00046F00406EBE5D3F8042392077FF5E1ADCF
:109500000022C3F80421D3F804310093009B46F0F5
:109510000206D6E5D2F8046316F001063FF4CBAD9F
:10952000C2F80031D2F800310093009BC3E5012955
:109530007FF471AFC0476EE701297FF486AEC04764
:1095400083E601297FF4CEAEC047CBE601297FF444
:1095500016AFC04713E70022C3F87C21D3F87C3153
:1095600001934FF0A042019BD2F820150E4B0291BF
:10957000C2F82015D3F820250392C3F82025002E29
:109580003FF411AEF0E502297FF445AFD2E702299E
:109590007FF4F5AEDDE702297FF457AECFE702296D
:1095A0007FF4A0AED0E700BF00030050014B1B6862
:1095B000184700BFAC2B0020104B98421BD130B590
:1095C00083B000230DF107008DF807300D46FEF73C
:1095D000D5FA0B4B9DF807001C793CB901221D60A0
:1095E0001A71FEF7F1FA204603B030BDFEF7ECFA2F
:1095F000112003B030BD0020704700BF00200040A4
:10960000AC2B0020034B984203D1034B00221A607D
:109610001A71704700200040AC2B002000000000B1
:1096200010B5714AD2F8043399058AB068D5D2F8DA
:109630002431002B64D00023C2F82431D2F8243125
:1096400001934FF40171694B0198C2F8081393F824
:10965000291009B901215160634902228DF81820AF
:10966000D1F88024C1F880249FED5D7B9969D8688A
:10967000CDE9081283ED067BD3E90012079006A816
:109680009047594AD2F81C31C3B1584B5869196AEE
:1096900088426AD993F8281001F0FF00002964D1AC
:1096A000C2F81C01D2F81C11039103999C68186A36
:1096B000196A205C01311962C2F81C054A4AD2F8C5
:1096C0004431DBB10021494BC2F84411D2F84401C6
:1096D00093F829100090009809B1012111609A694E
:1096E00062B1D8685C6A00210122CDE90704996162
:1096F0008DF8182006A8D3E9001290470AB010BDD3
:10970000394AD2F804335B07BBD5D2F80831002BB5
:10971000B7D0364B996900293ED00021C2F8081114
:10972000D2F8081104910499D868596AD2F818251A
:1097300042545A6A996901325A625A6A8A42A0D1DD
:10974000DA69002A31D09A611A69D8685C6ADA60ED
:10975000002101220894D961596207905C68196858
:109760008DF8182006A8A0478BE71F4A0020C2F8F2
:109770001C01D2F81C210292029A5A69002A9DD03B
:10978000D3E901215C698DF81800CDE9071458610F
:10979000196806A8904791E7C2F80811D2F80801A5
:1097A00005900598D2F81825C7E793F8292012B933
:1097B0000D4A012151600C4A4FF40171C2F808139F
:1097C000D8685C6A0021012299618DF81820D3E9DC
:1097D0000012CDE9070406A8904752E7AFF30080D6
:1097E000000000000000000000200040B82B002016
:1097F0002DE9F041734E90F804802C2303FB08639D
:1098000082B093F82A30002B40F09C8005460C462D
:1098100000686D491746FFF7CFFE002840F08E80A4
:109820002368591C19D01F2B4FF001028ABF6749CA
:109830004FF0A04103F01F0302FA03F3C1F808350B
:1098400023681F2B86BF03F01F03604A4FF0A0421E
:1098500003F5E073032142F8231063685A1C0BD010
:109860001F2B86BF03F01F03584A4FF0A04203F599
:10987000E073002142F823102B68A269C3F8242565
:10988000227D637D13432A68C2F86C35D4E9001247
:109890002B68C3F81425C3F80C15237D012B5CD06D
:1098A0002C2303FB08F3F21857602269F25097B398
:1098B0002A68237F0021C2F81C11D2F81C210092D3
:1098C000009A2A68C2F84411D2F844210192019A00
:1098D0002A683F49C2F804132A6842F30731002975
:1098E0004FEA123232DB01F160415B0101F5614167
:1098F000DBB281F800332B6843F30732002A4FEACA
:10990000133109DB334C5209012301F01F0103FA23
:1099100001F144F822102B680422C3F800252C23FF
:1099200003FB086601220023C6E9063386F82930C6
:10993000736186F82A2002B0BDE8F081112002B0E0
:10994000BDE8F081082002B0BDE8F081224902F0B4
:109950000F025B01DBB28B54CDE7A368591C0BD01F
:109960001F2B86BF03F01F0318494FF0A04103F5DA
:10997000E073002241F82320E3685A1C1AD01F2B01
:109980008ABF12494FF0A04103F01F03012202FADF
:1099900003F3C1F80835E3681F2B88BF03F01F03EA
:1099A00003F5E0738CBF09494FF0A041032241F851
:1099B0002320E3682A68A168C2F80835C2F81015A8
:1099C0006EE700BFB82B0020219602000003005074
:1099D0008000020000E100E014ED00E0F8B503684B
:1099E00007793D4C0022C3F800252C2303FB0743D5
:1099F0005B68C3B10368394AC3F80823036843F3BB
:109A00000732002A4FEA13310EDB5209344D20325F
:109A1000012301F01F0103FA01F145F82210BFF301
:109A20004F8FBFF36F8F0368D3F80C65D3F81455CD
:109A3000D3F80825D3F810154FF0FF3CC3F814C530
:109A4000C3F80CC503686645C3F808C5C3F810C55C
:109A50000CD01F2E86BF06F01F06224B4FF0A043EE
:109A600006F5E0764FF0020C43F826C06E1C0BD0D2
:109A70001F2D86BF05F01F051A4B4FF0A04305F5BB
:109A8000E075022643F825604D1C0BD01F2986BFC8
:109A900001F01F01134B4FF0A04301F5E0710225C7
:109AA00043F82150531C0BD01F2A86BF02F01F021F
:109AB0000C4B4FF0A04302F5E072022143F8221054
:109AC0000068FFF79FFD2C2303FB0744002384F865
:109AD0002A306360F8BD00BFB82B0020840202006A
:109AE00000E100E0000300502DE9F041334C90F814
:109AF00004E02C2303FB0E438446586984B00028FD
:109B00004ED15A619960186283F82800DCF8002071
:109B1000C2F81C01D2F81C210292029ADCF8002043
:109B200001219160DCF800209D68C2F81C01D2F888
:109B30001C1101910199196A6E5C196A013119624F
:109B4000C2F81C655A6812B104B0BDE8F0815E69C4
:109B50001A6ADCF8001096421BD9074602E093F817
:109B600028200ABBD1F81C21002AF8D0C1F81C71AA
:109B7000D1F81C210392039A1A6A15F802801A6A16
:109B800001321A62C1F81C851A6A9642EAD8DCF8DA
:109B90000010D1F81C31002BFBD00123CB6004E076
:109BA000112004B0BDE8F0810F202C2303FB0E44EC
:109BB0000023636104B0BDE8F08100BFB82B002032
:109BC00010B55B4BD3F824218AB0002A58D000226C
:109BD000C3F82421D3F82411049102228DF818200F
:109BE0000499544AD3F88014C3F880149FED4E7B37
:109BF0000991D3F83C45D06882ED067BCDE9070496
:109C0000D2E9001306A89847494BD3F8442152B132
:109C10000021484AC3F84411D3F8440191690390E4
:109C20000398002961D1424BD3F8202162B1002072
:109C3000C3F82001D3F82021029201213D4A029C61
:109C4000D9605169002943D1394BD3F85821AAB1C1
:109C50000020C3F85801D3F85811364A01910199F0
:109C6000516959B1D3F84C458DF81800D2E901314A
:109C70005061CDE9071406A8116898470AB010BDD5
:109C8000D3F810110029BFD0C3F81021D3F8101158
:109C9000284C05910599A169D3F83C058842B3D1B8
:109CA000E169002933D0C4E90612D3F8002222F07A
:109CB0002002C3F80022E2680792012122698DF890
:109CC0001810089063682168E26006A898479BE72F
:109CD000D3F84C458DF81800D2E901315061CDE937
:109CE000071406A811689847AEE79FED0F7BD3F8DD
:109CF0003C45D0684FF0010CCDE9070482ED067BAE
:109D0000D2E900138DF818C006A898478BE7E268DF
:109D1000A1610123CDE907208DF8183006A8D4E908
:109D20000013984770E700BF00000000000000002B
:109D300000200040E82B00202DE9F04307797F4EFA
:109D400007EBC70306EB830387B093F82030002BA3
:109D500040F0B58004460D46006879499046FFF70B
:109D60002BFC002840F0A7802B68591C4FEAC7093C
:109D700019D01F2B4FF001028ABF72494FF0A0414A
:109D800003F01F0302FA03F3C1F808352B681F2BF9
:109D900086BF03F01F036B4A4FF0A04203F5E07348
:109DA000032142F823106B685A1C0BD01F2B86BF6F
:109DB00003F01F03634A4FF0A04203F5E073002154
:109DC00042F823102368AA69C3F824252B7D6A7DF5
:109DD0001A432368C3F86C25D5E900312268C2F81C
:109DE0000C35C2F814152B7D012B73D009EB07023B
:109DF00006EB8203C3F804802B6946F82230B8F1E1
:109E0000000F47D021682B7F0022C1F81021D1F824
:109E10001011019101992168C1F82021D1F8201178
:109E2000029102992168C1F82421D1F824110391EB
:109E300003992168C1F84421D1F84411049104998F
:109E40002168C1F85821D1F858210592059A226855
:109E50003D49C2F80413226842F3073100294FEA52
:109E6000123230DB01F160415B0101F56141DBB28F
:109E700081F80033226842F30733002B4FEA123196
:109E800009DB324D5B09012201F01F0102FA01F1E9
:109E900045F8231022684F4406EB87060121002372
:109EA00086F820100821C2F80015C6E90633736150
:109EB00007B0BDE8F083112007B0BDE8F0830820AB
:109EC00007B0BDE8F083224902F00F025B01DBB26C
:109ED0008B54CFE7AB68591C0BD01F2B86BF03F008
:109EE0001F0318494FF0A04103F5E073002241F829
:109EF0002320EB685A1C1AD01F2B8ABF11494FF040
:109F0000A04103F01F03012202FA03F3C1F8083550
:109F1000EB681F2B88BF03F01F0303F5E0738CBFB2
:109F200008494FF0A041032241F82320EB68226842
:109F3000A968C2F80835C2F8101557E7E82B0020C9
:109F4000C19B0200000300501003420000E100E04A
:109F500014ED00E02DE9F0410579564C05EBC50301
:109F600004EB830301465B68006882B0EE00C3B176
:109F7000514BC0F808330B6843F30732002A4FEA0D
:109F800013330EDB5209DFF838C12032012703F00A
:109F90001F0307FA03F34CF82230BFF34F8FBFF3D0
:109FA0006F8F731904EB83039A69D0F8003223F0A2
:109FB0002003C0F8003242B10023C0F84431D0F889
:109FC00044310093009B012343600023C0F85831C3
:109FD000D0F858310193019B7319012204EB8303DC
:109FE000C2609A69D0F85831002BFBD01AB1D0F872
:109FF0004431002BF6D00023C0F800350B684FF039
:10A00000FF38D3F80CE5D3F814C5D3F80825D3F8F6
:10A010001075C3F80C85C3F814850B68C645C3F8E2
:10A020000885C3F810850CD0BEF11F0F86BF0EF057
:10A030001F0E22494FF0A0410EF5E07E022341F8A9
:10A040002E30BCF1FF3F0CD0BCF11F0F86BF0CF0CF
:10A050001F0C1A494FF0A0410CF5E07C022341F897
:10A060002C30791C0BD01F2F86BF07F01F07134918
:10A070004FF0A04107F5E077022341F82730531C49
:10A080000BD01F2A86BF02F01F020C494FF0A041DF
:10A0900002F5E072022341F82230FFF7B3FA3544AB
:10A0A00004EB8504002384F82030636002B0BDE82F
:10A0B000F08100BFE82B0020100342000003005095
:10A0C00000E100E001F0604CBCF1005F30D170B500
:10A0D00090F804E0264C0EEBCE0C04EB8C0C0346FF
:10A0E000DCF8140082B04FEACE0500283BD1CCF852
:10A0F0001420CCF808101A68C2F82001D2F82021E8
:10A100000192019A1A68C2F85801D2F858210092B7
:10A11000009A1A68DCF81460C2F84415C2F8486561
:10A120001A6801219160DCF804201AB102B070BDF8
:10A13000102070471A6800E0C0B9D2F82011D2F898
:10A1400058010029F8D088B90121D1601B68D3F8E3
:10A150005821002AFBD005EB0E0304EB83030022F9
:10A160005A6102B070BD112002B070BD0F20F2E73D
:10A17000E82B002072DF704773DF704776DF70478F
:10A1800077DF70477ADF70477CDF70477FDF70478B
:10A190008FDF7047B1DF7047FDF770B908B50378FE
:10A1A00003B108BD054B3B211888FFF7E7FF0028E6
:10A1B000F7D0BDE80840FDF761B900BF1A230020C1
:10A1C000202801D0FDF75AB9104B1148C01AC00819
:10A1D000000410B540F003000C460E49FCF722FBCA
:10A1E0000D4B0E491888224601F058FA30F008024B
:10A1F00007D043F20202904203D043F20142904260
:10A2000000D110BDBDE81040FDF738B9D4C8020038
:10A21000FCC80200DCC202001A230020602C0020CF
:10A2200008B502206AB1FEF755FB0948094B0A49F7
:10A23000C01AC0080004BDE8084040F00300FCF765
:10A24000F1BAFEF759FB0248024B0449F0E700BFA0
:10A25000FCC80200D4C80200F8C202000CC302000D
:10A26000FDF70CB910B50388212B82B0044613D832
:10A270000F2B0FD9103B112B0CD8DFE803F028452A
:10A280000B650B0B0B0B0B0B0B0B0B0B0B0B0B1CB3
:10A290003B2B05D002B010BD522B5FD0562BF7D10F
:10A2A000A0881321FFF76AFF0028F3D002B0BDE8B1
:10A2B0001040FDF7E3B800238088ADF8043001A911
:10A2C000FFF766FF0028E5D0FDF7D8F8E2E72D4B51
:10A2D0002D482E49C01AC008000440F00300FCF7C6
:10A2E000A1FA0120FEF7F6FA0020FEF705FB284B45
:10A2F000A1882848198001F0CFF800283ED1FDF749
:10A3000079F80028C6D0D1E71E4B1F482249C01A51
:10A31000C008000440F00300FCF784FA0120FEF7B7
:10A32000EBFA1B4B4FF6FF721A80FDF779F810BB62
:10A330001A4B01211878FFF71FFFC8B9002002B09F
:10A34000BDE81040FEF7C6BA114A002310888521E7
:10A350001A46FFF71BFF00289CD0A7E70C4A0023F2
:10A36000108819461A46FFF715FF002892D09DE77E
:10A37000FDF784F8E2E7FDF781F8D9E7FDF77EF80D
:10A38000BDE700BFD4C80200FCC8020020C3020021
:10A390001A230020782C00202CC302001823002050
:10A3A00010B54FF40041A6B00020FCF7BDF800281E
:10A3B00040F0E880FCF7A8F80120FEF7AFFAFDF7BF
:10A3C000DBFA002840F01181894840F266620121E1
:10A3D000FCF7B4FF002840F00581FEF7DFF8002805
:10A3E00040F0FD8001F07CF9002840F0F58000236A
:10A3F00017A90120179301F053FA002840F0E980D3
:10A4000017A801F00BFB002840F0E08011237948E9
:10A410008DF8203001F0CAFB764982B208A8FFF718
:10A42000B3FE002840F0CF800822002117A801F0D9
:10A43000B5FB714A4FF0C87317A8CDE91723FFF792
:10A44000A1FE002840F0BC806C48002100F00AFF0B
:10A45000002840F0B2806A4B6A481793002217A97F
:10A46000089201F007F8002840F0A480664B674886
:10A47000089308A901F0AAF8002840F09880634BDF
:10A48000634C9B7C8DF8063041F223503C22002126
:10A49000ADF8040008A801F081FB02233C22002152
:10A4A0008DF8203017A840F20163ADF8223001F09A
:10A4B00075FB224601A901231C9108A852F8041B30
:10A4C000ADF86C3000F02EF900286DD1514AA1682A
:10A4D00017A800F027F9002863D11822002102A84C
:10A4E00001F05CFB00230122ADF8143003934FF41C
:10A4F00080738DF80820ADF81C304549464840234C
:10A5000002AA0493FFF736FE002847D11C2200213F
:10A5100017A801F043FB4FF420240023CDE91734A2
:10A520003E493F4AADF86A304FF42034199417A8D9
:10A530000324CDE91C128DF868408DF86C3000F0D2
:10A5400017FC40BB374B38483849C01AC0080004D4
:10A5500040F00300FCF766F92F4B01211878FFF754
:10A560000BFEA8B90020FEF7B5F908220021012052
:10A57000FFF706FE48B9FCF725F80028FBD1FEF7E7
:10A5800023F8F8E7FCF77AFF14E7FCF777FFF2E728
:10A59000FCF774FFE6E7FCF771FFD3E7FCF76EFF0B
:10A5A000B4E7FCF76BFF98E7FCF768FF8EE7FCF772
:10A5B00065FF64E7FCF762FF58E7FCF75FFF4AE7D7
:10A5C000FCF75CFF40E7FCF759FF2DE7FCF756FF6F
:10A5D0001CE7FCF753FF13E7FCF750FF07E7FCF716
:10A5E0004DFFFFE6FCF74AFFF7E6FCF747FFEBE617
:10A5F000002300203CC302005000A0004C2C00208F
:10A6000099A10200782C002021A20200602C0020D9
:10A610000823002014230020182300209DA10200FD
:10A6200061A20200D4C80200FCC802004CC30200B0
:10A630006DDF704779DF70477DDF704764DF7047FB
:10A640002DE9F04F85B099460E9E0388BDF83CA0D9
:10A650000091174632880192002B53D04FF000082A
:10A66000C3464546804605E0B8F800200BF1010BD3
:10A670005A4529DDD8F8041051F82B000390002228
:10A680000DF10B0103A8FFF7D9FF044630BB9DF87D
:10A690000B20BA42E8D12DB33288D119514536DCAE
:10A6A0004A440DF10B0103A80125FFF7C7FF00285D
:10A6B00032D131889DF80B200A443280B8F800204E
:10A6C0000BF1010B5A45D5DCE5B13388019A013B0A
:10A6D0009B1A9BB2FF2B1AD809F80230204605B00E
:10A6E000BDE8F08F3288511C3A440232524589B29B
:10A6F0000DDC009B318009F801303288013292B2C2
:10A700003280CDE70024204605B0BDE8F08F0C2450
:10A71000204605B0BDE8F08F0446204605B0BDE8F0
:10A72000F08F00BF2DE9F04700231788138090F8C1
:10A730002D3086B0144606460D46002B40F0FE80B4
:10A74000B278002A40F0F380F178A1B1DA1CBA4265
:10A7500000F2F0800222EA542388012213449BB2C3
:10A760002380EA54238813449BB22380E95423882E
:10A7700013449BB223807268AAB1D91CB94200F27B
:10A78000D980022192F90020E954238801339BB239
:10A790000A212380E954238801339BB22380EA54A1
:10A7A0002388013323803389002B40F0F180338AE2
:10A7B000002B40F02581338B002B40F03B81336A26
:10A7C000002B42D02088821DBA4200F2B3801A8842
:10A7D000052A40F28A816FF4486802EB080189B2C9
:10A7E0004FF27D3C614540F280815988052940F255
:10A7F0007C816FF4486E8E441FFA8EFEE64540F26F
:10A8000074814FF6FF7C624502D08A4200F26D816E
:10A8100005222A542288013292B212212280A954A0
:10A820002288013292B222801988A9542A44090A46
:10A8300051702288023292B222805B88AB542A4443
:10A840001B0A5370238802332380736A002B2FD096
:10A850009988B4F800C0881C0CF102020244BA4284
:10A8600068D8FE2866D8033105F80C10228801321A
:10A8700092B2FF212280A9542288013292B2228012
:10A880001988A9542A44090A51702088023080B2DC
:10A8900020809A8862B199680393002900F025818D
:10A8A000284401F06DF9039B9A8823881344238080
:10A8B00096F82C30002B40F0D680307800283AD023
:10A8C0003388012B00F0118123889A1CBA4231D8B9
:10A8D000012804D17178023119448F422AD3023FF2
:10A8E000FF1ABFB2A81804A9ADF81070FFF7A4FEB4
:10A8F00008BB3378022B00F000817178BDF810207E
:10A900009142C0F0F6809742C0F0F38017460922CA
:10A91000FE2F0FD82388791CE954238801339BB27A
:10A920002380EA54238801331F44278003E0043343
:10A93000BB4248D90C2006B0BDE8F087082FF9D9F2
:10A9400004A8FFF775FE0028F5D123880822EA54F1
:10A95000238801339BB21B222380EA5420880130D4
:10A9600080B22080062228440DF1110101F008F97F
:10A9700023889DF8102006339BB212F0FE0218BF08
:10A9800001222380EA54238801339BB22380D7E637
:10A9900006F108080222CDE900472B461146404641
:10A9A000FFF74EFE0028C6D1CDE9004740462B46B2
:10A9B00010220621FFF744FE0028BCD1338A002B69
:10A9C0003FF4F9AE1CE004A8FFF734FE0028B2D132
:10A9D00023880322EA54238801339BB2192223805F
:10A9E000EA542388BDF8102001339BB22380EA5437
:10A9F0002B44120A5A70238802339BB22380A3E6A9
:10AA000006F11008CDE900472B46022203214046FB
:10AA1000FFF716FE00288ED1CDE9004740462B46B1
:10AA200010220721FFF70CFE002884D1338B002B66
:10AA30003FF4C5AE06F11808CDE900472B460222C7
:10AA400014214046FFF7FCFD00287FF474AFCDE9E8
:10AA5000004740462B4610221521FFF7F1FD002844
:10AA60003FF4ADAE67E7B16A00293ED04FF0000970
:10AA70004B464FF0160A2BE02388E8542388013315
:10AA80009BB2238005F803A0238801339BB2238067
:10AA900031F82220EA542B44120A5A7020880230DE
:10AAA00080B22080B8F8042028444AB1D8F80810B1
:10AAB000D9B101F065F8B8F8042023881344238045
:10AAC00096F82C205FFA89F39A427FF6F6AEB16AC7
:10AAD00003EB430201EB820809F10109B8F80430E5
:10AAE000D81C0233FE2BC7D924E7072006B0BDE8E7
:10AAF000F087012B08D008220AE7BDF810309F42EA
:10AB0000F9D31F46092203E78F42F4D30F460822E8
:10AB1000FEE600BF75DF704776DF70477ADF70476B
:10AB20007BDF704770B51D4D2B8884B2A34282B085
:10AB300011D11B4E297A327B91420ED3337C0022F5
:10AB40002A72F3B9736933B100228DF80420ADF88D
:10AB5000064001A8984702B070BD05F10A011846E9
:10AB6000FFF7D8FF40B11128F5D0B369002BF2D020
:10AB700002B0BDE8704018472B7A01332B7202B047
:10AB800070BD3B212046FFF7C7FF30F00803D9D046
:10AB9000B369002BD6D09847D4E700BFA02C002083
:10ABA000842C002070B50288122A82B003466DD032
:10ABB00015D8102A30D0112A0FD16A4C82882388E8
:10ABC0009A420AD16068FCF79DFF18B1664B9B69F9
:10ABD00003B198474FF6FF73238002B070BD502A2F
:10ABE000FBD1614DC188EA899142F6D1028A022ADD
:10ABF000F3D15C4C828826889642EED1123000F068
:10AC0000A5F9002800F09880637A002B40F09B8023
:10AC1000D5E90113324667E090F80FC0BCF1010F8F
:10AC2000DBD1504C21884FF6FF7291427DD14F4DC0
:10AC3000828822800021217203CDC4F80A00C4F862
:10AC40000E10598A6089884260D8A08988425DD3F5
:10AC5000E1899B8A40F2F315A94294BF481A481B28
:10AC6000984253D82944994250D33F4D84F809C0A3
:10AC7000EB89002BB1D16B69002BAED001218DF88F
:10AC80000410ADF8062001A89847A6E7354C828845
:10AC900021889142A1D14089658985421FD8A58923
:10ACA00085421CD3E0899B8940F2F31C604594BF28
:10ACB000051AA0EB0C059D4211D8604498420ED3B2
:10ACC000294B5B694FF480722281002B85D00122D1
:10ACD0008DF80420ADF8061001A898477DE7224DB5
:10ACE000002363726968AB68207A002818BF194690
:10ACF0006068FCF7ABFE00283FF46FAFAB69002B38
:10AD00003FF46BAF02B0BDE870401847164DEB89B9
:10AD100000216172002B7FF460AF69686068FCF706
:10AD200095FE00283FF459AFE8E70F4B9B69002BD5
:10AD30003FF453AF0420E5E76068FCF7E3FE00282A
:10AD40003FF44BAFDAE76B6900222272002B3FF42D
:10AD500044AF01228DF80420ADF8066001A89847A1
:10AD60003BE700BFA02C0020842C0020B42C002046
:10AD700070B3F8B586460768164E174D0446BEE810
:10AD80000F00B446ACE80F009EE8070035608CE881
:10AD90000700BFB13846FFF7C1FE90B923681868B5
:10ADA000596803C50D4B0E490E4A18464FF6FF74FD
:10ADB00040F8041F1C800021FCF736FE002818BF55
:10ADC0000320F8BD2846FFF7ABFE0028EAD0F8BD07
:10ADD0000E207047842C0020B42C0020A02C0020D2
:10ADE000BC2C002025AB02002DE9F04F0388B0F801
:10ADF0000490103B99B007460A2B12D8DFE803F005
:10AE00002871111111111111117814004648494689
:10AE1000FCF7F2FE45484946FCF7EEFEFB7B022BB1
:10AE20007CD019B0BDE8F08F037A41483F2B4FEA40
:10AE30001314494665D9FCF7DFFE3E484946FCF746
:10AE4000DBFE3D48494619B0BDE8F04FFCF7D4BEE3
:10AE50003A4A9368DB43009351686846FCF704FF65
:10AE6000009B0193019B9BB34FF000084446214691
:10AE700001A8FCF7D9FE30B118AB03EB480308F189
:10AE8000010823F8284C0134142CF0D1CDF834807B
:10AE90000DAD0FCD02AC0FC40FCD0FC495E8070068
:10AEA00084E80700B8F1000F12D0254E0DF10A0B0F
:10AEB0004FF0000A3BF8025F1C4C20462946043440
:10AEC000FCF7A6FEA642F8D10AF1010AC245F1D16B
:10AED000B9F1130F9AD90420FCF7D0FA19B0BDE8E4
:10AEE000F08F1148494619B0BDE8F04FFCF790BE0D
:10AEF000037A002B95D1437A0D481B074946F2D5BA
:10AF0000A1E7FCF785FE032C97D00A484946FCF7D9
:10AF10007FFE022C95D008484946E4E70948494697
:10AF2000FCF76AFE7DE700BFE42C0020E02C002047
:10AF3000F42C0020F02C0020EC2C0020DC2C002035
:10AF4000582D0020E82C0020AADF7047008800F070
:10AF500001007047F0B58B7891B0012B38BF012309
:10AF60000C468DF80E3005460B88ADF80C301646B1
:10AF700000210322684600F011FE637C0022013BA1
:10AF80008DF80020042B09D8DFE813F0CF00D300A0
:10AF9000D700DB00050022238DF80030A37C0022BF
:10AFA000013B8DF80120042B09D8DFE813F0CE0017
:10AFB000D200D600DA00050022238DF80130E37BB1
:10AFC000217B41EAC301237C41EA03119DF8023051
:10AFD00001F0190123F019031943237D002B14BF3D
:10AFE0000223012363F342018DF802101C22002189
:10AFF00009A800F0D3FD637B13F0300F74D1637B9D
:10B000008DF824301422A37B8DF82530002104A86C
:10B0100000F0C4FDA288A368ADF81C2003AACDF8F7
:10B0200014D004921BB10893E388ADF81830A369DB
:10B03000002B36D001AF03220021384600F0AEFDD0
:10B04000A2691188ADF82C1000238DF804305388C4
:10B05000ADF82E3053680D970A93137B013B042BF8
:10B060002DD8DFE803F0969A9E8A290022238DF8D6
:10B070000530917A137A43EAC103D17A927B002A90
:10B080009DF8062043EA011322F0190203F0190388
:10B0900043EA020314BF0222012262F342038DF845
:10B0A0000630E36903B10C93334604AA09A9284684
:10B0B000FFF74AFF11B0F0BD22238DF80430537B17
:10B0C0000021013B8DF80510042BD2D801A151F8C5
:10B0D00023F000BF83B102008BB102006BB102000C
:10B0E00073B102006DB0020002AF032200213846A6
:10B0F00000F054FDE37C0022013B8DF80920042B75
:10B1000007D8DFE803F0525E5A56030022238DF879
:10B1100009309DF80A300E97012262F342038DF840
:10B120000A3011238DF8083069E711238DF80030BB
:10B1300034E721238DF8003030E731238DF80030DB
:10B140002CE712238DF8003028E711238DF8013009
:10B1500035E721238DF8013031E731238DF80130B7
:10B160002DE712238DF8013029E731238DF80530C2
:10B170007FE712238DF805307BE712238DF804302A
:10B180009DE711238DF8053073E721238DF80530F5
:10B190006FE711238DF8043091E721238DF80430F7
:10B1A0008DE731238DF8043089E711238DF80930BC
:10B1B000AFE712238DF80930ABE731238DF8093062
:10B1C000A7E721238DF80930A3E700BF90DF704780
:10B1D000A5DF7047B5DF704770B5002484B061F318
:10B1E0000F04002361F31F446A4602A90294064635
:10B1F00003930093ADF80430FFF7E8FF044610B95D
:10B20000204604B070BD124B124DED1AED08FDF74B
:10B2100029FA2D0445F0010503460F493246284618
:10B22000FBF7B0FCBDF80020BDF8023052EA030184
:10B2300003D00A492846FBF7A5FCBDF80420002AE4
:10B24000DED028460649FBF7C1FB204604B070BD9E
:10B25000D4C8020014C9020064C30200B0C30200D3
:10B26000F0C3020008B90E2070474FF017120023F8
:10B2700001614FF01B0C41F61B31026080F804C0E5
:10B28000C0F8062043818181184670478288002AD1
:10B290003FD130B50388242B83B00C4611D80F2B37
:10B2A00033D9103B142B30D8DFE803F074992F2FDB
:10B2B0002F2F2F2F2F2F2F2F2F2F2F2F2F2F2FA32A
:10B2C00088003A2B46D0552B1FD1C388C988A2725B
:10B2D000172B38BF17238B4228BF0B4623811046FC
:10B2E000FFF778FF002840F08F80E37A6BB922697E
:10B2F0005AB12189ADF8041040F67720ADF800006E
:10B30000ADF80230694620469047A37A5BB903B096
:10B3100030BD7047112840F09280237B627B012171
:10B320009A42A17245D3E1880020FFF751FF60B334
:10B330001128ECD0FDF796F9484B49490246494897
:10B340001B1ADB081B0443F0010003B0BDE83040CA
:10B35000FBF73CBB4389C98825698B4228BF0B4654
:10B36000172B38BF1723238165B1E17A51B140F61D
:10B370007721ADF80010ADF80220ADF80430694631
:10B380002046A84700236381C1E74FF4807363819F
:10B3900003B030BD0B790B73C27B012A42D0022A65
:10B3A00030D14988E18022898A423ED3627B9A4229
:10B3B000ABD219460020FFF70FFFA6E70B69027A10
:10B3C0004A73002BA1D000204DF67A218DF805009C
:10B3D00000918DF8042069462046984795E74FF084
:10B3E0001711002241F61B33C4F806106281A381B5
:10B3F0008DE7017A237B994228BF19460020FFF789
:10B40000EBFE82E7C988CEE7FDF72CF9134B16490E
:10B41000024614481B1ADB081B0443F00100FBF72B
:10B42000D5FA62E70988E180BDE70020FFF7D0FE8A
:10B4300000287FF46FAF0122237BE272B6E7FDF7AD
:10B4400011F9064B0649024606481B1ADB081B0485
:10B4500043F00100FBF7BAFA237BA7E714C9020007
:10B4600048C40200D4C802007CC40200B0DF7047A8
:10B4700066DF704760B159B10378DE2B0AD00968E6
:10B480004160DE224FF6FF73027043800020704758
:10B490000E2070470820704738B10378DE2B02D1A8
:10B4A000418000207047082070470E20704700BF81
:10B4B000F9B170B5054684B050B10B78DE2B0C465F
:10B4C00006D180884B88984214D02B88012B01D05C
:10B4D00004B070BD2E7A012EFAD16388A8889842F4
:10B4E000F6D126720021FFF7C3FF00284DD120724C
:10B4F000EEE770470B7AEBB92B88112B31D0512B2B
:10B50000E4D1AB79022BE3D1AA7B02F0FD0104293F
:10B510002ED0052ADCD100226946C1E90122009221
:10B52000CA608DF80030FFF7A1FF0028D0D0636813
:10B530009847CDE70021FFF79BFF0346B0B11128E4
:10B5400013D0636898472B88112B06D0512BBDD19F
:10B55000A88863888342D4D0BAE7AA8863889A42CD
:10B56000B6D14FF6FF736380B2E701232372EAE797
:10B5700069460022C1E901220092CA604FF4C072FC
:10B580008DF80030ADF80420CDE7112804D06368B1
:10B5900004B0BDE870401847267299E7A8DF7047ED
:10B5A000AEDF704762DF70470288502A00D07047D4
:10B5B000B0F806C04A889445F9D1028A012AF6D12A
:10B5C0004B69002BF3D0827C8088184730B5324B12
:10B5D0000A68426104460FCB8FB00DF1080C8CE86D
:10B5E0000F0004F112016046FFF7DCFF08B10FB055
:10B5F00030BDA07C8DF8060041F22353224601A9FC
:10B600000120ADF80430FFF7C9FF0028EFD1014653
:10B61000202206A800F0C2FA9DF82530A17C8DF802
:10B620001A10224623F0120343F0120341F2245170
:10B630008DF82530ADF8181001234FF0011532F8C0
:10B640000A0B8DF8293006A98DF82B300795FFF7E6
:10B6500081FC0028CBD10146202206A800F09EFAEA
:10B660009DF82530A07C8DF81A00224641F2255124
:10B6700023F00A0343F00A03ADF8181032F8020B66
:10B68000079506A940F20114ADF829408DF8253040
:10B69000FFF760FC0FB030BDBCC4020070B588B0CD
:10B6A0000D468DF807201022044601260DEB0200FE
:10B6B0000021ADF80E6000F071FA6B89ADF8103022
:10B6C0000DF107020DF10E0304A92046CDE9063263
:10B6D0008DF81260FFF764FF08B070BD10DF70478F
:10B6E00070B53D4D2B7884B0002B67D13B4E3C4963
:10B6F000012302A83370FCF79FFF039B23B90FE0DF
:10B70000FCF7A4FF039B5BB1D3E90031002098470D
:10B71000034602A8002BF3D11C46204604B070BD9E
:10B72000304902A8FCF788FF039B4BB1D3E90031F5
:10B730000020984702A8FCF789FF039B002BF5D156
:10B74000294B00221B68019302A88DF80820FCF702
:10B7500015FA264901A8FFF7C1FFB0FA80F30446A5
:10B760005B099DF808002B70FCF72EFA002CD4D151
:10B770001F4B20491C70347091F81623EC2352099A
:10B780001341DB071ED51C4B9A6802B31A6842F4BA
:10B7900080021A60134902A8FCF74EFF039B002B9E
:10B7A000BBD0D3E900310120984702A8FCF74EFF37
:10B7B000039B002BF5D1204604B070BD0824204621
:10B7C00004B070BD42F20200FBF758FEE2E74FF40E
:10B7D00080030B60DEE700BF592D0020582D0020AC
:10B7E000D8C40200F0C40200D4C402009D74020058
:10B7F0005A2D002000E100E0F02A0020014B1878CB
:10B80000704700BF592D002000B583B00849684635
:10B81000FCF712FF019B43B1D3E900209047684633
:10B82000FCF714FF019B002BF6D103B05DF804FB7D
:10B83000E4C4020060DF704769DF704761DF704772
:10B84000154B1B7833B330B5144D91B034240DF142
:10B85000020103A8ADF80240FFF7F0FF88B92946BE
:10B8600001A8FCF7E9FE029B002BF0D0D3E90031E0
:10B8700003A8984701A8FCF7E9FE029B002BF5D12D
:10B88000E5E7052801D111B030BD11B0BDE8304069
:10B89000FBF7F4BD704700BF5B2D002040C70200DE
:10B8A000002900F0A78030B5544B0B6085B00546E9
:10B8B0000C460C22002101A800F070F9012106239A
:10B8C0008DF8061022688DF8045001A92020ADF8EB
:10B8D0000830FFF7B1FF002843D10C22002101A856
:10B8E00000F05CF901210023ADF8051022688DF805
:10B8F000073001A94020FFF79FFF00286CD10C22E0
:10B90000002101A800F04AF90A2322688DF80430CA
:10B9100001A90120FFF790FF00284FD10C22002140
:10B9200001A800F03BF94FF4B0632268019301A92C
:10B93000A120FFF781FF98BB0C22002101A800F095
:10B940002DF99DF8043022686FF3000301A9A020AF
:10B950008DF80430FFF770FF034680B9184605B034
:10B9600030BDFCF77FFE264B264902462648181AB2
:10B97000C008000440F00100FBF728F8ADE7FCF731
:10B9800071FE1F4B214902461F481B1ADB081B048E
:10B9900043F00100FBF71AF80023184605B030BD4C
:10B9A000FCF760FE164B1A4902461748181AC008E1
:10B9B000000440F00100FBF709F8BDE7FCF752FE78
:10B9C0000F4B144902461048181AC008000440F0F2
:10B9D0000100FAF7FBFFA1E7FCF744FE084B0E4914
:10B9E00002460948181AC008000440F00100FAF79E
:10B9F000EDFF84E70E231846704700BFE0220020C9
:10BA000024C90200FCC40200D4C8020030C60200EF
:10BA1000DCC5020090C5020044C5020070B50446B2
:10BA200082B00668FFF706FF2368B342054606D8D2
:10BA30002DBB1B4B012228461A7002B070BD194B5A
:10BA400019481A49C01AC008000440F002000190C9
:10BA5000FAF7E8FE2368164901983246FBF792F898
:10BA60004FF080532268D3F80C31124901989B02A1
:10BA700003F100539A1AFAF7A9FF002DD9D02846EE
:10BA8000FCF7F0FD084B0C49024606481B1ADB0880
:10BA90001B0443F00100FAF799FF284602B070BD7D
:10BAA0005B2D0020D4C8020024C9020084C6020015
:10BAB000B4C60200E8C6020014C702004BDF70479C
:10BAC00010B5124C84B001A8FFF7F8FFA8B92146C1
:10BAD00002A8FCF7B1FD039B002BF4D0D3E90031A1
