:1000000000000420BD020000E5020000E70200003D
:10001000E9020000EB020000ED0200000000000019
:10002000000000000000000000000000EF020000DF
:10003000F102000000000000F3020000F5020000E1
:10004000F7020000F7020000F7020000F7020000CC
:10005000F7020000F7020000F7020000F7020000BC
:10006000F7020000F7020000F7020000F7020000AC
:10007000F7020000F7020000F7020000F70200009C
:10008000F7020000F7020000F7020000F70200008C
:10009000F7020000F7020000F7020000F70200007C
:1000A000F7020000F7020000F7020000F70200006C
:1000B000F7020000F702000000000000000000004E
:1000C000F7020000F7020000F7020000F70200004C
:1000D000F7020000F7020000F7020000F70200003C
:1000E000F7020000F7020000F70200000000000025
:1000F00000000000F702000000000000F70200000E
:1001000000000000000000000000000000000000EF
:1001100000000000000000000000000000000000DF
:1001200000000000000000000000000000000000CF
:1001300000000000000000000000000000000000BF
:1001400000000000000000000000000000000000AF
:10015000000000000000000000000000000000009F
:10016000000000000000000000000000000000008F
:10017000000000000000000000000000000000007F
:10018000000000000000000000000000000000006F
:10019000000000000000000000000000000000005F
:1001A000000000000000000000000000000000004F
:1001B000000000000000000000000000000000003F
:1001C000000000000000000000000000000000002F
:1001D000000000000000000000000000000000001F
:1001E000000000000000000000000000000000000F
:1001F00000000000000000000000000000000000FF
:1002000010B5054C237833B9044B13B10448AFF350
:1002100000800123237010BD6C000020000000004E
:100220008806000008B5034B1BB103490348AFF330
:10023000008008BD0000000070000020880600005B
:10024000A3F5803A704700BF174B002B08BF134B34
:100250009D46FFF7F5FF00218B460F461348144AD1
:10026000121A00F0EFF90E4B002B00D098470D4BFF
:10027000002B00D098470020002104000D000D48FD
:10028000002802D00C48AFF3008000F0B7F920003E
:10029000290000F031F800F09DF900BF00000800CF
:1002A0000000000000000000000004206C0000209E
:1002B0005801002000000000000000000649074A25
:1002C000074B9B1A03DD043BC858D050FBDC00F001
:1002D0006FF8FFF7B9FF0000B00600000000002033
:1002E0006C000020FEE7FEE7FEE7FEE7FEE7FEE724
:1002F000FEE7FEE7FEE7FEE770B50120094D00F0DE
:100300002DF845F001050026304600F00DF8642474
:100310004FF47A40A847013CFAD10136032EF3D1BD
:10032000F1E700BF700600000A4B185C1F288ABF67
:1003300009494FF0A04100F01F00D1F80435012217
:10034000824022EA03001340C1F80805C1F80C35C9
:10035000704700BF7C06000000030050C10706D4B0
:10036000830742BF114B0C22C3F8002770474FF0A0
:10037000A043032210B44FF40001C3F858274FF4F0
:100380008004C3F85C27C3F860274FF08072C3F87D
:100390000845C3F80815C3F80825820703D5034BA1
:1003A0000C22C3F800275DF8044B7047000300508F
:1003B00010B44FF08053D3F83021082A1CD0774A6C
:1003C000D2F8883043F47003C2F88830BFF34F8FFF
:1003D000BFF36F8F4FF01023D3F80022002AC0F232
:1003E000AC80D3F80432002BC0F2A7806C4B6D4A6E
:1003F0001A605DF8044B70474FF080410020C1F84F
:100400000C01694AC1F81001C1F83805D3F8041489
:10041000C2F82015D3F80814C2F82415D3F80C1428
:10042000C2F82815D3F81014C2F82C15D3F81414F8
:10043000C2F83015D3F81814C2F83415D3F81C14C8
:10044000C2F84015D3F82014C2F84415D3F8241488
:10045000C2F84815D3F82814C2F84C15D3F82C1458
:10046000C2F85015D3F83014C2F85415D3F8341428
:10047000C2F86015D3F83814C2F86415D3F83C14E8
:10048000C2F86815D3F84014C2F86C15D3F83411CB
:10049000D3F84434C2F87035032942D8434B5B5C2F
:1004A0001BB1434B434AC3F88C26434B5B5C73B18F
:1004B0004FF080534149D3F83021FB20C1F8180593
:1004C000082AD3F834117FF47AAF032929D83C4B9A
:1004D0005B5CBBB14FF080524FF08040D2F8583295
:1004E000D0F8E41ED2F8304121F00F0103F00F03E1
:1004F0000B43C0F8E43E082CD2F834117FF45FAF10
:1005000003290ED82F4B5B5C5BB14FF080532E4A12
:10051000D3F830314FF40071082BC2F840167FF445
:100520004EAF4FF08043D3F80024D2077FF547AF9A
:100530006FF00102C3F8002441E7244A0123C2F806
:100540000435D2F80034002BFBD04FF010231221D9
:100550001E4AC3F80012D2F80034002BFBD04FF033
:1005600010231221194AC3F80412D2F80034002BC8
:10057000FBD000231549C2F80435D1F80034002B14
:10058000FBD0BFF34F8F0549114BCA6802F4E062FC
:100590001343CB60BFF34F8F00BFFDE700ED00E0DA
:1005A000000000200090D00300C000408006000042
:1005B00000500040488103008006000000F0004029
:1005C00080060000800600000090024000E001402C
:1005D0000400FA0508B5074B044613B10021AFF338
:1005E0000080054B1868836A03B19847204600F0E5
:1005F00031F800BF000000008406000070B50D4D0A
:100600000D4C641BA4100026A64209D10B4D0C4CC6
:1006100000F022F8641BA4100026A64205D170BD8C
:1006200055F8043B98470136EEE755F8043B9847E8
:100630000136F2E76400002064000020640000201E
:100640006800002002440346934200D1704703F83B
:10065000011BF9E7FEE700BFF8B500BFF8BC08BC16
:100660009E467047F8B500BFF8BC08BC9E46704770
:100670000338FDD87047000061707000161718002D
:0C06800001000000040000200000000049
:08068C007806000000000303E2
:100694008800002050010020580100209000002014
:0406A400180000003A
:0806A80098FBFF7F0100000038
:1006B0000090D003000000000000000000000000D7
:1006C000000000000000000000000000000000002A
:1006D000000000000000000000000000000000001A
:1006E000000000000000000000000000000000000A
:1006F00000000000000000000000000000000000FA
:1007000000000000000000000000000000000000E9
:0C071000000000002502000001020000B3
:04000003000002BD3A
:00000001FF
