:1000000000000420BD020000E5020000E70200003D
:10001000E9020000EB020000ED0200000000000019
:10002000000000000000000000000000EF020000DF
:10003000F102000000000000F3020000F5020000E1
:10004000F7020000F7020000C91C0000291D000093
:10005000F7020000F7020000B9170000F7020000E5
:10006000F7020000F7020000F7020000F7020000AC
:10007000F7020000F7020000F7020000F70200009C
:10008000F7020000F90C0000F7020000F702000080
:10009000F7020000F7020000F7020000F70200007C
:1000A000F7020000F7020000F7020000F70200006C
:1000B000F7020000F702000000000000000000004E
:1000C000F7020000F7020000F7020000F70200004C
:1000D000F7020000F7020000F70200000000000035
:1000E0000000000000000000000000000000000010
:1000F0000000000000000000000000000000000000
:1001000000000000000000000000000000000000EF
:1001100000000000000000000000000000000000DF
:1001200000000000000000000000000000000000CF
:1001300000000000000000000000000000000000BF
:1001400000000000000000000000000000000000AF
:10015000000000000000000000000000000000009F
:10016000000000000000000000000000000000008F
:10017000000000000000000000000000000000007F
:10018000000000000000000000000000000000006F
:10019000000000000000000000000000000000005F
:1001A000000000000000000000000000000000004F
:1001B000000000000000000000000000000000003F
:1001C000000000000000000000000000000000002F
:1001D000000000000000000000000000000000001F
:1001E000000000000000000000000000000000000F
:1001F00000000000000000000000000000000000FF
:1002000010B5054C237833B9044B13B10448AFF350
:1002100000800123237010BD880000200000000032
:10022000B42E000008B5034B1BB103490348AFF3DC
:10023000008008BD000000008C000020B42E0000EB
:10024000A3F5803A704700BF174B002B08BF134B34
:100250009D46FFF7F5FF00218B460F461348144AD1
:10026000121A02F0A3FC0E4B002B00D098470D4B46
:10027000002B00D098470020002104000D000D48FD
:10028000002802D00C48AFF3008002F05DFC200093
:10029000290000F031F802F043FC00BF0000080024
:1002A0000000000000000000000004208800002082
:1002B000EC06002000000000000000000649074A8C
:1002C000074B9B1A03DD043BC858D050FBDC02F0FF
:1002D00015FBFFF7B9FF00002C2F000000000020E5
:1002E00088000020FEE7FEE7FEE7FEE7FEE7FEE708
:1002F000FEE7FEE7FEE7FEE770B50120094D00F0DE
:1003000079FC45F001050026304600F059FC4FF419
:10031000FA744FF47A40A847013CFAD10136032E13
:10032000F2D1F0E7F02B0000F0B595B008460024BC
:100330000E4617461D4601F037F91A9A0D922346CC
:10034000082205A93046CDE9095408978DF82C40BC
:100350000C9401F08DF9DDE906219DF814308DF83B
:100360001140CDE9021203F00302012A28D0022A2B
:1003700004D0304601F01CF915B0F0BDBDF81650A0
:10038000C3F3C203C5F389158DF810300827082D73
:100390002C4628BF08243B4622460EA9304601F0D1
:1003A00067F92D1B08AB02AA21460EA8274400F0CE
:1003B00085FB002DEBD1304601F0FAF815B0F0BD09
:1003C000BDF814100598C1F38312C3F3C203C0F340
:1003D0009525C1F383148DF810300EA93046920094
:1003E000082301F045F908AB0093224602AB0EA9A1
:1003F000284600F0EDFA304601F0DAF815B0F0BD0D
:10040000704700BF00B583B0044B0093044A4023FB
:10041000FFF78AFF03B05DF804FB00BF250400006E
:10042000A800002038B50F480F4D03780F4CEB5C47
:100430004FF0000C84F800C0D2B253B1043002F087
:1004400005FA58B90A4B1B7813B12378002BFCD05E
:1004500038BD0C3001F00CFF0028F3D000F0F4FBA5
:10046000F0E700BF00000020FC050020E8000020AD
:10047000A400002010B51548154A0378D35C88B055
:10048000C3B1043002F02AF9124C0FCCEC46ACE8B0
:100490000F0094E80F008CE80F0006230B48009330
:1004A0000022694601F04CF940B90B4B00221A704A
:1004B00008B010BD0C3001F055FEE5E700F0C4FBBC
:1004C000054B00221A7008B010BD00BF00000020CC
:1004D000FC050020F82B0000A400002070B5304D72
:1004E00084B005F5836000F033FC05F2144000F0A1
:1004F0002FFCAB68DAB2D11C05EB810015F8211096
:100500004C0710D501F00404017801F00301012922
:1005100038D0022903F1020602F1030126D005EBCF
:100520008100002CF0D105EB82015A1CC8680190B3
:10053000D2B205EB820200F003010129D66803F173
:10054000020425D002290FD1BDF80630C3F3891368
:100550000333360C04EB9304124800F005FC00B1A1
:10056000AC60304604B070BD0026F5E7438806EB6A
:100570009313DAB2D11C05EB810015F8211001F0BC
:100580000404CEE702880233C2F383121344F0E777
:10059000BDF80430C3F38313360C1C44DCE700BF02
:1005A000BC010020D005002030B499B10D490E4D9A
:1005B000491BC90813D00D4C002302E001339942B6
:1005C0000AD034F823208242F8D1184655F830007A
:1005D00030BC7047044DF9E7002030BC7047084636
:1005E000F6E700BF002F0000B82E000088000020B2
:1005F000094B013903EBC00003290BD8DFE801F0F8
:1006000004020806042070470220704740797047B2
:100610000079704700207047B82E00002DE9F043A4
:100620008E4CD4E901239A4285B060D00023C4F8EF
:100630001834BFF34F8FA568EAB2D31C04EB8301D3
:1006400014F82330580718D566680B7803F00303B5
:10065000012B42D0022B03D14B88023505EB9315B9
:10066000EAB2D4F81804D31C04EB830128B9AE42D3
:1006700039D914F823305B07E7D404EB82026B1CF2
:10068000DBB2D26804EB830302F00301DB680229CA
:10069000CDE9012305F102062DD0012900F08D805E
:1006A000D4F810543DB12B6828469B689847EB68F6
:1006B0001D68002DF7D16A486A4B6B49C01AC00803
:1006C000000440F0020000F0D5F8D4E90130C01A6F
:1006D00018BF012005B0BDE8F0830B880235C3F3D5
:1006E00083131D44BCE7A66005B0BDE8F08300207D
:1006F00005B0BDE8F083BDF806305C48C3F3891847
:100700004546502D28BF502505F1080165F38F138C
:10071000C1F30901ADF8063000F0FCFE07460028E1
:10072000BED000F041FF0023082201A9384600F0A6
:100730006BFFF343DBB20133B5EB830F4FEA830268
:1007400079D9F1B25FFA82F9033104EB81013846BD
:100750000823A5EB090500F057FFEDB209F10803E6
:10076000434903F0FC032A46384600F04DFF08F1E8
:10077000030806EB9806D4F81834002B69D1D4F896
:10078000105465B1EB685A7928463946002A5CD086
:100790002B681B689847EB681D68002DF2D138461E
:1007A00000F006FF002000F095FAD4F8183403B9E1
:1007B000A660002000F096FA87E7BDF804202B48D9
:1007C000C2F38313062B28BF062363F38912023377
:1007D00003F00F018900ADF8042000F09BFE0746EE
:1007E00000283FF45DAF00F0DFFE0023082201A9DE
:1007F000384600F009FFBDF8043013F4707FBAD01A
:100800006FF001094FF00808A9EB0509F1B20331B7
:100810004346042204EB8101384600F0F5FEBDF8A2
:1008200004300136C3F3831309EB0602934208F147
:100830000408EBD89FE7F1B203312A4604EB8101AB
:100840000823384600F0E0FE91E71D68002D99D19D
:10085000A5E7384600F0ACFE37E700BFBC0100203A
:10086000E02E0000B82E0000382C0000102F0000F1
:10087000C80100202DE9F041284C0646002088469A
:1008800000F028FAD4E9017303F58073DB1B012B18
:1008900042D804F21C450121284600F041FAFFF736
:1008A0001DFE0146284600F03BFAD4E9012303F57A
:1008B00080739B1A012BEED9D3B203330232052188
:1008C000002044F82310626000F00CFA0021144864
:1008D00000F01CFA80F310037A1CF10001F03801DB
:1008E000D2B2FFB21B0441F0010104EB82020337D4
:1008F00043EA164341EA8821D36044F8271023785D
:100900000BB9BDE8F081FFF789FE0028F9D0FFF7A9
:1009100085FE0028F7D1F4E73A46CDE7BC01002078
:10092000D805002038B5084BD3F8104401251D70B8
:100930004CB1E3685D71236820465B689847E368C3
:100940001C68002CF5D138BDBC01002030B5C3882F
:1009500085B004460D4623BB237A052B1FD0627A4F
:1009600082B9144AA08852F8232003920021FFF78D
:100970001BFE039A10490346284605B0BDE83040E7
:1009800000F046BA1946A088FFF732FE0B4B0C491F
:1009900053F82020284600F03BFA237AE1E705B01F
:1009A00030BD08490091084A0849284600F030FA4D
:1009B000D2E700BF1C2D00007C2C0000F82C0000AA
:1009C000782C0000702C0000502C0000582C0000E7
:1009D0002DE9F04385B01D460C9C002394F80C9043
:1009E000237380460E46174621462846FFF7AEFF82
:1009F000062F09D8DFE807F0042E343B444F1F00D0
:100A00004146204600F004FA2B7A052B05D06B7A7C
:100A10005BB92749204600F0FBF9204600F0ECF9CD
:100A200084F80C9005B0BDE8F083224A22492046A4
:100A300000F0EEF9EDE77369039333690293F3680D
:100A40000193B3680093D6E900234146204600F0A5
:100A5000DFF9D9E732684146204600F0D9F9D3E7FB
:100A6000D6E900234146204600F0D2F9CCE7B3682E
:100A70000093D6E900234146204600F0C9F9C3E7B8
:100A8000F3680193B3680093D6E9002341462046FA
:100A900000F0BEF9B8E733690293F3680193B368D5
:100AA0000093D6E900234146204600F0B1F9ABE7B8
:100AB000882C0000702C0000782C0000082900D938
:100AC00070472DE9F04F1D4683B000241B7B2C732B
:100AD0000E4607462946104690460193DFF8D0B0EF
:100AE000DFF8D0A0FFF732FF05E03A5D013400F0F7
:100AF0008FF9082C09D0A64251462846F5D8594608
:100B0000013400F085F9082CF5D12449DFF8A8B0AC
:100B1000234CDFF8A8A0284600F07AF94FF000092E
:100B200017E017F80910481C7E294FF02E02C0B2BA
:100B300006D810F80A2012F0970F14BF0A462E228A
:100B40002146284609F1010900F062F9B9F1080FC0
:100B50000AD04E45E5D85946284609F1010900F06A
:100B600057F9B9F1080FF4D198F80830052B02D0E5
:100B700098F809305BB90B49284600F049F9284636
:100B800000F03AF9019B2B7303B0BDE8F08F064AE1
:100B90000649284600F03CF9EDE700BF982C00001C
:100BA0009C2C0000882C0000702C0000782C000089
:100BB000942C00008C2C0000842C0000AC2D000034
:100BC0000A4B185C1F288ABF09494FF0A04100F06A
:100BD0001F00D1F804350122824022EA03001340AD
:100BE000C1F80805C1F80C35704700BF302D000072
:100BF00000030050C10706D4830742BF114B0C22EB
:100C0000C3F8002770474FF0A043032210B44FF4FD
:100C10000001C3F858274FF48004C3F85C27C3F8D9
:100C200060274FF08072C3F80845C3F80815C3F871
:100C30000825820703D5034B0C22C3F800275DF873
:100C4000044B70470003005000B585B003460021F7
:100C500001AA44F20100CDE90111039300F004F868
:100C600005B05DF804FB00BF10B572B6FFF75AFE81
:100C7000FFF7D4FC0028FBD1104B114C1149E41AAA
:100C8000E408240444F00100FFF7F4FD0E4BD3F810
:100C9000F030DB0700D500BE0C4944F00200FFF73E
:100CA000E9FDBFF34F8F0849094BCA6802F4E062BF
:100CB0001343CB60BFF34F8F00BFFDE7B82E00009A
:100CC000E02E0000402D000000ED00E04C2D000063
:100CD0000400FA0572B6024A1368013313607047C4
:100CE000DC050020034A1368013B136003B962B6B8
:100CF000704700BFDC050020024A034B10681B68E8
:100D0000184700BFE0050020E8050020034653E82F
:100D1000000F0A4643E8002C9CF0000FF7D1704703
:100D2000034653E8002F02EB010043E8000C9CF05F
:100D3000000FF6D1704700BF034653E8002FA2EB27
:100D4000010043E8000C9CF0000FF6D1704700BF93
:100D50000346012253E8001F41EA020043E8000C69
:100D60009CF0000FF6D170470346002253E8000FB5
:100D700000EA020143E8001C9CF0000FF6D1704726
:100D800038B504460020FFF7A5FFD4E900311A6802
:100D90008A4215D9511E19602168A36812F8012CE6
:100DA000208A0D68E4685B1B00FB02440A79DBB211
:100DB0009A4200D20B710020FFF794FF204638BD05
:100DC00000240020FFF78EFF204638BD38B50546C9
:100DD00000200C46FFF77EFF2A681368591C11603B
:100DE000E9682A8A641AB4FBF2F41C70BDE8384042
:100DF0000020FFF777BF00BF826842B110B50446FC
:100E000043690168006998470023A36010BD7047DB
:100E10000EB400B582B0039921B104AB01AA0193CD
:100E200000F0B6F802B05DF804EB03B0704700BF05
:100E30002DE9F04F154683B0A942DDF830900D9AA8
:100E40000F4606469A46C0F09E800B464FF00108BA
:100E5000B3FBF5F39D4208F10108F9D9D04538BF3D
:100E6000D04612F00103019302D1B9F1000F67D10E
:100E7000B268BAF1010F4FF0010406D90AF1FF3A46
:100E8000BAF1010F05FB04F4F8D8B7FBF4F39D4267
:100E900005D805FB04F4B7FBF4F39D42F9D9DFF85C
:100EA000ECA007E0AC42B4FBF5F31AD3B2681C46E1
:100EB000B7FBF3F31AF803B0BBF10A0F04FB137787
:100EC00028D03368511CB16003F802B0D6E9013272
:100ED0009A42E7D33046FFF78FFFB4FBF5F3AC42FD
:100EE000E4D2019B9BB1B9F1000F10D02024C8457A
:100EF00009F1FF390BD2B3683268591CB160D45480
:100F0000D6E901329A4214D2B9F1000FEFD103B001
:100F1000BDE8F08F511C3368B1604FF00D0199545A
:100F2000D6E901329A42CCD33046FFF765FFB2686A
:100F3000C7E73046FFF760FFB9F1000FD7D1E6E70A
:100F400093071AD42024B268C84502F1010190D257
:100F50003368B1609C54D6E901329A4209F1FF39F5
:100F600003D2B9F1000FEFD183E73046FFF744FF1A
:100F7000B268B9F1000FE7D17BE7BAF1000F0CBFFF
:100F800030242024DFE74FF0010867E7682D0000D8
:100F9000002900F05C822DE9F04FDFF870950D78A4
:100FA00085B0064690460C464FF00D0A0FE00A2D1C
:100FB000B36800F08E803268591CB160D554D6E910
:100FC00001329A4280F081802578002D69D0013469
:100FD000002D66D0252DEAD10027234614F8012BD9
:100FE0002D2A6CD0302A6DD02B2A61D02A2A7FD0AE
:100FF000A2F1300109294FF000050BD805EB85055A
:1010000002EB450513F8012FA2F130010929A5F1E2
:101010003005F3D92E2A1C4675D0002301E014F8C0
:10102000012F02F0FB016829F9D0252A00F0868102
:10103000583AD1B2202930D8202A2ED8DFE812F031
:1010400021002D002D002D002D002D002D002D0044
:101050002D002D002D00FE0079002D002D002D000B
:101060002D0079002D002D002D002D002D002D00CC
:10107000BD002D002D001A012D0016012D002D00A0
:101080002100D8F800101022081DC8F800000968D7
:101090003046CDE90057FFF7CBFE01342578002D0F
:1010A00095D1337B002B40F0438105B0BDE8F08F34
:1010B000234614F8012B2D2A47F0040792D147F05C
:1010C00001078AE747F0020787E73046FFF794FEFB
:1010D0007AE73268591CB16002F803A0D6E901230F
:1010E0009342FFF468AF3046FFF786FEB36862E7CD
:1010F000D8F80020111DC8F8001015685A782E2A5B
:1011000003F1010489D16278A2F13003092B04F1C3
:1011100001044FF0000384D803EB830302EB430385
:1011200014F8012FA2F130010929A3F13003F3D9FA
:1011300077E7D8F80020111DC8F80010D2F800B0E9
:101140008BEAEB72A2EBEB72092A40F3DB81DFF84A
:10115000C0C3012011466329ACFB02E200F101008B
:101160004FEAD202F6DC9842024638BF1A46029293
:10117000002D00F01E81BBF1000FC0F22E817A0716
:1011800000F12B81B80740F12A81002B40F0278124
:10119000BBF1000FC0F27D817A0700F18D8107F06D
:1011A0000302022A00F05D81CDE9005759460A2268
:1011B0003046FFF73DFE013470E7D8F800301A1DC5
:1011C000C8F800201F68B3683268581C3021B0602E
:1011D000D154D6E90123934280F0FA80591C326839
:1011E000B1607821D154D6E901329A4280F0EB8087
:1011F0000F2F03D93B461B090F2BFCD84FF080550E
:1012000006E00F2D4FEA15137FF647AFB2681D4673
:10121000B7FBF5F319F803B0BBF10A0F05FB137721
:1012200077D03368511CB16003F802B0D6E90132BF
:101230009A42E6D33046FFF7DFFDE2E7D8F8003008
:101240001A1DC8F800201D78B3680A2D00F03A81F5
:101250003268591CB160D554D6E901329A42FFF484
:101260001CAF3046FFF7C8FD013417E7D8F800106F
:101270000A2209E7D8F800301A1DC8F8002017F034
:101280000107D3F800B064D1BBF1000F03D058467A
:1012900001F094FC0746BD4215D9202201E0BD4271
:1012A00011D0B1683368481CB0605A54D6E9013097
:1012B000984205F1FF35F2D33046FFF79DFDBD4260
:1012C0004FF02002EDD19BF80050002D3FF4E5AE29
:1012D0000A2DB0680FD03368421CB2601D54D6E9A5
:1012E0000130984280F0B4801BF8015F002D3FF47C
:1012F000D4AE0A2DEFD13368421CB26003F800A0CF
:10130000D6E901309842E6D33046FFF775FDB06864
:10131000E1E73368511CB16003F802A0D6E901325D
:101320009A42FFF47EAF3046FFF766FDB26878E779
:10133000304605B0BDE8F04FFFF75EBDB3683168D9
:10134000581CB060CA54D6E901329A4289D201349D
:10135000A4E69BF80030002B00F0D680B0685F4612
:10136000CBF101020A2B02EB070B5ED0411CB160EE
:1013700031680B54D6E90130984248D217F8013F42
:10138000002BEFD15D457FF688AE202702E05D455A
:101390003FF483AEB2683368511CB1609F54D6E904
:1013A00001329A4205F1FF35F1D33046FFF724FDB3
:1013B000EDE7B80705D5002B3FF4EAAEF9073FF596
:1013C000E7AE0025E4E63046FFF716FDB2680FE70A
:1013D0003046FFF711FDB36800E7013DD2E6F9079B
:1013E0003FF5D6AE002DECD020220299A942BFF4E1
:1013F000CFAEB168481CB06030684254D6E90101F4
:10140000814205F1FF356CD2002DEED1D9E730468F
:101410000292FFF7F1FC17F8013F002BB2D0029ABD
:10142000B0680A2B02EB070BA0D1411CB1603168F8
:1014300001F800A0D6E90110884297D33046CDE9E3
:101440000232FFF7D9FCDDE90232B0688EE770475F
:101450003046FFF7D1FC1BF8015F002D7FF438AF59
:101460001BE6002B7FF4A0AE8DB1302202998D4295
:101470007FF69AAEB168481CB06030684254D6E935
:101480000101814205F1FF3535D2002DEED1002555
:101490008AE6B1683268481CB060CBF1000B2D20A1
:1014A0005054D6E901219142FFF479AE30460393BE
:1014B000FFF7A2FC039B72E6B1683268481CB0607B
:1014C0002B20EDE73268591CB16002F803A0D6E981
:1014D00001239342FFF4BCAE3046FFF78DFCB368A6
:1014E000B6E630460393FFF787FC039B2022002DCE
:1014F0007FF47BAF65E730460393FFF77DFC039BEA
:101500003022C2E701202EE69B463BE7682D000013
:10151000CDCCCCCC2DE9F041058A0331043D4E19E8
:101520008046B6FBF5F6FFF72BFCA0B3F6B24FF4FE
:101530008073013E04468380C580C0F800802BD0B4
:101540000346002508E06279AE4202F101026271B1
:101550003860C0F800801FD040461F46FFF710FCDF
:10156000013503460028EED16779791E17D022464F
:10157000013399421268FBD1D2F800805FB126682E
:10158000002501E034463668214640460135FFF724
:101590001DFCAF42F6D800242046BDE8F08120684B
:1015A0002146FFF713FCF6E701210430FFF7B8BB33
:1015B0002DE9F041012104460430FFF7BDFB10F096
:1015C000FF0301D0BDE8F0816779791E16D022466D
:1015D000013399421268FBD1D2F80080002FF1D07C
:1015E0002668002501E0344636682146404601352C
:1015F000FFF7ECFBAF42F6D8BDE8F081206821464A
:10160000BDE8F041FFF7E2BB2DE9F8438846C78803
:10161000417907FB01F1043902EB030C1E1D614502
:10162000154638BFCD1AB7420446B6FBF7F207FBA2
:10163000126002D8013A2468FCD13E1AAE4228BF9B
:101640002E469DB14FF000090430AD1B324608EB29
:101650000901204401F09CFAAF42B14424683E469F
:101660004FF0000028BF2E46002DEDD1BDE8F883D5
:101670002DE9F8430446C788407907FB00F0043899
:1016800002EB030C1E1D6045154638BFC51AB74254
:101690008846B6FBF7F107FB116202D801392468CE
:1016A000FCD1BE1AAE4228BF2E469DB14FF00009B4
:1016B000111DAD1B3246214408EB090001F068FA08
:1016C000AF42B14424683E464FF0000228BF2E4688
:1016D000002DEDD1BDE8F88330B50A4B0A4C53F824
:1016E000213054F82110027885B0D0E901548DF8EA
:1016F0000020C26801958DF808400392684698471B
:1017000005B030BDF4050020EC05002030B50A4BD3
:101710000A4C53F8213054F82110027885B0D0E9F2
:1017200001548DF80020C26801958DF8084003929D
:101730006846984705B030BDF4050020EC05002050
:10174000F0B5184B067843F82620174B0446487F1F
:1017500098551546154A8E46096942F82610227892
:101760009F5CBEE80F0089B0EC46ACE80F009EE835
:101770000F008CE80F0004964FB1002D0C4A69460B
:1017800008BF2A46201D00F09BFE09B0F0BD002DC9
:10179000084A694608BF2A4604F10C0000F0ECFB39
:1017A00009B0F0BDF4050020FC050020EC05002088
:1017B000D91600000D1700002DE9F047002384B072
:1017C000CDE902331C4AD2F80011012900F0308221
:1017D0001E46194BD3F80421012A00F01A82164B39
:1017E000D3F80821012A00F00582134BD3F80C210D
:1017F000012A00F0F081104BD3F81021012A00F0EB
:10180000DB810D4BD3F81421012A00F0C1810A4B72
:10181000D3F81821012A00F0AC81074BD3F81C2122
:10182000012A0BD0044BD3F87C21012A00F021823D
:1018300056BB04B0BDE8F08700600040D3F8042335
:101840001206EFD50022C3F81C21D3F81C11009119
:10185000D3F87C110098012946F0800614D1C3F812
:101860007C21D3F87C3101934FF0A042019BD2F848
:101870002015CF4B0291C2F82015D3F820250392F2
:10188000C3F8202546F00046CA4F00240125A300D6
:1018900003F18043354203F5C0434FEA45050BD0C1
:1018A000D3F8100557F82420D3F81015C0F30520FD
:1018B000C1F3014102B190470134082CE7D1002E59
:1018C000B7DABC4CBA4E01254FF0A04794F960003E
:1018D000431C48D0C0F3C20202F110030DEB030217
:1018E00000F0070312F8082C05FA03F31A42C1B2FC
:1018F00000F03F0037D01F2800F22B8102464FF046
:10190000A04909EB820305FA02F2D3F800C7D3F825
:1019100000E72EF4403EC3F800E704EB000ECCF3E2
:10192000014C9EF930E0D3F800A754F82E80BCF1AA
:10193000020F0CBF4FF4403E4FF4003E4EEA0A0E39
:10194000C3F800E7C9F82025B8F1000F0BD08909CA
:10195000032900F08281BCF1020F00F07B81BCF111
:10196000030F00F0A68194F96100411C48D0C0F338
:10197000C20202F110030DEB030200F0070312F89C
:10198000082C05FA03F31A42C1B200F03F0037D029
:101990001F2800F2E28002464FF0A04909EB8203C3
:1019A00005FA02F2D3F800C7D3F800E72EF4403E60
:1019B000C3F800E704EB000ECCF3014C9EF930E0D5
:1019C000D3F800A754F82E80BCF1020F0CBF4FF4DF
:1019D000403E4FF4003E4EEA0A0EC3F800E7C9F855
:1019E0002025B8F1000F0BD08909032900F03A81B6
:1019F000BCF1020F00F03381BCF1030F00F05D81F8
:101A000094F96200421C48D0C0F3C20202F11003F4
:101A10000DEB030200F0070312F8082C05FA03F39C
:101A20001A42C1B200F03F0037D01F2800F299805F
:101A300002464FF0A04909EB820305FA02F2D3F8FF
:101A400000C7D3F800E72EF4403EC3F800E704EBEC
:101A5000000ECCF3014C9EF930E0D3F800A754F807
:101A60002E80BCF1020F0CBF4FF4403E4FF4003EFD
:101A70004EEA0A0EC3F800E7C9F82025B8F1000FB6
:101A80000BD08909032900F0F280BCF1020F00F0AD
:101A9000EB80BCF1030F00F0088194F96300431C54
:101AA00047D0C0F3C20202F110030DEB030200F0B5
:101AB000070312F8082C05FA03F31A42C1B200F02A
:101AC0003F0036D01F2850D802464FF0A04909EBFE
:101AD000820305FA02F2D3F800C7D3F800E72EF428
:101AE000403EC3F800E704EB000ECCF3014C9EF936
:101AF00030E0D3F800A754F82E80BCF1020F0CBFE1
:101B00004FF4403E4FF4003E4EEA0A0EC3F800E7A1
:101B1000C9F82025B8F1000F0BD08909032900F07E
:101B20009780BCF1020F00F09080BCF1030F00F031
:101B3000B880D7F820250292C7F82025D6F820359E
:101B40000393C6F8203513437FF4C0AE04B0BDE85C
:101B5000F08701F01F02B146D3E601F01F02B14643
:101B60001CE701F01F02B14665E701F01F02B14614
:101B7000ADE7D3F8042351067FF54FAE0022C3F83A
:101B80001821D3F818310093009B46F0400644E634
:101B9000D3F8042390067FF53AAE0022C3F814214F
:101BA000D3F814310093009B46F020062FE600BFC7
:101BB0000003005000060020D3F80423D4067FF56C
:101BC00020AE0022C3F81021D3F810310093009BFF
:101BD00046F0100615E6D3F8042315077FF50BAE83
:101BE0000022C3F80C21D3F80C310093009B46F07F
:101BF000080600E6D3F8042357077FF5F6AD002268
:101C0000C3F80821D3F808310093009B46F004067E
:101C1000EBE5D3F8042392077FF5E1AD0022C3F88A
:101C20000421D3F804310093009B46F00206D6E568
:101C3000D2F8046316F001063FF4CBADC2F80031D0
:101C4000D2F800310093009BC3E501297FF471AF06
:101C5000C0476EE701297FF486AEC04783E60129BD
:101C60007FF4CEAEC047CBE601297FF416AFC04764
:101C700013E70022C3F87C21D3F87C3101934FF0A5
:101C8000A042019BD2F820150E4B0291C2F82015FC
:101C9000D3F820250392C3F82025002E3FF411AE7F
:101CA000F0E502297FF445AFD2E702297FF4F5AED3
:101CB000DDE702297FF457AECFE702297FF4A0AE1B
:101CC000D0E700BF00030050014B1B68184700BF5E
:101CD0006C06002038B50C4B984213D100200D46FD
:101CE000FEF7F8FF094B1C7924B10020FEF7FAFF3C
:101CF000112038BD012220461D601A71FEF7F2FF47
:101D0000204638BD002038BD002000406C06002071
:101D1000034B984203D1034B00221A601A7170479B
:101D2000002000406C0600201B4BD3F8182102B99C
:101D3000704710B40021194AC3F81811D3F81811CC
:101D4000D37F83B0FF2B019101990DD0917FB1B169
:101D50001F2B8ABF12484FF0A04003F01F03012140
:101D600001FA03F3C0F80C35D2E9004100230D4815
:101D700053771372234603B05DF8044B18471F2BAB
:101D80008ABF07484FF0A04003F01F03012101FA6A
:101D900003F3C0F80835E7E7003000407406002080
:101DA000000300507C06002010B5714AD2F80433BD
:101DB00099058AB068D5D2F82431002B64D000236D
:101DC000C2F82431D2F8243101934FF40171694BE8
:101DD0000198C2F8081393F8291009B9012151603C
:101DE000634902228DF81820D1F88024C1F880249C
:101DF0009FED5D7B9969D868CDE9081283ED067B7C
:101E0000D3E90012079006A89047594AD2F81C312E
:101E1000C3B1584B5869196A88426AD993F8281097
:101E200001F0FF00002964D1C2F81C01D2F81C1196
:101E3000039103999C68186A196A205C0131196240
:101E4000C2F81C054A4AD2F84431DBB10021494BA3
:101E5000C2F84411D2F8440193F829100090009878
:101E600009B1012111609A6962B1D8685C6A0021E8
:101E70000122CDE9070499618DF8182006A8D3E95D
:101E8000001290470AB010BD394AD2F804335B07FC
:101E9000BBD5D2F80831002BB7D0364B9969002951
:101EA0003ED00021C2F80811D2F80811049104991B
:101EB000D868596AD2F8182542545A6A9969013289
:101EC0005A625A6A8A42A0D1DA69002A31D09A61EC
:101ED0001A69D8685C6ADA60002101220894D96125
:101EE000596207905C6819688DF8182006A8A04709
:101EF0008BE71F4A0020C2F81C01D2F81C21029275
:101F0000029A5A69002A9DD0D3E901215C698DF8B3
:101F10001800CDE907145861196806A8904791E7A1
:101F2000C2F80811D2F8080105900598D2F81825D2
:101F3000C7E793F8292012B90D4A012151600C4AD4
:101F40004FF40171C2F80813D8685C6A00210122BD
:101F500099618DF81820D3E90012CDE9070406A88D
:101F6000904752E7AFF3008000000000000000003F
:101F700000200040980600202DE9F041734E90F8B3
:101F800004802C2303FB086382B093F82A30002BD3
:101F900040F09C8005460C4600686D491746FFF7E7
:101FA00099FE002840F08E802368591C19D01F2B01
:101FB0004FF001028ABF67494FF0A04103F01F03B1
:101FC00002FA03F3C1F8083523681F2B86BF03F01C
:101FD0001F03604A4FF0A04203F5E073032142F86B
:101FE000231063685A1C0BD01F2B86BF03F01F03FE
:101FF000584A4FF0A04203F5E073002142F8231045
:102000002B68A269C3F82425227D637D13432A68C7
:10201000C2F86C35D4E900122B68C3F81425C3F854
:102020000C15237D012B5CD02C2303FB08F3F21845
:1020300057602269F25097B32A68237F0021C2F8C3
:102040001C11D2F81C210092009A2A68C2F844118F
:10205000D2F844210192019A2A683F49C2F8041338
:102060002A6842F3073100294FEA123232DB01F1CC
:1020700060415B0101F56141DBB281F800332B68FF
:1020800043F30732002A4FEA133109DB334C52097C
:10209000012301F01F0103FA01F144F822102B681B
:1020A0000422C3F800252C2303FB08660122002329
:1020B000C6E9063386F82930736186F82A2002B013
:1020C000BDE8F081112002B0BDE8F081082002B027
:1020D000BDE8F081224902F00F025B01DBB28B54B4
:1020E000CDE7A368591C0BD01F2B86BF03F01F033D
:1020F00018494FF0A04103F5E073002241F8232076
:10210000E3685A1C1AD01F2B8ABF12494FF0A04116
:1021100003F01F03012202FA03F3C1F80835E36854
:102120001F2B88BF03F01F0303F5E0738CBF094921
:102130004FF0A041032241F82320E3682A68A168F8
:10214000C2F80835C2F810156EE700BF98060020E7
:10215000A91D0000000300508000020000E100E023
:1021600014ED00E0F8B5036807793D4C0022C3F890
:1021700000252C2303FB07435B68C3B10368394A7E
:10218000C3F80823036843F30732002A4FEA1331E8
:102190000EDB5209344D2032012301F01F0103FAF6
:1021A00001F145F82210BFF34F8FBFF36F8F036823
:1021B000D3F80C65D3F81455D3F80825D3F81015C7
:1021C0004FF0FF3CC3F814C5C3F80CC5036866455F
:1021D000C3F808C5C3F810C50CD01F2E86BF06F083
:1021E0001F06224B4FF0A04306F5E0764FF0020C9D
:1021F00043F826C06E1C0BD01F2D86BF05F01F05AF
:102200001A4B4FF0A04305F5E075022643F8256010
:102210004D1C0BD01F2986BF01F01F01134B4FF03F
:10222000A04301F5E071022543F82150531C0BD067
:102230001F2A86BF02F01F020C4B4FF0A04302F58D
:10224000E072022143F822100068FFF761FD2C23A1
:1022500003FB0744002384F82A306360F8BD00BF05
:10226000980600208402020000E100E00003005014
:102270002DE9F041334C90F804E02C2303FB0E438E
:102280008446586984B000284ED15A61996018621A
:1022900083F82800DCF80020C2F81C01D2F81C21C9
:1022A0000292029ADCF8002001219160DCF8002003
:1022B0009D68C2F81C01D2F81C1101910199196A9C
:1022C0006E5C196A01311962C2F81C655A6812B154
:1022D00004B0BDE8F0815E691A6ADCF8001096422D
:1022E0001BD9074602E093F828200ABBD1F81C212D
:1022F000002AF8D0C1F81C71D1F81C210392039A6E
:102300001A6A15F802801A6A01321A62C1F81C852D
:102310001A6A9642EAD8DCF80010D1F81C31002B7A
:10232000FBD00123CB6004E0112004B0BDE8F081B4
:102330000F202C2303FB0E440023636104B0BDE88F
:10234000F08100BF9806002010B55B4BD3F8242124
:102350008AB0002A58D00022C3F82421D3F82411CF
:10236000049102228DF818200499544AD3F880145D
:10237000C3F880149FED4E7B0991D3F83C45D0689B
:1023800082ED067BCDE90704D2E9001306A8984741
:10239000494BD3F8442152B10021484AC3F84411B3
:1023A000D3F84401916903900398002961D1424B0D
:1023B000D3F8202162B10020C3F82001D3F82021F6
:1023C000029201213D4A029CD9605169002943D102
:1023D000394BD3F85821AAB10020C3F85801D3F8DB
:1023E0005811364A01910199516959B1D3F84C45B8
:1023F0008DF81800D2E901315061CDE9071406A823
:10240000116898470AB010BDD3F810110029BFD049
:10241000C3F81021D3F81011284C05910599A16932
:10242000D3F83C058842B3D1E169002933D0C4E92F
:102430000612D3F8002222F02002C3F80022E2683C
:102440000792012122698DF81810089063682168AD
:10245000E26006A898479BE7D3F84C458DF8180032
:10246000D2E901315061CDE9071406A811689847F7
:10247000AEE79FED0F7BD3F83C45D0684FF0010CE1
:10248000CDE9070482ED067BD2E900138DF818C070
:1024900006A898478BE7E268A1610123CDE90720F0
:1024A0008DF8183006A8D4E90013984770E700BFEC
:1024B000000000000000000000200040C8060020CE
:1024C0002DE9F04307797F4E07EBC70306EB830343
:1024D00087B093F82030002B40F0B58004460D46BD
:1024E000006879499046FFF7F5FB002840F0A78087
:1024F0002B68591C4FEAC70919D01F2B4FF0010256
:102500008ABF72494FF0A04103F01F0302FA03F3A0
:10251000C1F808352B681F2B86BF03F01F036B4AD9
:102520004FF0A04203F5E073032142F823106B68DB
:102530005A1C0BD01F2B86BF03F01F03634A4FF0BA
:10254000A04203F5E073002142F823102368AA6932
:10255000C3F824252B7D6A7D1A432368C3F86C25B4
:10256000D5E900312268C2F80C35C2F814152B7D6C
:10257000012B73D009EB070206EB8203C3F804803A
:102580002B6946F82230B8F1000F47D021682B7F25
:102590000022C1F81021D1F8101101910199216890
:1025A000C1F82021D1F82011029102992168C1F8C7
:1025B0002421D1F82411039103992168C1F8442101
:1025C000D1F84411049104992168C1F85821D1F837
:1025D00058210592059A22683D49C2F804132268E1
:1025E00042F3073100294FEA123230DB01F160413A
:1025F0005B0101F56141DBB281F80033226842F3EF
:102600000733002B4FEA123109DB324D5B090122FF
:1026100001F01F0102FA01F145F8231022684F442E
:1026200006EB87060121002386F820100821C2F856
:102630000015C6E90633736107B0BDE8F0831120C9
:1026400007B0BDE8F083082007B0BDE8F083224959
:1026500002F00F025B01DBB28B54CFE7AB68591C71
:102660000BD01F2B86BF03F01F0318494FF0A0416A
:1026700003F5E073002241F82320EB685A1C1AD0BE
:102680001F2B8ABF11494FF0A04103F01F03012205
:1026900002FA03F3C1F80835EB681F2B88BF03F07B
:1026A0001F0303F5E0738CBF08494FF0A0410322DC
:1026B00041F82320EB682268A968C2F80835C2F8FF
:1026C000101557E7C80600204923000000030050FA
:1026D0001003420000E100E014ED00E02DE9F041BC
:1026E0000579564C05EBC50304EB830301465B6893
:1026F000006882B0EE00C3B1514BC0F808330B68DC
:1027000043F30732002A4FEA13330EDB5209DFF896
:1027100038C12032012703F01F0307FA03F34CF8F6
:102720002230BFF34F8FBFF36F8F731904EB830316
:102730009A69D0F8003223F02003C0F8003242B189
:102740000023C0F84431D0F844310093009B0123AA
:1027500043600023C0F85831D0F858310193019BF1
:102760007319012204EB8303C2609A69D0F85831CF
:10277000002BFBD01AB1D0F84431002BF6D0002347
:10278000C0F800350B684FF0FF38D3F80CE5D3F8EC
:1027900014C5D3F80825D3F81075C3F80C85C3F811
:1027A00014850B68C645C3F80885C3F810850CD09E
:1027B000BEF11F0F86BF0EF01F0E22494FF0A04141
:1027C0000EF5E07E022341F82E30BCF1FF3F0CD025
:1027D000BCF11F0F86BF0CF01F0C1A494FF0A0412F
:1027E0000CF5E07C022341F82C30791C0BD01F2F14
:1027F00086BF07F01F0713494FF0A04107F5E077A8
:10280000022341F82730531C0BD01F2A86BF02F049
:102810001F020C494FF0A04102F5E072022341F87B
:102820002230FFF775FA354404EB8504002384F861
:102830002030636002B0BDE8F08100BFC806002010
:10284000100342000003005000E100E001F0604C82
:10285000BCF1005F30D170B590F804E0264C0EEB6F
:10286000CE0C04EB8C0C0346DCF8140082B04FEA6B
:10287000CE0500283BD1CCF81420CCF808101A68FB
:10288000C2F82001D2F820210192019A1A68C2F8F8
:102890005801D2F858210092009A1A68DCF81460A6
:1028A000C2F84415C2F848651A6801219160DCF845
:1028B00004201AB102B070BD102070471A6800E001
:1028C000C0B9D2F82011D2F858010029F8D088B93F
:1028D0000121D1601B68D3F85821002AFBD005EBF9
:1028E0000E0304EB830300225A6102B070BD112075
:1028F00002B070BD0F20F2E7C806002010B44FF000
:102900008053D3F83021082A1CD0774AD2F8883077
:1029100043F47003C2F88830BFF34F8FBFF36F8F5B
:102920004FF01023D3F80022002AC0F2AC80D3F875
:102930000432002BC0F2A7806C4B6D4A1A605DF820
:10294000044B70474FF080410020C1F80C01694AE8
:10295000C1F81001C1F83805D3F80414C2F82015E5
:10296000D3F80814C2F82415D3F80C14C2F82815AB
:10297000D3F81014C2F82C15D3F81414C2F830157B
:10298000D3F81814C2F83415D3F81C14C2F8401543
:10299000D3F82014C2F84415D3F82414C2F848150B
:1029A000D3F82814C2F84C15D3F82C14C2F85015DB
:1029B000D3F83014C2F85415D3F83414C2F86015A3
:1029C000D3F83814C2F86415D3F83C14C2F868156B
:1029D000D3F84014C2F86C15D3F83411D3F844344A
:1029E000C2F87035032942D8434B5B5C1BB1434BA3
:1029F000434AC3F88C26434B5B5C73B14FF0805362
:102A00004149D3F83021FB20C1F81805082AD3F832
:102A100034117FF47AAF032929D83C4B5B5CBBB1FE
:102A20004FF080524FF08040D2F85832D0F8E41E78
:102A3000D2F8304121F00F0103F00F030B43C0F82F
:102A4000E43E082CD2F834117FF45FAF03290ED88E
:102A50002F4B5B5C5BB14FF080532E4AD3F8303183
:102A60004FF40071082BC2F840167FF44EAF4FF0C0
:102A70008043D3F80024D2077FF547AF6FF00102FF
:102A8000C3F8002441E7244A0123C2F80435D2F8F0
:102A90000034002BFBD04FF0102312211E4AC3F844
:102AA0000012D2F80034002BFBD04FF0102312217B
:102AB000194AC3F80412D2F80034002BFBD00023CB
:102AC0001549C2F80435D1F80034002BFBD0BFF310
:102AD0004F8F0549114BCA6802F4E0621343CB6083
:102AE000BFF34F8F00BFFDE700ED00E01C000020AA
:102AF0000090D00300C00040A82D0000005000400E
:102B000048810300A82D000000F00040A82D00001F
:102B1000A82D00000090024000E001400400FA05EA
:102B200008B5074B044613B10021AFF30080054BF5
:102B30001868836A03B19847204600F047F800BF41
:102B400000000000B02E000070B50D4D0D4C641B50
:102B5000A4100026A64209D10B4D0C4C00F038F809
:102B6000641BA4100026A64205D170BD55F8043B95
:102B700098470136EEE755F8043B98470136F2E7EF
:102B800080000020800000208000002084000020C1
:102B90000A44914200F1FF3300D1704710B511F89B
:102BA000014B03F8014F9142F9D110BD0244034695
:102BB000934200D1704703F8011BF9E7034613F86D
:102BC000012B002AFBD1181A01387047FEE700BF1D
:102BD000F8B500BFF8BC08BC9E467047F8B500BF0A
:102BE000F8BC08BC9E4670470000000000000000D2
:102BF0000338FDD870470000FFFFFFFFFFFFFFFF16
:102C0000FFFFFFFFFFFFFFFF0000000000000000CC
:102C10000000D60106010000050400007504000054
:102C200001040000756172745F6C6F675F626163BD
:102C30006B656E64000000004261636B656E6473D7
:102C400020666C7573686564000000006170700038
:102C50001B5B313B33316D0025734C6F6773206410
:102C6000726F70706564202825642925730D0A0031
:102C70001B5B306D00000000257300003C25733E97
:102C80002025733A200000000D0A00002025303274
:102C900078000000202020007C0000002563000058
:102CA0001B5B313B33306D001B5B313B33326D00BE
:102CB0001B5B313B33336D001B5B313B33346D00A9
:102CC0001B5B313B33356D001B5B313B33366D0095
:102CD0001B5B313B33376D006572726F7200000011
:102CE0007761726E696E6700696E666F0000000042
:102CF0006465627567000000702C0000A02C000065
:102D0000502C0000A82C0000B02C0000B82C0000B3
:102D1000C02C0000C82C0000D02C000000000000D7
:102D2000D82C0000E02C0000E82C0000F02C000063
:102D3000161718006170705F627574746F6E000012
:102D4000466174616C206572726F7200537973749E
:102D5000656D207265736574000000006170705FBE
:102D600074696D65720000003031323334353637A6
:102D70003839414243444546736F72746C697374C9
:102D8000000000004750494F544500005052530086
:102D90005350494D000000005541525400000000BE
:102DA0005541525445000000010000000020202041
:102DB00020202020202028282828282020202020EB
:102DC00020202020202020202020202020881010BB
:102DD0001010101010101010101010101004040417
:102DE00004040404040404101010101010104141D5
:102DF00041414141010101010101010101010101C3
:102E000001010101010101011010101010104242D6
:102E10004242424202020202020202020202020292
:102E20000202020202020202101010102000000032
:102E30000000000000000000000000000000000092
:102E40000000000000000000000000000000000082
:102E50000000000000000000000000000000000072
:102E60000000000000000000000000000000000062
:102E70000000000000000000000000000000000052
:102E80000000000000000000000000000000000042
:102E90000000000000000000000000000000000032
:102EA0000000000000000000000000000000000022
:082EB0002000002000000000DA
:102EB800842D0000000000008C2D000000000000A0
:102EC800902D000000000000982D00000000000078
:102ED800A02D0000000000004C2C0000000003039F
:102EE800342D0000000000005C2D000000000000F0
:082EF800782D0000000000002D
:102F0000182C000000000000242C000014000020F9
:102F1000EC000020B4010020BC010020F4000020DF
:042F20001800000095
:082F24001CD3FF7F0100000037
:102F2C0000000000002000400000000000200040D5
:102F3C000000000000000000FF0000000090D00323
:102F4C000000000000000000000000000000000075
:102F5C000000000000000000000000000000000065
:102F6C000000000000000000000000000000000055
:102F7C000000000000000000000000000000000045
:102F8C000000000000000000000000000000000035
:102F9C000000000000000000000000000000000025
:082FAC002502000001020000F3
:04000003000002BD3A
:00000001FF
